{
	"EasyStorage.sol": {
		"EasyStorage": {
			"abi": [
				{
					"inputs": [],
					"stateMutability": "nonpayable",
					"type": "constructor"
				},
				{
					"inputs": [
						{
							"internalType": "string",
							"name": "userName",
							"type": "string"
						},
						{
							"internalType": "string",
							"name": "password",
							"type": "string"
						}
					],
					"name": "addNewUser",
					"outputs": [],
					"stateMutability": "nonpayable",
					"type": "function"
				},
				{
					"inputs": [],
					"name": "getListOfNames",
					"outputs": [
						{
							"internalType": "string[]",
							"name": "",
							"type": "string[]"
						}
					],
					"stateMutability": "view",
					"type": "function"
				},
				{
					"inputs": [],
					"name": "getNumber",
					"outputs": [
						{
							"internalType": "uint256",
							"name": "",
							"type": "uint256"
						}
					],
					"stateMutability": "view",
					"type": "function"
				},
				{
					"inputs": [],
					"name": "getUserList",
					"outputs": [
						{
							"components": [
								{
									"internalType": "string",
									"name": "userName",
									"type": "string"
								},
								{
									"internalType": "string",
									"name": "password",
									"type": "string"
								}
							],
							"internalType": "struct EasyStorage.loginDetails[]",
							"name": "",
							"type": "tuple[]"
						}
					],
					"stateMutability": "view",
					"type": "function"
				},
				{
					"inputs": [
						{
							"internalType": "uint256",
							"name": "",
							"type": "uint256"
						}
					],
					"name": "listOfNames",
					"outputs": [
						{
							"internalType": "string",
							"name": "",
							"type": "string"
						}
					],
					"stateMutability": "view",
					"type": "function"
				},
				{
					"inputs": [
						{
							"internalType": "string",
							"name": "",
							"type": "string"
						}
					],
					"name": "loginData",
					"outputs": [
						{
							"internalType": "string",
							"name": "",
							"type": "string"
						}
					],
					"stateMutability": "view",
					"type": "function"
				},
				{
					"inputs": [
						{
							"internalType": "uint256",
							"name": "",
							"type": "uint256"
						}
					],
					"name": "users",
					"outputs": [
						{
							"internalType": "string",
							"name": "userName",
							"type": "string"
						},
						{
							"internalType": "string",
							"name": "password",
							"type": "string"
						}
					],
					"stateMutability": "view",
					"type": "function"
				}
			],
			"devdoc": {
				"kind": "dev",
				"methods": {},
				"version": 1
			},
			"evm": {
				"assembly": "    /* \"EasyStorage.sol\":63:1108  contract EasyStorage{... */\n  mstore(0x40, 0x80)\n    /* \"EasyStorage.sol\":109:111  15 */\n  0x0f\n    /* \"EasyStorage.sol\":92:111  uint256 number = 15 */\n  0x00\n  sstore\n    /* \"EasyStorage.sol\":242:449  constructor() {... */\n  callvalue\n  dup1\n  iszero\n  tag_1\n  jumpi\n  0x00\n  dup1\n  revert\ntag_1:\n  pop\n    /* \"EasyStorage.sol\":267:278  listOfNames */\n  0x01\n    /* \"EasyStorage.sol\":267:291  listOfNames.push(\"Dayo\") */\n  dup1\n  0x01\n  dup2\n  sload\n  add\n  dup1\n  dup3\n  sstore\n  dup1\n  swap2\n  pop\n  pop\n  0x01\n  swap1\n  sub\n  swap1\n  0x00\n  mstore\n  keccak256(0x00, 0x20)\n  add\n  0x00\n  mload(0x40)\n  dup1\n  0x40\n  add\n  0x40\n  mstore\n  dup1\n  0x04\n  dup2\n  mstore\n  0x20\n  add\n  0x4461796f00000000000000000000000000000000000000000000000000000000\n  dup2\n  mstore\n  pop\n  swap1\n  swap2\n  swap1\n  swap2\n  pop\n  swap1\n  dup2\n  tag_5\n  swap2\n  swap1\n  tag_6\n  jump\t// in\ntag_5:\n  pop\n    /* \"EasyStorage.sol\":302:313  listOfNames */\n  0x01\n    /* \"EasyStorage.sol\":302:328  listOfNames.push(\"Arinze\") */\n  dup1\n  0x01\n  dup2\n  sload\n  add\n  dup1\n  dup3\n  sstore\n  dup1\n  swap2\n  pop\n  pop\n  0x01\n  swap1\n  sub\n  swap1\n  0x00\n  mstore\n  keccak256(0x00, 0x20)\n  add\n  0x00\n  mload(0x40)\n  dup1\n  0x40\n  add\n  0x40\n  mstore\n  dup1\n  0x06\n  dup2\n  mstore\n  0x20\n  add\n  0x4172696e7a650000000000000000000000000000000000000000000000000000\n  dup2\n  mstore\n  pop\n  swap1\n  swap2\n  swap1\n  swap2\n  pop\n  swap1\n  dup2\n  tag_8\n  swap2\n  swap1\n  tag_6\n  jump\t// in\ntag_8:\n  pop\n    /* \"EasyStorage.sol\":339:350  listOfNames */\n  0x01\n    /* \"EasyStorage.sol\":339:365  listOfNames.push(\"Nkenna\") */\n  dup1\n  0x01\n  dup2\n  sload\n  add\n  dup1\n  dup3\n  sstore\n  dup1\n  swap2\n  pop\n  pop\n  0x01\n  swap1\n  sub\n  swap1\n  0x00\n  mstore\n  keccak256(0x00, 0x20)\n  add\n  0x00\n  mload(0x40)\n  dup1\n  0x40\n  add\n  0x40\n  mstore\n  dup1\n  0x06\n  dup2\n  mstore\n  0x20\n  add\n  0x4e6b656e6e610000000000000000000000000000000000000000000000000000\n  dup2\n  mstore\n  pop\n  swap1\n  swap2\n  swap1\n  swap2\n  pop\n  swap1\n  dup2\n  tag_10\n  swap2\n  swap1\n  tag_6\n  jump\t// in\ntag_10:\n  pop\n    /* \"EasyStorage.sol\":376:387  listOfNames */\n  0x01\n    /* \"EasyStorage.sol\":376:403  listOfNames.push(\"Timothy\") */\n  dup1\n  0x01\n  dup2\n  sload\n  add\n  dup1\n  dup3\n  sstore\n  dup1\n  swap2\n  pop\n  pop\n  0x01\n  swap1\n  sub\n  swap1\n  0x00\n  mstore\n  keccak256(0x00, 0x20)\n  add\n  0x00\n  mload(0x40)\n  dup1\n  0x40\n  add\n  0x40\n  mstore\n  dup1\n  0x07\n  dup2\n  mstore\n  0x20\n  add\n  0x54696d6f74687900000000000000000000000000000000000000000000000000\n  dup2\n  mstore\n  pop\n  swap1\n  swap2\n  swap1\n  swap2\n  pop\n  swap1\n  dup2\n  tag_12\n  swap2\n  swap1\n  tag_6\n  jump\t// in\ntag_12:\n  pop\n    /* \"EasyStorage.sol\":414:425  listOfNames */\n  0x01\n    /* \"EasyStorage.sol\":414:441  listOfNames.push(\"Charles\") */\n  dup1\n  0x01\n  dup2\n  sload\n  add\n  dup1\n  dup3\n  sstore\n  dup1\n  swap2\n  pop\n  pop\n  0x01\n  swap1\n  sub\n  swap1\n  0x00\n  mstore\n  keccak256(0x00, 0x20)\n  add\n  0x00\n  mload(0x40)\n  dup1\n  0x40\n  add\n  0x40\n  mstore\n  dup1\n  0x07\n  dup2\n  mstore\n  0x20\n  add\n  0x436861726c657300000000000000000000000000000000000000000000000000\n  dup2\n  mstore\n  pop\n  swap1\n  swap2\n  swap1\n  swap2\n  pop\n  swap1\n  dup2\n  tag_14\n  swap2\n  swap1\n  tag_6\n  jump\t// in\ntag_14:\n  pop\n    /* \"EasyStorage.sol\":63:1108  contract EasyStorage{... */\n  jump(tag_15)\n    /* \"#utility.yul\":7:106   */\ntag_16:\n    /* \"#utility.yul\":59:65   */\n  0x00\n    /* \"#utility.yul\":93:98   */\n  dup2\n    /* \"#utility.yul\":87:99   */\n  mload\n    /* \"#utility.yul\":77:99   */\n  swap1\n  pop\n    /* \"#utility.yul\":7:106   */\n  swap2\n  swap1\n  pop\n  jump\t// out\n    /* \"#utility.yul\":112:292   */\ntag_17:\n    /* \"#utility.yul\":160:237   */\n  0x4e487b7100000000000000000000000000000000000000000000000000000000\n    /* \"#utility.yul\":157:158   */\n  0x00\n    /* \"#utility.yul\":150:238   */\n  mstore\n    /* \"#utility.yul\":257:261   */\n  0x41\n    /* \"#utility.yul\":254:255   */\n  0x04\n    /* \"#utility.yul\":247:262   */\n  mstore\n    /* \"#utility.yul\":281:285   */\n  0x24\n    /* \"#utility.yul\":278:279   */\n  0x00\n    /* \"#utility.yul\":271:286   */\n  revert\n    /* \"#utility.yul\":298:478   */\ntag_18:\n    /* \"#utility.yul\":346:423   */\n  0x4e487b7100000000000000000000000000000000000000000000000000000000\n    /* \"#utility.yul\":343:344   */\n  0x00\n    /* \"#utility.yul\":336:424   */\n  mstore\n    /* \"#utility.yul\":443:447   */\n  0x22\n    /* \"#utility.yul\":440:441   */\n  0x04\n    /* \"#utility.yul\":433:448   */\n  mstore\n    /* \"#utility.yul\":467:471   */\n  0x24\n    /* \"#utility.yul\":464:465   */\n  0x00\n    /* \"#utility.yul\":457:472   */\n  revert\n    /* \"#utility.yul\":484:804   */\ntag_19:\n    /* \"#utility.yul\":528:534   */\n  0x00\n    /* \"#utility.yul\":565:566   */\n  0x02\n    /* \"#utility.yul\":559:563   */\n  dup3\n    /* \"#utility.yul\":555:567   */\n  div\n    /* \"#utility.yul\":545:567   */\n  swap1\n  pop\n    /* \"#utility.yul\":612:613   */\n  0x01\n    /* \"#utility.yul\":606:610   */\n  dup3\n    /* \"#utility.yul\":602:614   */\n  and\n    /* \"#utility.yul\":633:651   */\n  dup1\n    /* \"#utility.yul\":623:704   */\n  tag_41\n  jumpi\n    /* \"#utility.yul\":689:693   */\n  0x7f\n    /* \"#utility.yul\":681:687   */\n  dup3\n    /* \"#utility.yul\":677:694   */\n  and\n    /* \"#utility.yul\":667:694   */\n  swap2\n  pop\n    /* \"#utility.yul\":623:704   */\ntag_41:\n    /* \"#utility.yul\":751:753   */\n  0x20\n    /* \"#utility.yul\":743:749   */\n  dup3\n    /* \"#utility.yul\":740:754   */\n  lt\n    /* \"#utility.yul\":720:738   */\n  dup2\n    /* \"#utility.yul\":717:755   */\n  sub\n    /* \"#utility.yul\":714:798   */\n  tag_42\n  jumpi\n    /* \"#utility.yul\":770:788   */\n  tag_43\n  tag_18\n  jump\t// in\ntag_43:\n    /* \"#utility.yul\":714:798   */\ntag_42:\n    /* \"#utility.yul\":535:804   */\n  pop\n    /* \"#utility.yul\":484:804   */\n  swap2\n  swap1\n  pop\n  jump\t// out\n    /* \"#utility.yul\":810:951   */\ntag_20:\n    /* \"#utility.yul\":859:863   */\n  0x00\n    /* \"#utility.yul\":882:885   */\n  dup2\n    /* \"#utility.yul\":874:885   */\n  swap1\n  pop\n    /* \"#utility.yul\":905:908   */\n  dup2\n    /* \"#utility.yul\":902:903   */\n  0x00\n    /* \"#utility.yul\":895:909   */\n  mstore\n    /* \"#utility.yul\":939:943   */\n  0x20\n    /* \"#utility.yul\":936:937   */\n  0x00\n    /* \"#utility.yul\":926:944   */\n  keccak256\n    /* \"#utility.yul\":918:944   */\n  swap1\n  pop\n    /* \"#utility.yul\":810:951   */\n  swap2\n  swap1\n  pop\n  jump\t// out\n    /* \"#utility.yul\":957:1050   */\ntag_21:\n    /* \"#utility.yul\":994:1000   */\n  0x00\n    /* \"#utility.yul\":1041:1043   */\n  0x20\n    /* \"#utility.yul\":1036:1038   */\n  0x1f\n    /* \"#utility.yul\":1029:1034   */\n  dup4\n    /* \"#utility.yul\":1025:1039   */\n  add\n    /* \"#utility.yul\":1021:1044   */\n  div\n    /* \"#utility.yul\":1011:1044   */\n  swap1\n  pop\n    /* \"#utility.yul\":957:1050   */\n  swap2\n  swap1\n  pop\n  jump\t// out\n    /* \"#utility.yul\":1056:1163   */\ntag_22:\n    /* \"#utility.yul\":1100:1108   */\n  0x00\n    /* \"#utility.yul\":1150:1155   */\n  dup3\n    /* \"#utility.yul\":1144:1148   */\n  dup3\n    /* \"#utility.yul\":1140:1156   */\n  shl\n    /* \"#utility.yul\":1119:1156   */\n  swap1\n  pop\n    /* \"#utility.yul\":1056:1163   */\n  swap3\n  swap2\n  pop\n  pop\n  jump\t// out\n    /* \"#utility.yul\":1169:1562   */\ntag_23:\n    /* \"#utility.yul\":1238:1244   */\n  0x00\n    /* \"#utility.yul\":1288:1289   */\n  0x08\n    /* \"#utility.yul\":1276:1286   */\n  dup4\n    /* \"#utility.yul\":1272:1290   */\n  mul\n    /* \"#utility.yul\":1311:1408   */\n  tag_48\n    /* \"#utility.yul\":1341:1407   */\n  0xffffffffffffffffffffffffffffffffffffffffffffffffffffffffffffffff\n    /* \"#utility.yul\":1330:1339   */\n  dup3\n    /* \"#utility.yul\":1311:1408   */\n  tag_22\n  jump\t// in\ntag_48:\n    /* \"#utility.yul\":1429:1468   */\n  tag_49\n    /* \"#utility.yul\":1459:1467   */\n  dup7\n    /* \"#utility.yul\":1448:1457   */\n  dup4\n    /* \"#utility.yul\":1429:1468   */\n  tag_22\n  jump\t// in\ntag_49:\n    /* \"#utility.yul\":1417:1468   */\n  swap6\n  pop\n    /* \"#utility.yul\":1501:1505   */\n  dup1\n    /* \"#utility.yul\":1497:1506   */\n  not\n    /* \"#utility.yul\":1490:1495   */\n  dup5\n    /* \"#utility.yul\":1486:1507   */\n  and\n    /* \"#utility.yul\":1477:1507   */\n  swap4\n  pop\n    /* \"#utility.yul\":1550:1554   */\n  dup1\n    /* \"#utility.yul\":1540:1548   */\n  dup7\n    /* \"#utility.yul\":1536:1555   */\n  and\n    /* \"#utility.yul\":1529:1534   */\n  dup5\n    /* \"#utility.yul\":1526:1556   */\n  or\n    /* \"#utility.yul\":1516:1556   */\n  swap3\n  pop\n    /* \"#utility.yul\":1245:1562   */\n  pop\n  pop\n    /* \"#utility.yul\":1169:1562   */\n  swap4\n  swap3\n  pop\n  pop\n  pop\n  jump\t// out\n    /* \"#utility.yul\":1568:1645   */\ntag_24:\n    /* \"#utility.yul\":1605:1612   */\n  0x00\n    /* \"#utility.yul\":1634:1639   */\n  dup2\n    /* \"#utility.yul\":1623:1639   */\n  swap1\n  pop\n    /* \"#utility.yul\":1568:1645   */\n  swap2\n  swap1\n  pop\n  jump\t// out\n    /* \"#utility.yul\":1651:1711   */\ntag_25:\n    /* \"#utility.yul\":1679:1682   */\n  0x00\n    /* \"#utility.yul\":1700:1705   */\n  dup2\n    /* \"#utility.yul\":1693:1705   */\n  swap1\n  pop\n    /* \"#utility.yul\":1651:1711   */\n  swap2\n  swap1\n  pop\n  jump\t// out\n    /* \"#utility.yul\":1717:1859   */\ntag_26:\n    /* \"#utility.yul\":1767:1776   */\n  0x00\n    /* \"#utility.yul\":1800:1853   */\n  tag_53\n    /* \"#utility.yul\":1818:1852   */\n  tag_54\n    /* \"#utility.yul\":1827:1851   */\n  tag_55\n    /* \"#utility.yul\":1845:1850   */\n  dup5\n    /* \"#utility.yul\":1827:1851   */\n  tag_24\n  jump\t// in\ntag_55:\n    /* \"#utility.yul\":1818:1852   */\n  tag_25\n  jump\t// in\ntag_54:\n    /* \"#utility.yul\":1800:1853   */\n  tag_24\n  jump\t// in\ntag_53:\n    /* \"#utility.yul\":1787:1853   */\n  swap1\n  pop\n    /* \"#utility.yul\":1717:1859   */\n  swap2\n  swap1\n  pop\n  jump\t// out\n    /* \"#utility.yul\":1865:1940   */\ntag_27:\n    /* \"#utility.yul\":1908:1911   */\n  0x00\n    /* \"#utility.yul\":1929:1934   */\n  dup2\n    /* \"#utility.yul\":1922:1934   */\n  swap1\n  pop\n    /* \"#utility.yul\":1865:1940   */\n  swap2\n  swap1\n  pop\n  jump\t// out\n    /* \"#utility.yul\":1946:2215   */\ntag_28:\n    /* \"#utility.yul\":2056:2095   */\n  tag_58\n    /* \"#utility.yul\":2087:2094   */\n  dup4\n    /* \"#utility.yul\":2056:2095   */\n  tag_26\n  jump\t// in\ntag_58:\n    /* \"#utility.yul\":2117:2208   */\n  tag_59\n    /* \"#utility.yul\":2166:2207   */\n  tag_60\n    /* \"#utility.yul\":2190:2206   */\n  dup3\n    /* \"#utility.yul\":2166:2207   */\n  tag_27\n  jump\t// in\ntag_60:\n    /* \"#utility.yul\":2158:2164   */\n  dup5\n    /* \"#utility.yul\":2151:2155   */\n  dup5\n    /* \"#utility.yul\":2145:2156   */\n  sload\n    /* \"#utility.yul\":2117:2208   */\n  tag_23\n  jump\t// in\ntag_59:\n    /* \"#utility.yul\":2111:2115   */\n  dup3\n    /* \"#utility.yul\":2104:2209   */\n  sstore\n    /* \"#utility.yul\":2022:2215   */\n  pop\n    /* \"#utility.yul\":1946:2215   */\n  pop\n  pop\n  pop\n  jump\t// out\n    /* \"#utility.yul\":2221:2294   */\ntag_29:\n    /* \"#utility.yul\":2266:2269   */\n  0x00\n    /* \"#utility.yul\":2221:2294   */\n  swap1\n  jump\t// out\n    /* \"#utility.yul\":2300:2489   */\ntag_30:\n    /* \"#utility.yul\":2377:2409   */\n  tag_63\n  tag_29\n  jump\t// in\ntag_63:\n    /* \"#utility.yul\":2418:2483   */\n  tag_64\n    /* \"#utility.yul\":2476:2482   */\n  dup2\n    /* \"#utility.yul\":2468:2474   */\n  dup5\n    /* \"#utility.yul\":2462:2466   */\n  dup5\n    /* \"#utility.yul\":2418:2483   */\n  tag_28\n  jump\t// in\ntag_64:\n    /* \"#utility.yul\":2353:2489   */\n  pop\n    /* \"#utility.yul\":2300:2489   */\n  pop\n  pop\n  jump\t// out\n    /* \"#utility.yul\":2495:2681   */\ntag_31:\n    /* \"#utility.yul\":2555:2675   */\ntag_66:\n    /* \"#utility.yul\":2572:2575   */\n  dup2\n    /* \"#utility.yul\":2565:2570   */\n  dup2\n    /* \"#utility.yul\":2562:2576   */\n  lt\n    /* \"#utility.yul\":2555:2675   */\n  iszero\n  tag_68\n  jumpi\n    /* \"#utility.yul\":2626:2665   */\n  tag_69\n    /* \"#utility.yul\":2663:2664   */\n  0x00\n    /* \"#utility.yul\":2656:2661   */\n  dup3\n    /* \"#utility.yul\":2626:2665   */\n  tag_30\n  jump\t// in\ntag_69:\n    /* \"#utility.yul\":2599:2600   */\n  0x01\n    /* \"#utility.yul\":2592:2597   */\n  dup2\n    /* \"#utility.yul\":2588:2601   */\n  add\n    /* \"#utility.yul\":2579:2601   */\n  swap1\n  pop\n    /* \"#utility.yul\":2555:2675   */\n  jump(tag_66)\ntag_68:\n    /* \"#utility.yul\":2495:2681   */\n  pop\n  pop\n  jump\t// out\n    /* \"#utility.yul\":2687:3230   */\ntag_32:\n    /* \"#utility.yul\":2788:2790   */\n  0x1f\n    /* \"#utility.yul\":2783:2786   */\n  dup3\n    /* \"#utility.yul\":2780:2791   */\n  gt\n    /* \"#utility.yul\":2777:3223   */\n  iszero\n  tag_71\n  jumpi\n    /* \"#utility.yul\":2822:2860   */\n  tag_72\n    /* \"#utility.yul\":2854:2859   */\n  dup2\n    /* \"#utility.yul\":2822:2860   */\n  tag_20\n  jump\t// in\ntag_72:\n    /* \"#utility.yul\":2906:2935   */\n  tag_73\n    /* \"#utility.yul\":2924:2934   */\n  dup5\n    /* \"#utility.yul\":2906:2935   */\n  tag_21\n  jump\t// in\ntag_73:\n    /* \"#utility.yul\":2896:2904   */\n  dup2\n    /* \"#utility.yul\":2892:2936   */\n  add\n    /* \"#utility.yul\":3089:3091   */\n  0x20\n    /* \"#utility.yul\":3077:3087   */\n  dup6\n    /* \"#utility.yul\":3074:3092   */\n  lt\n    /* \"#utility.yul\":3071:3120   */\n  iszero\n  tag_74\n  jumpi\n    /* \"#utility.yul\":3110:3118   */\n  dup2\n    /* \"#utility.yul\":3095:3118   */\n  swap1\n  pop\n    /* \"#utility.yul\":3071:3120   */\ntag_74:\n    /* \"#utility.yul\":3133:3213   */\n  tag_75\n    /* \"#utility.yul\":3189:3211   */\n  tag_76\n    /* \"#utility.yul\":3207:3210   */\n  dup6\n    /* \"#utility.yul\":3189:3211   */\n  tag_21\n  jump\t// in\ntag_76:\n    /* \"#utility.yul\":3179:3187   */\n  dup4\n    /* \"#utility.yul\":3175:3212   */\n  add\n    /* \"#utility.yul\":3162:3173   */\n  dup3\n    /* \"#utility.yul\":3133:3213   */\n  tag_31\n  jump\t// in\ntag_75:\n    /* \"#utility.yul\":2792:3223   */\n  pop\n  pop\n    /* \"#utility.yul\":2777:3223   */\ntag_71:\n    /* \"#utility.yul\":2687:3230   */\n  pop\n  pop\n  pop\n  jump\t// out\n    /* \"#utility.yul\":3236:3353   */\ntag_33:\n    /* \"#utility.yul\":3290:3298   */\n  0x00\n    /* \"#utility.yul\":3340:3345   */\n  dup3\n    /* \"#utility.yul\":3334:3338   */\n  dup3\n    /* \"#utility.yul\":3330:3346   */\n  shr\n    /* \"#utility.yul\":3309:3346   */\n  swap1\n  pop\n    /* \"#utility.yul\":3236:3353   */\n  swap3\n  swap2\n  pop\n  pop\n  jump\t// out\n    /* \"#utility.yul\":3359:3528   */\ntag_34:\n    /* \"#utility.yul\":3403:3409   */\n  0x00\n    /* \"#utility.yul\":3436:3487   */\n  tag_79\n    /* \"#utility.yul\":3484:3485   */\n  0x00\n    /* \"#utility.yul\":3480:3486   */\n  not\n    /* \"#utility.yul\":3472:3477   */\n  dup5\n    /* \"#utility.yul\":3469:3470   */\n  0x08\n    /* \"#utility.yul\":3465:3478   */\n  mul\n    /* \"#utility.yul\":3436:3487   */\n  tag_33\n  jump\t// in\ntag_79:\n    /* \"#utility.yul\":3432:3488   */\n  not\n    /* \"#utility.yul\":3517:3521   */\n  dup1\n    /* \"#utility.yul\":3511:3515   */\n  dup4\n    /* \"#utility.yul\":3507:3522   */\n  and\n    /* \"#utility.yul\":3497:3522   */\n  swap2\n  pop\n    /* \"#utility.yul\":3410:3528   */\n  pop\n    /* \"#utility.yul\":3359:3528   */\n  swap3\n  swap2\n  pop\n  pop\n  jump\t// out\n    /* \"#utility.yul\":3533:3828   */\ntag_35:\n    /* \"#utility.yul\":3609:3613   */\n  0x00\n    /* \"#utility.yul\":3755:3784   */\n  tag_81\n    /* \"#utility.yul\":3780:3783   */\n  dup4\n    /* \"#utility.yul\":3774:3778   */\n  dup4\n    /* \"#utility.yul\":3755:3784   */\n  tag_34\n  jump\t// in\ntag_81:\n    /* \"#utility.yul\":3747:3784   */\n  swap2\n  pop\n    /* \"#utility.yul\":3817:3820   */\n  dup3\n    /* \"#utility.yul\":3814:3815   */\n  0x02\n    /* \"#utility.yul\":3810:3821   */\n  mul\n    /* \"#utility.yul\":3804:3808   */\n  dup3\n    /* \"#utility.yul\":3801:3822   */\n  or\n    /* \"#utility.yul\":3793:3822   */\n  swap1\n  pop\n    /* \"#utility.yul\":3533:3828   */\n  swap3\n  swap2\n  pop\n  pop\n  jump\t// out\n    /* \"#utility.yul\":3833:5228   */\ntag_6:\n    /* \"#utility.yul\":3950:3987   */\n  tag_83\n    /* \"#utility.yul\":3983:3986   */\n  dup3\n    /* \"#utility.yul\":3950:3987   */\n  tag_16\n  jump\t// in\ntag_83:\n    /* \"#utility.yul\":4052:4070   */\n  0xffffffffffffffff\n    /* \"#utility.yul\":4044:4050   */\n  dup2\n    /* \"#utility.yul\":4041:4071   */\n  gt\n    /* \"#utility.yul\":4038:4094   */\n  iszero\n  tag_84\n  jumpi\n    /* \"#utility.yul\":4074:4092   */\n  tag_85\n  tag_17\n  jump\t// in\ntag_85:\n    /* \"#utility.yul\":4038:4094   */\ntag_84:\n    /* \"#utility.yul\":4118:4156   */\n  tag_86\n    /* \"#utility.yul\":4150:4154   */\n  dup3\n    /* \"#utility.yul\":4144:4155   */\n  sload\n    /* \"#utility.yul\":4118:4156   */\n  tag_19\n  jump\t// in\ntag_86:\n    /* \"#utility.yul\":4203:4270   */\n  tag_87\n    /* \"#utility.yul\":4263:4269   */\n  dup3\n    /* \"#utility.yul\":4255:4261   */\n  dup3\n    /* \"#utility.yul\":4249:4253   */\n  dup6\n    /* \"#utility.yul\":4203:4270   */\n  tag_32\n  jump\t// in\ntag_87:\n    /* \"#utility.yul\":4297:4298   */\n  0x00\n    /* \"#utility.yul\":4321:4325   */\n  0x20\n    /* \"#utility.yul\":4308:4325   */\n  swap1\n  pop\n    /* \"#utility.yul\":4353:4355   */\n  0x1f\n    /* \"#utility.yul\":4345:4351   */\n  dup4\n    /* \"#utility.yul\":4342:4356   */\n  gt\n    /* \"#utility.yul\":4370:4371   */\n  0x01\n    /* \"#utility.yul\":4365:4983   */\n  dup2\n  eq\n  tag_89\n  jumpi\n    /* \"#utility.yul\":5027:5028   */\n  0x00\n    /* \"#utility.yul\":5044:5050   */\n  dup5\n    /* \"#utility.yul\":5041:5118   */\n  iszero\n  tag_90\n  jumpi\n    /* \"#utility.yul\":5093:5102   */\n  dup3\n    /* \"#utility.yul\":5088:5091   */\n  dup8\n    /* \"#utility.yul\":5084:5103   */\n  add\n    /* \"#utility.yul\":5078:5104   */\n  mload\n    /* \"#utility.yul\":5069:5104   */\n  swap1\n  pop\n    /* \"#utility.yul\":5041:5118   */\ntag_90:\n    /* \"#utility.yul\":5144:5211   */\n  tag_91\n    /* \"#utility.yul\":5204:5210   */\n  dup6\n    /* \"#utility.yul\":5197:5202   */\n  dup3\n    /* \"#utility.yul\":5144:5211   */\n  tag_35\n  jump\t// in\ntag_91:\n    /* \"#utility.yul\":5138:5142   */\n  dup7\n    /* \"#utility.yul\":5131:5212   */\n  sstore\n    /* \"#utility.yul\":5000:5222   */\n  pop\n    /* \"#utility.yul\":4335:5222   */\n  jump(tag_88)\n    /* \"#utility.yul\":4365:4983   */\ntag_89:\n    /* \"#utility.yul\":4417:4421   */\n  0x1f\n    /* \"#utility.yul\":4413:4422   */\n  not\n    /* \"#utility.yul\":4405:4411   */\n  dup5\n    /* \"#utility.yul\":4401:4423   */\n  and\n    /* \"#utility.yul\":4451:4488   */\n  tag_92\n    /* \"#utility.yul\":4483:4487   */\n  dup7\n    /* \"#utility.yul\":4451:4488   */\n  tag_20\n  jump\t// in\ntag_92:\n    /* \"#utility.yul\":4510:4511   */\n  0x00\n    /* \"#utility.yul\":4524:4732   */\ntag_93:\n    /* \"#utility.yul\":4538:4545   */\n  dup3\n    /* \"#utility.yul\":4535:4536   */\n  dup2\n    /* \"#utility.yul\":4532:4546   */\n  lt\n    /* \"#utility.yul\":4524:4732   */\n  iszero\n  tag_95\n  jumpi\n    /* \"#utility.yul\":4617:4626   */\n  dup5\n    /* \"#utility.yul\":4612:4615   */\n  dup10\n    /* \"#utility.yul\":4608:4627   */\n  add\n    /* \"#utility.yul\":4602:4628   */\n  mload\n    /* \"#utility.yul\":4594:4600   */\n  dup3\n    /* \"#utility.yul\":4587:4629   */\n  sstore\n    /* \"#utility.yul\":4668:4669   */\n  0x01\n    /* \"#utility.yul\":4660:4666   */\n  dup3\n    /* \"#utility.yul\":4656:4670   */\n  add\n    /* \"#utility.yul\":4646:4670   */\n  swap2\n  pop\n    /* \"#utility.yul\":4715:4717   */\n  0x20\n    /* \"#utility.yul\":4704:4713   */\n  dup6\n    /* \"#utility.yul\":4700:4718   */\n  add\n    /* \"#utility.yul\":4687:4718   */\n  swap5\n  pop\n    /* \"#utility.yul\":4561:4565   */\n  0x20\n    /* \"#utility.yul\":4558:4559   */\n  dup2\n    /* \"#utility.yul\":4554:4566   */\n  add\n    /* \"#utility.yul\":4549:4566   */\n  swap1\n  pop\n    /* \"#utility.yul\":4524:4732   */\n  jump(tag_93)\ntag_95:\n    /* \"#utility.yul\":4760:4766   */\n  dup7\n    /* \"#utility.yul\":4751:4758   */\n  dup4\n    /* \"#utility.yul\":4748:4767   */\n  lt\n    /* \"#utility.yul\":4745:4924   */\n  iszero\n  tag_96\n  jumpi\n    /* \"#utility.yul\":4818:4827   */\n  dup5\n    /* \"#utility.yul\":4813:4816   */\n  dup10\n    /* \"#utility.yul\":4809:4828   */\n  add\n    /* \"#utility.yul\":4803:4829   */\n  mload\n    /* \"#utility.yul\":4861:4909   */\n  tag_97\n    /* \"#utility.yul\":4903:4907   */\n  0x1f\n    /* \"#utility.yul\":4895:4901   */\n  dup10\n    /* \"#utility.yul\":4891:4908   */\n  and\n    /* \"#utility.yul\":4880:4889   */\n  dup3\n    /* \"#utility.yul\":4861:4909   */\n  tag_34\n  jump\t// in\ntag_97:\n    /* \"#utility.yul\":4853:4859   */\n  dup4\n    /* \"#utility.yul\":4846:4910   */\n  sstore\n    /* \"#utility.yul\":4768:4924   */\n  pop\n    /* \"#utility.yul\":4745:4924   */\ntag_96:\n    /* \"#utility.yul\":4970:4971   */\n  0x01\n    /* \"#utility.yul\":4966:4967   */\n  0x02\n    /* \"#utility.yul\":4958:4964   */\n  dup9\n    /* \"#utility.yul\":4954:4968   */\n  mul\n    /* \"#utility.yul\":4950:4972   */\n  add\n    /* \"#utility.yul\":4944:4948   */\n  dup9\n    /* \"#utility.yul\":4937:4973   */\n  sstore\n    /* \"#utility.yul\":4372:4983   */\n  pop\n  pop\n  pop\n    /* \"#utility.yul\":4335:5222   */\ntag_88:\n  pop\n    /* \"#utility.yul\":3925:5228   */\n  pop\n  pop\n  pop\n    /* \"#utility.yul\":3833:5228   */\n  pop\n  pop\n  jump\t// out\n    /* \"EasyStorage.sol\":63:1108  contract EasyStorage{... */\ntag_15:\n  dataSize(sub_0)\n  dup1\n  dataOffset(sub_0)\n  0x00\n  codecopy\n  0x00\n  return\nstop\n\nsub_0: assembly {\n        /* \"EasyStorage.sol\":63:1108  contract EasyStorage{... */\n      mstore(0x40, 0x80)\n      callvalue\n      dup1\n      iszero\n      tag_1\n      jumpi\n      0x00\n      dup1\n      revert\n    tag_1:\n      pop\n      jumpi(tag_2, lt(calldatasize, 0x04))\n      shr(0xe0, calldataload(0x00))\n      dup1\n      0x7054010a\n      gt\n      tag_10\n      jumpi\n      dup1\n      0x7054010a\n      eq\n      tag_6\n      jumpi\n      dup1\n      0xb8522043\n      eq\n      tag_7\n      jumpi\n      dup1\n      0xf2c9ecd8\n      eq\n      tag_8\n      jumpi\n      dup1\n      0xf52aee1d\n      eq\n      tag_9\n      jumpi\n      jump(tag_2)\n    tag_10:\n      dup1\n      0x365b98b2\n      eq\n      tag_3\n      jumpi\n      dup1\n      0x42b2378a\n      eq\n      tag_4\n      jumpi\n      dup1\n      0x579e4138\n      eq\n      tag_5\n      jumpi\n    tag_2:\n      0x00\n      dup1\n      revert\n        /* \"EasyStorage.sol\":661:688  loginDetails[] public users */\n    tag_3:\n      tag_11\n      0x04\n      dup1\n      calldatasize\n      sub\n      dup2\n      add\n      swap1\n      tag_12\n      swap2\n      swap1\n      tag_13\n      jump\t// in\n    tag_12:\n      tag_14\n      jump\t// in\n    tag_11:\n      mload(0x40)\n      tag_15\n      swap3\n      swap2\n      swap1\n      tag_16\n      jump\t// in\n    tag_15:\n      mload(0x40)\n      dup1\n      swap2\n      sub\n      swap1\n      return\n        /* \"EasyStorage.sol\":457:557  function getListOfNames() public view returns (string[] memory){... */\n    tag_4:\n      tag_17\n      tag_18\n      jump\t// in\n    tag_17:\n      mload(0x40)\n      tag_19\n      swap2\n      swap1\n      tag_20\n      jump\t// in\n    tag_19:\n      mload(0x40)\n      dup1\n      swap2\n      sub\n      swap1\n      return\n        /* \"EasyStorage.sol\":872:1103  function addNewUser(   string memory userName, string memory password) public {... */\n    tag_5:\n      tag_21\n      0x04\n      dup1\n      calldatasize\n      sub\n      dup2\n      add\n      swap1\n      tag_22\n      swap2\n      swap1\n      tag_23\n      jump\t// in\n    tag_22:\n      tag_24\n      jump\t// in\n    tag_21:\n      stop\n        /* \"EasyStorage.sol\":817:860  mapping (string => string) public loginData */\n    tag_6:\n      tag_25\n      0x04\n      dup1\n      calldatasize\n      sub\n      dup2\n      add\n      swap1\n      tag_26\n      swap2\n      swap1\n      tag_27\n      jump\t// in\n    tag_26:\n      tag_28\n      jump\t// in\n    tag_25:\n      mload(0x40)\n      tag_29\n      swap2\n      swap1\n      tag_30\n      jump\t// in\n    tag_29:\n      mload(0x40)\n      dup1\n      swap2\n      sub\n      swap1\n      return\n        /* \"EasyStorage.sol\":701:806  function getUserList() public view returns (loginDetails[] memory){... */\n    tag_7:\n      tag_31\n      tag_32\n      jump\t// in\n    tag_31:\n      mload(0x40)\n      tag_33\n      swap2\n      swap1\n      tag_34\n      jump\t// in\n    tag_33:\n      mload(0x40)\n      dup1\n      swap2\n      sub\n      swap1\n      return\n        /* \"EasyStorage.sol\":154:236  function getNumber()public view returns (uint256) {... */\n    tag_8:\n      tag_35\n      tag_36\n      jump\t// in\n    tag_35:\n      mload(0x40)\n      tag_37\n      swap2\n      swap1\n      tag_38\n      jump\t// in\n    tag_37:\n      mload(0x40)\n      dup1\n      swap2\n      sub\n      swap1\n      return\n        /* \"EasyStorage.sol\":118:145  string[] public listOfNames */\n    tag_9:\n      tag_39\n      0x04\n      dup1\n      calldatasize\n      sub\n      dup2\n      add\n      swap1\n      tag_40\n      swap2\n      swap1\n      tag_13\n      jump\t// in\n    tag_40:\n      tag_41\n      jump\t// in\n    tag_39:\n      mload(0x40)\n      tag_42\n      swap2\n      swap1\n      tag_30\n      jump\t// in\n    tag_42:\n      mload(0x40)\n      dup1\n      swap2\n      sub\n      swap1\n      return\n        /* \"EasyStorage.sol\":661:688  loginDetails[] public users */\n    tag_14:\n      0x02\n      dup2\n      dup2\n      sload\n      dup2\n      lt\n      tag_43\n      jumpi\n      0x00\n      dup1\n      revert\n    tag_43:\n      swap1\n      0x00\n      mstore\n      keccak256(0x00, 0x20)\n      swap1\n      0x02\n      mul\n      add\n      0x00\n      swap2\n      pop\n      swap1\n      pop\n      dup1\n      0x00\n      add\n      dup1\n      sload\n      tag_45\n      swap1\n      tag_46\n      jump\t// in\n    tag_45:\n      dup1\n      0x1f\n      add\n      0x20\n      dup1\n      swap2\n      div\n      mul\n      0x20\n      add\n      mload(0x40)\n      swap1\n      dup2\n      add\n      0x40\n      mstore\n      dup1\n      swap3\n      swap2\n      swap1\n      dup2\n      dup2\n      mstore\n      0x20\n      add\n      dup3\n      dup1\n      sload\n      tag_47\n      swap1\n      tag_46\n      jump\t// in\n    tag_47:\n      dup1\n      iszero\n      tag_48\n      jumpi\n      dup1\n      0x1f\n      lt\n      tag_49\n      jumpi\n      0x0100\n      dup1\n      dup4\n      sload\n      div\n      mul\n      dup4\n      mstore\n      swap2\n      0x20\n      add\n      swap2\n      jump(tag_48)\n    tag_49:\n      dup3\n      add\n      swap2\n      swap1\n      0x00\n      mstore\n      keccak256(0x00, 0x20)\n      swap1\n    tag_50:\n      dup2\n      sload\n      dup2\n      mstore\n      swap1\n      0x01\n      add\n      swap1\n      0x20\n      add\n      dup1\n      dup4\n      gt\n      tag_50\n      jumpi\n      dup3\n      swap1\n      sub\n      0x1f\n      and\n      dup3\n      add\n      swap2\n    tag_48:\n      pop\n      pop\n      pop\n      pop\n      pop\n      swap1\n      dup1\n      0x01\n      add\n      dup1\n      sload\n      tag_51\n      swap1\n      tag_46\n      jump\t// in\n    tag_51:\n      dup1\n      0x1f\n      add\n      0x20\n      dup1\n      swap2\n      div\n      mul\n      0x20\n      add\n      mload(0x40)\n      swap1\n      dup2\n      add\n      0x40\n      mstore\n      dup1\n      swap3\n      swap2\n      swap1\n      dup2\n      dup2\n      mstore\n      0x20\n      add\n      dup3\n      dup1\n      sload\n      tag_52\n      swap1\n      tag_46\n      jump\t// in\n    tag_52:\n      dup1\n      iszero\n      tag_53\n      jumpi\n      dup1\n      0x1f\n      lt\n      tag_54\n      jumpi\n      0x0100\n      dup1\n      dup4\n      sload\n      div\n      mul\n      dup4\n      mstore\n      swap2\n      0x20\n      add\n      swap2\n      jump(tag_53)\n    tag_54:\n      dup3\n      add\n      swap2\n      swap1\n      0x00\n      mstore\n      keccak256(0x00, 0x20)\n      swap1\n    tag_55:\n      dup2\n      sload\n      dup2\n      mstore\n      swap1\n      0x01\n      add\n      swap1\n      0x20\n      add\n      dup1\n      dup4\n      gt\n      tag_55\n      jumpi\n      dup3\n      swap1\n      sub\n      0x1f\n      and\n      dup3\n      add\n      swap2\n    tag_53:\n      pop\n      pop\n      pop\n      pop\n      pop\n      swap1\n      pop\n      dup3\n      jump\t// out\n        /* \"EasyStorage.sol\":457:557  function getListOfNames() public view returns (string[] memory){... */\n    tag_18:\n        /* \"EasyStorage.sol\":504:519  string[] memory */\n      0x60\n        /* \"EasyStorage.sol\":538:549  listOfNames */\n      0x01\n        /* \"EasyStorage.sol\":531:549  return listOfNames */\n      dup1\n      sload\n      dup1\n      0x20\n      mul\n      0x20\n      add\n      mload(0x40)\n      swap1\n      dup2\n      add\n      0x40\n      mstore\n      dup1\n      swap3\n      swap2\n      swap1\n      dup2\n      dup2\n      mstore\n      0x20\n      add\n      0x00\n      swap1\n    tag_57:\n      dup3\n      dup3\n      lt\n      iszero\n      tag_58\n      jumpi\n      dup4\n      dup3\n      swap1\n      0x00\n      mstore\n      keccak256(0x00, 0x20)\n      add\n      dup1\n      sload\n      tag_60\n      swap1\n      tag_46\n      jump\t// in\n    tag_60:\n      dup1\n      0x1f\n      add\n      0x20\n      dup1\n      swap2\n      div\n      mul\n      0x20\n      add\n      mload(0x40)\n      swap1\n      dup2\n      add\n      0x40\n      mstore\n      dup1\n      swap3\n      swap2\n      swap1\n      dup2\n      dup2\n      mstore\n      0x20\n      add\n      dup3\n      dup1\n      sload\n      tag_61\n      swap1\n      tag_46\n      jump\t// in\n    tag_61:\n      dup1\n      iszero\n      tag_62\n      jumpi\n      dup1\n      0x1f\n      lt\n      tag_63\n      jumpi\n      0x0100\n      dup1\n      dup4\n      sload\n      div\n      mul\n      dup4\n      mstore\n      swap2\n      0x20\n      add\n      swap2\n      jump(tag_62)\n    tag_63:\n      dup3\n      add\n      swap2\n      swap1\n      0x00\n      mstore\n      keccak256(0x00, 0x20)\n      swap1\n    tag_64:\n      dup2\n      sload\n      dup2\n      mstore\n      swap1\n      0x01\n      add\n      swap1\n      0x20\n      add\n      dup1\n      dup4\n      gt\n      tag_64\n      jumpi\n      dup3\n      swap1\n      sub\n      0x1f\n      and\n      dup3\n      add\n      swap2\n    tag_62:\n      pop\n      pop\n      pop\n      pop\n      pop\n      dup2\n      mstore\n      0x20\n      add\n      swap1\n      0x01\n      add\n      swap1\n      jump(tag_57)\n    tag_58:\n      pop\n      pop\n      pop\n      pop\n      swap1\n      pop\n        /* \"EasyStorage.sol\":457:557  function getListOfNames() public view returns (string[] memory){... */\n      swap1\n      jump\t// out\n        /* \"EasyStorage.sol\":872:1103  function addNewUser(   string memory userName, string memory password) public {... */\n    tag_24:\n        /* \"EasyStorage.sol\":961:988  loginDetails memory newUser */\n      0x00\n        /* \"EasyStorage.sol\":991:1022  loginDetails(userName,password) */\n      mload(0x40)\n      dup1\n      0x40\n      add\n      0x40\n      mstore\n      dup1\n        /* \"EasyStorage.sol\":1004:1012  userName */\n      dup5\n        /* \"EasyStorage.sol\":991:1022  loginDetails(userName,password) */\n      dup2\n      mstore\n      0x20\n      add\n        /* \"EasyStorage.sol\":1013:1021  password */\n      dup4\n        /* \"EasyStorage.sol\":991:1022  loginDetails(userName,password) */\n      dup2\n      mstore\n      pop\n        /* \"EasyStorage.sol\":961:1022  loginDetails memory newUser = loginDetails(userName,password) */\n      swap1\n      pop\n        /* \"EasyStorage.sol\":1033:1038  users */\n      0x02\n        /* \"EasyStorage.sol\":1044:1051  newUser */\n      dup2\n        /* \"EasyStorage.sol\":1033:1052  users.push(newUser) */\n      swap1\n      dup1\n      0x01\n      dup2\n      sload\n      add\n      dup1\n      dup3\n      sstore\n      dup1\n      swap2\n      pop\n      pop\n      0x01\n      swap1\n      sub\n      swap1\n      0x00\n      mstore\n      keccak256(0x00, 0x20)\n      swap1\n      0x02\n      mul\n      add\n      0x00\n      swap1\n      swap2\n      swap1\n      swap2\n      swap1\n      swap2\n      pop\n      0x00\n      dup3\n      add\n      mload\n      dup2\n      0x00\n      add\n      swap1\n      dup2\n      tag_67\n      swap2\n      swap1\n      tag_68\n      jump\t// in\n    tag_67:\n      pop\n      0x20\n      dup3\n      add\n      mload\n      dup2\n      0x01\n      add\n      swap1\n      dup2\n      tag_69\n      swap2\n      swap1\n      tag_68\n      jump\t// in\n    tag_69:\n      pop\n      pop\n      pop\n        /* \"EasyStorage.sol\":1084:1092  password */\n      dup2\n        /* \"EasyStorage.sol\":1063:1072  loginData */\n      0x03\n        /* \"EasyStorage.sol\":1073:1081  userName */\n      dup5\n        /* \"EasyStorage.sol\":1063:1082  loginData[userName] */\n      mload(0x40)\n      tag_70\n      swap2\n      swap1\n      tag_71\n      jump\t// in\n    tag_70:\n      swap1\n      dup2\n      mstore\n      0x20\n      add\n      mload(0x40)\n      dup1\n      swap2\n      sub\n      swap1\n      keccak256\n        /* \"EasyStorage.sol\":1063:1092  loginData[userName]= password */\n      swap1\n      dup2\n      tag_72\n      swap2\n      swap1\n      tag_68\n      jump\t// in\n    tag_72:\n      pop\n        /* \"EasyStorage.sol\":950:1103  {... */\n      pop\n        /* \"EasyStorage.sol\":872:1103  function addNewUser(   string memory userName, string memory password) public {... */\n      pop\n      pop\n      jump\t// out\n        /* \"EasyStorage.sol\":817:860  mapping (string => string) public loginData */\n    tag_28:\n      0x03\n      dup2\n      dup1\n      mload\n      0x20\n      dup2\n      add\n      dup3\n      add\n      dup1\n      mload\n      dup5\n      dup3\n      mstore\n      0x20\n      dup4\n      add\n      0x20\n      dup6\n      add\n      keccak256\n      dup2\n      dup4\n      mstore\n      dup1\n      swap6\n      pop\n      pop\n      pop\n      pop\n      pop\n      pop\n      0x00\n      swap2\n      pop\n      swap1\n      pop\n      dup1\n      sload\n      tag_73\n      swap1\n      tag_46\n      jump\t// in\n    tag_73:\n      dup1\n      0x1f\n      add\n      0x20\n      dup1\n      swap2\n      div\n      mul\n      0x20\n      add\n      mload(0x40)\n      swap1\n      dup2\n      add\n      0x40\n      mstore\n      dup1\n      swap3\n      swap2\n      swap1\n      dup2\n      dup2\n      mstore\n      0x20\n      add\n      dup3\n      dup1\n      sload\n      tag_74\n      swap1\n      tag_46\n      jump\t// in\n    tag_74:\n      dup1\n      iszero\n      tag_75\n      jumpi\n      dup1\n      0x1f\n      lt\n      tag_76\n      jumpi\n      0x0100\n      dup1\n      dup4\n      sload\n      div\n      mul\n      dup4\n      mstore\n      swap2\n      0x20\n      add\n      swap2\n      jump(tag_75)\n    tag_76:\n      dup3\n      add\n      swap2\n      swap1\n      0x00\n      mstore\n      keccak256(0x00, 0x20)\n      swap1\n    tag_77:\n      dup2\n      sload\n      dup2\n      mstore\n      swap1\n      0x01\n      add\n      swap1\n      0x20\n      add\n      dup1\n      dup4\n      gt\n      tag_77\n      jumpi\n      dup3\n      swap1\n      sub\n      0x1f\n      and\n      dup3\n      add\n      swap2\n    tag_75:\n      pop\n      pop\n      pop\n      pop\n      pop\n      dup2\n      jump\t// out\n        /* \"EasyStorage.sol\":701:806  function getUserList() public view returns (loginDetails[] memory){... */\n    tag_32:\n        /* \"EasyStorage.sol\":745:766  loginDetails[] memory */\n      0x60\n        /* \"EasyStorage.sol\":789:794  users */\n      0x02\n        /* \"EasyStorage.sol\":782:794  return users */\n      dup1\n      sload\n      dup1\n      0x20\n      mul\n      0x20\n      add\n      mload(0x40)\n      swap1\n      dup2\n      add\n      0x40\n      mstore\n      dup1\n      swap3\n      swap2\n      swap1\n      dup2\n      dup2\n      mstore\n      0x20\n      add\n      0x00\n      swap1\n    tag_79:\n      dup3\n      dup3\n      lt\n      iszero\n      tag_80\n      jumpi\n      dup4\n      dup3\n      swap1\n      0x00\n      mstore\n      keccak256(0x00, 0x20)\n      swap1\n      0x02\n      mul\n      add\n      mload(0x40)\n      dup1\n      0x40\n      add\n      0x40\n      mstore\n      swap1\n      dup2\n      0x00\n      dup3\n      add\n      dup1\n      sload\n      tag_82\n      swap1\n      tag_46\n      jump\t// in\n    tag_82:\n      dup1\n      0x1f\n      add\n      0x20\n      dup1\n      swap2\n      div\n      mul\n      0x20\n      add\n      mload(0x40)\n      swap1\n      dup2\n      add\n      0x40\n      mstore\n      dup1\n      swap3\n      swap2\n      swap1\n      dup2\n      dup2\n      mstore\n      0x20\n      add\n      dup3\n      dup1\n      sload\n      tag_83\n      swap1\n      tag_46\n      jump\t// in\n    tag_83:\n      dup1\n      iszero\n      tag_84\n      jumpi\n      dup1\n      0x1f\n      lt\n      tag_85\n      jumpi\n      0x0100\n      dup1\n      dup4\n      sload\n      div\n      mul\n      dup4\n      mstore\n      swap2\n      0x20\n      add\n      swap2\n      jump(tag_84)\n    tag_85:\n      dup3\n      add\n      swap2\n      swap1\n      0x00\n      mstore\n      keccak256(0x00, 0x20)\n      swap1\n    tag_86:\n      dup2\n      sload\n      dup2\n      mstore\n      swap1\n      0x01\n      add\n      swap1\n      0x20\n      add\n      dup1\n      dup4\n      gt\n      tag_86\n      jumpi\n      dup3\n      swap1\n      sub\n      0x1f\n      and\n      dup3\n      add\n      swap2\n    tag_84:\n      pop\n      pop\n      pop\n      pop\n      pop\n      dup2\n      mstore\n      0x20\n      add\n      0x01\n      dup3\n      add\n      dup1\n      sload\n      tag_87\n      swap1\n      tag_46\n      jump\t// in\n    tag_87:\n      dup1\n      0x1f\n      add\n      0x20\n      dup1\n      swap2\n      div\n      mul\n      0x20\n      add\n      mload(0x40)\n      swap1\n      dup2\n      add\n      0x40\n      mstore\n      dup1\n      swap3\n      swap2\n      swap1\n      dup2\n      dup2\n      mstore\n      0x20\n      add\n      dup3\n      dup1\n      sload\n      tag_88\n      swap1\n      tag_46\n      jump\t// in\n    tag_88:\n      dup1\n      iszero\n      tag_89\n      jumpi\n      dup1\n      0x1f\n      lt\n      tag_90\n      jumpi\n      0x0100\n      dup1\n      dup4\n      sload\n      div\n      mul\n      dup4\n      mstore\n      swap2\n      0x20\n      add\n      swap2\n      jump(tag_89)\n    tag_90:\n      dup3\n      add\n      swap2\n      swap1\n      0x00\n      mstore\n      keccak256(0x00, 0x20)\n      swap1\n    tag_91:\n      dup2\n      sload\n      dup2\n      mstore\n      swap1\n      0x01\n      add\n      swap1\n      0x20\n      add\n      dup1\n      dup4\n      gt\n      tag_91\n      jumpi\n      dup3\n      swap1\n      sub\n      0x1f\n      and\n      dup3\n      add\n      swap2\n    tag_89:\n      pop\n      pop\n      pop\n      pop\n      pop\n      dup2\n      mstore\n      pop\n      pop\n      dup2\n      mstore\n      0x20\n      add\n      swap1\n      0x01\n      add\n      swap1\n      jump(tag_79)\n    tag_80:\n      pop\n      pop\n      pop\n      pop\n      swap1\n      pop\n        /* \"EasyStorage.sol\":701:806  function getUserList() public view returns (loginDetails[] memory){... */\n      swap1\n      jump\t// out\n        /* \"EasyStorage.sol\":154:236  function getNumber()public view returns (uint256) {... */\n    tag_36:\n        /* \"EasyStorage.sol\":195:202  uint256 */\n      0x00\n        /* \"EasyStorage.sol\":222:228  number */\n      dup1\n      sload\n        /* \"EasyStorage.sol\":215:228  return number */\n      swap1\n      pop\n        /* \"EasyStorage.sol\":154:236  function getNumber()public view returns (uint256) {... */\n      swap1\n      jump\t// out\n        /* \"EasyStorage.sol\":118:145  string[] public listOfNames */\n    tag_41:\n      0x01\n      dup2\n      dup2\n      sload\n      dup2\n      lt\n      tag_93\n      jumpi\n      0x00\n      dup1\n      revert\n    tag_93:\n      swap1\n      0x00\n      mstore\n      keccak256(0x00, 0x20)\n      add\n      0x00\n      swap2\n      pop\n      swap1\n      pop\n      dup1\n      sload\n      tag_95\n      swap1\n      tag_46\n      jump\t// in\n    tag_95:\n      dup1\n      0x1f\n      add\n      0x20\n      dup1\n      swap2\n      div\n      mul\n      0x20\n      add\n      mload(0x40)\n      swap1\n      dup2\n      add\n      0x40\n      mstore\n      dup1\n      swap3\n      swap2\n      swap1\n      dup2\n      dup2\n      mstore\n      0x20\n      add\n      dup3\n      dup1\n      sload\n      tag_96\n      swap1\n      tag_46\n      jump\t// in\n    tag_96:\n      dup1\n      iszero\n      tag_97\n      jumpi\n      dup1\n      0x1f\n      lt\n      tag_98\n      jumpi\n      0x0100\n      dup1\n      dup4\n      sload\n      div\n      mul\n      dup4\n      mstore\n      swap2\n      0x20\n      add\n      swap2\n      jump(tag_97)\n    tag_98:\n      dup3\n      add\n      swap2\n      swap1\n      0x00\n      mstore\n      keccak256(0x00, 0x20)\n      swap1\n    tag_99:\n      dup2\n      sload\n      dup2\n      mstore\n      swap1\n      0x01\n      add\n      swap1\n      0x20\n      add\n      dup1\n      dup4\n      gt\n      tag_99\n      jumpi\n      dup3\n      swap1\n      sub\n      0x1f\n      and\n      dup3\n      add\n      swap2\n    tag_97:\n      pop\n      pop\n      pop\n      pop\n      pop\n      dup2\n      jump\t// out\n        /* \"#utility.yul\":7:82   */\n    tag_100:\n        /* \"#utility.yul\":40:46   */\n      0x00\n        /* \"#utility.yul\":73:75   */\n      0x40\n        /* \"#utility.yul\":67:76   */\n      mload\n        /* \"#utility.yul\":57:76   */\n      swap1\n      pop\n        /* \"#utility.yul\":7:82   */\n      swap1\n      jump\t// out\n        /* \"#utility.yul\":88:205   */\n    tag_101:\n        /* \"#utility.yul\":197:198   */\n      0x00\n        /* \"#utility.yul\":194:195   */\n      dup1\n        /* \"#utility.yul\":187:199   */\n      revert\n        /* \"#utility.yul\":211:328   */\n    tag_102:\n        /* \"#utility.yul\":320:321   */\n      0x00\n        /* \"#utility.yul\":317:318   */\n      dup1\n        /* \"#utility.yul\":310:322   */\n      revert\n        /* \"#utility.yul\":334:411   */\n    tag_103:\n        /* \"#utility.yul\":371:378   */\n      0x00\n        /* \"#utility.yul\":400:405   */\n      dup2\n        /* \"#utility.yul\":389:405   */\n      swap1\n      pop\n        /* \"#utility.yul\":334:411   */\n      swap2\n      swap1\n      pop\n      jump\t// out\n        /* \"#utility.yul\":417:539   */\n    tag_104:\n        /* \"#utility.yul\":490:514   */\n      tag_160\n        /* \"#utility.yul\":508:513   */\n      dup2\n        /* \"#utility.yul\":490:514   */\n      tag_103\n      jump\t// in\n    tag_160:\n        /* \"#utility.yul\":483:488   */\n      dup2\n        /* \"#utility.yul\":480:515   */\n      eq\n        /* \"#utility.yul\":470:533   */\n      tag_161\n      jumpi\n        /* \"#utility.yul\":529:530   */\n      0x00\n        /* \"#utility.yul\":526:527   */\n      dup1\n        /* \"#utility.yul\":519:531   */\n      revert\n        /* \"#utility.yul\":470:533   */\n    tag_161:\n        /* \"#utility.yul\":417:539   */\n      pop\n      jump\t// out\n        /* \"#utility.yul\":545:684   */\n    tag_105:\n        /* \"#utility.yul\":591:596   */\n      0x00\n        /* \"#utility.yul\":629:635   */\n      dup2\n        /* \"#utility.yul\":616:636   */\n      calldataload\n        /* \"#utility.yul\":607:636   */\n      swap1\n      pop\n        /* \"#utility.yul\":645:678   */\n      tag_163\n        /* \"#utility.yul\":672:677   */\n      dup2\n        /* \"#utility.yul\":645:678   */\n      tag_104\n      jump\t// in\n    tag_163:\n        /* \"#utility.yul\":545:684   */\n      swap3\n      swap2\n      pop\n      pop\n      jump\t// out\n        /* \"#utility.yul\":690:1019   */\n    tag_13:\n        /* \"#utility.yul\":749:755   */\n      0x00\n        /* \"#utility.yul\":798:800   */\n      0x20\n        /* \"#utility.yul\":786:795   */\n      dup3\n        /* \"#utility.yul\":777:784   */\n      dup5\n        /* \"#utility.yul\":773:796   */\n      sub\n        /* \"#utility.yul\":769:801   */\n      slt\n        /* \"#utility.yul\":766:885   */\n      iszero\n      tag_165\n      jumpi\n        /* \"#utility.yul\":804:883   */\n      tag_166\n      tag_101\n      jump\t// in\n    tag_166:\n        /* \"#utility.yul\":766:885   */\n    tag_165:\n        /* \"#utility.yul\":924:925   */\n      0x00\n        /* \"#utility.yul\":949:1002   */\n      tag_167\n        /* \"#utility.yul\":994:1001   */\n      dup5\n        /* \"#utility.yul\":985:991   */\n      dup3\n        /* \"#utility.yul\":974:983   */\n      dup6\n        /* \"#utility.yul\":970:992   */\n      add\n        /* \"#utility.yul\":949:1002   */\n      tag_105\n      jump\t// in\n    tag_167:\n        /* \"#utility.yul\":939:1002   */\n      swap2\n      pop\n        /* \"#utility.yul\":895:1012   */\n      pop\n        /* \"#utility.yul\":690:1019   */\n      swap3\n      swap2\n      pop\n      pop\n      jump\t// out\n        /* \"#utility.yul\":1025:1124   */\n    tag_106:\n        /* \"#utility.yul\":1077:1083   */\n      0x00\n        /* \"#utility.yul\":1111:1116   */\n      dup2\n        /* \"#utility.yul\":1105:1117   */\n      mload\n        /* \"#utility.yul\":1095:1117   */\n      swap1\n      pop\n        /* \"#utility.yul\":1025:1124   */\n      swap2\n      swap1\n      pop\n      jump\t// out\n        /* \"#utility.yul\":1130:1299   */\n    tag_107:\n        /* \"#utility.yul\":1214:1225   */\n      0x00\n        /* \"#utility.yul\":1248:1254   */\n      dup3\n        /* \"#utility.yul\":1243:1246   */\n      dup3\n        /* \"#utility.yul\":1236:1255   */\n      mstore\n        /* \"#utility.yul\":1288:1292   */\n      0x20\n        /* \"#utility.yul\":1283:1286   */\n      dup3\n        /* \"#utility.yul\":1279:1293   */\n      add\n        /* \"#utility.yul\":1264:1293   */\n      swap1\n      pop\n        /* \"#utility.yul\":1130:1299   */\n      swap3\n      swap2\n      pop\n      pop\n      jump\t// out\n        /* \"#utility.yul\":1305:1444   */\n    tag_108:\n        /* \"#utility.yul\":1394:1400   */\n      dup3\n        /* \"#utility.yul\":1389:1392   */\n      dup2\n        /* \"#utility.yul\":1384:1387   */\n      dup4\n        /* \"#utility.yul\":1378:1401   */\n      mcopy\n        /* \"#utility.yul\":1435:1436   */\n      0x00\n        /* \"#utility.yul\":1426:1432   */\n      dup4\n        /* \"#utility.yul\":1421:1424   */\n      dup4\n        /* \"#utility.yul\":1417:1433   */\n      add\n        /* \"#utility.yul\":1410:1437   */\n      mstore\n        /* \"#utility.yul\":1305:1444   */\n      pop\n      pop\n      pop\n      jump\t// out\n        /* \"#utility.yul\":1450:1552   */\n    tag_109:\n        /* \"#utility.yul\":1491:1497   */\n      0x00\n        /* \"#utility.yul\":1542:1544   */\n      0x1f\n        /* \"#utility.yul\":1538:1545   */\n      not\n        /* \"#utility.yul\":1533:1535   */\n      0x1f\n        /* \"#utility.yul\":1526:1531   */\n      dup4\n        /* \"#utility.yul\":1522:1536   */\n      add\n        /* \"#utility.yul\":1518:1546   */\n      and\n        /* \"#utility.yul\":1508:1546   */\n      swap1\n      pop\n        /* \"#utility.yul\":1450:1552   */\n      swap2\n      swap1\n      pop\n      jump\t// out\n        /* \"#utility.yul\":1558:1935   */\n    tag_110:\n        /* \"#utility.yul\":1646:1649   */\n      0x00\n        /* \"#utility.yul\":1674:1713   */\n      tag_173\n        /* \"#utility.yul\":1707:1712   */\n      dup3\n        /* \"#utility.yul\":1674:1713   */\n      tag_106\n      jump\t// in\n    tag_173:\n        /* \"#utility.yul\":1729:1800   */\n      tag_174\n        /* \"#utility.yul\":1793:1799   */\n      dup2\n        /* \"#utility.yul\":1788:1791   */\n      dup6\n        /* \"#utility.yul\":1729:1800   */\n      tag_107\n      jump\t// in\n    tag_174:\n        /* \"#utility.yul\":1722:1800   */\n      swap4\n      pop\n        /* \"#utility.yul\":1809:1874   */\n      tag_175\n        /* \"#utility.yul\":1867:1873   */\n      dup2\n        /* \"#utility.yul\":1862:1865   */\n      dup6\n        /* \"#utility.yul\":1855:1859   */\n      0x20\n        /* \"#utility.yul\":1848:1853   */\n      dup7\n        /* \"#utility.yul\":1844:1860   */\n      add\n        /* \"#utility.yul\":1809:1874   */\n      tag_108\n      jump\t// in\n    tag_175:\n        /* \"#utility.yul\":1899:1928   */\n      tag_176\n        /* \"#utility.yul\":1921:1927   */\n      dup2\n        /* \"#utility.yul\":1899:1928   */\n      tag_109\n      jump\t// in\n    tag_176:\n        /* \"#utility.yul\":1894:1897   */\n      dup5\n        /* \"#utility.yul\":1890:1929   */\n      add\n        /* \"#utility.yul\":1883:1929   */\n      swap2\n      pop\n        /* \"#utility.yul\":1650:1935   */\n      pop\n        /* \"#utility.yul\":1558:1935   */\n      swap3\n      swap2\n      pop\n      pop\n      jump\t// out\n        /* \"#utility.yul\":1941:2455   */\n    tag_16:\n        /* \"#utility.yul\":2102:2106   */\n      0x00\n        /* \"#utility.yul\":2140:2142   */\n      0x40\n        /* \"#utility.yul\":2129:2138   */\n      dup3\n        /* \"#utility.yul\":2125:2143   */\n      add\n        /* \"#utility.yul\":2117:2143   */\n      swap1\n      pop\n        /* \"#utility.yul\":2189:2198   */\n      dup2\n        /* \"#utility.yul\":2183:2187   */\n      dup2\n        /* \"#utility.yul\":2179:2199   */\n      sub\n        /* \"#utility.yul\":2175:2176   */\n      0x00\n        /* \"#utility.yul\":2164:2173   */\n      dup4\n        /* \"#utility.yul\":2160:2177   */\n      add\n        /* \"#utility.yul\":2153:2200   */\n      mstore\n        /* \"#utility.yul\":2217:2295   */\n      tag_178\n        /* \"#utility.yul\":2290:2294   */\n      dup2\n        /* \"#utility.yul\":2281:2287   */\n      dup6\n        /* \"#utility.yul\":2217:2295   */\n      tag_110\n      jump\t// in\n    tag_178:\n        /* \"#utility.yul\":2209:2295   */\n      swap1\n      pop\n        /* \"#utility.yul\":2342:2351   */\n      dup2\n        /* \"#utility.yul\":2336:2340   */\n      dup2\n        /* \"#utility.yul\":2332:2352   */\n      sub\n        /* \"#utility.yul\":2327:2329   */\n      0x20\n        /* \"#utility.yul\":2316:2325   */\n      dup4\n        /* \"#utility.yul\":2312:2330   */\n      add\n        /* \"#utility.yul\":2305:2353   */\n      mstore\n        /* \"#utility.yul\":2370:2448   */\n      tag_179\n        /* \"#utility.yul\":2443:2447   */\n      dup2\n        /* \"#utility.yul\":2434:2440   */\n      dup5\n        /* \"#utility.yul\":2370:2448   */\n      tag_110\n      jump\t// in\n    tag_179:\n        /* \"#utility.yul\":2362:2448   */\n      swap1\n      pop\n        /* \"#utility.yul\":1941:2455   */\n      swap4\n      swap3\n      pop\n      pop\n      pop\n      jump\t// out\n        /* \"#utility.yul\":2461:2585   */\n    tag_111:\n        /* \"#utility.yul\":2538:2544   */\n      0x00\n        /* \"#utility.yul\":2572:2577   */\n      dup2\n        /* \"#utility.yul\":2566:2578   */\n      mload\n        /* \"#utility.yul\":2556:2578   */\n      swap1\n      pop\n        /* \"#utility.yul\":2461:2585   */\n      swap2\n      swap1\n      pop\n      jump\t// out\n        /* \"#utility.yul\":2591:2785   */\n    tag_112:\n        /* \"#utility.yul\":2700:2711   */\n      0x00\n        /* \"#utility.yul\":2734:2740   */\n      dup3\n        /* \"#utility.yul\":2729:2732   */\n      dup3\n        /* \"#utility.yul\":2722:2741   */\n      mstore\n        /* \"#utility.yul\":2774:2778   */\n      0x20\n        /* \"#utility.yul\":2769:2772   */\n      dup3\n        /* \"#utility.yul\":2765:2779   */\n      add\n        /* \"#utility.yul\":2750:2779   */\n      swap1\n      pop\n        /* \"#utility.yul\":2591:2785   */\n      swap3\n      swap2\n      pop\n      pop\n      jump\t// out\n        /* \"#utility.yul\":2791:2933   */\n    tag_113:\n        /* \"#utility.yul\":2868:2872   */\n      0x00\n        /* \"#utility.yul\":2891:2894   */\n      dup2\n        /* \"#utility.yul\":2883:2894   */\n      swap1\n      pop\n        /* \"#utility.yul\":2921:2925   */\n      0x20\n        /* \"#utility.yul\":2916:2919   */\n      dup3\n        /* \"#utility.yul\":2912:2926   */\n      add\n        /* \"#utility.yul\":2904:2926   */\n      swap1\n      pop\n        /* \"#utility.yul\":2791:2933   */\n      swap2\n      swap1\n      pop\n      jump\t// out\n        /* \"#utility.yul\":2939:3098   */\n    tag_114:\n        /* \"#utility.yul\":3013:3024   */\n      0x00\n        /* \"#utility.yul\":3047:3053   */\n      dup3\n        /* \"#utility.yul\":3042:3045   */\n      dup3\n        /* \"#utility.yul\":3035:3054   */\n      mstore\n        /* \"#utility.yul\":3087:3091   */\n      0x20\n        /* \"#utility.yul\":3082:3085   */\n      dup3\n        /* \"#utility.yul\":3078:3092   */\n      add\n        /* \"#utility.yul\":3063:3092   */\n      swap1\n      pop\n        /* \"#utility.yul\":2939:3098   */\n      swap3\n      swap2\n      pop\n      pop\n      jump\t// out\n        /* \"#utility.yul\":3104:3461   */\n    tag_115:\n        /* \"#utility.yul\":3182:3185   */\n      0x00\n        /* \"#utility.yul\":3210:3249   */\n      tag_185\n        /* \"#utility.yul\":3243:3248   */\n      dup3\n        /* \"#utility.yul\":3210:3249   */\n      tag_106\n      jump\t// in\n    tag_185:\n        /* \"#utility.yul\":3265:3326   */\n      tag_186\n        /* \"#utility.yul\":3319:3325   */\n      dup2\n        /* \"#utility.yul\":3314:3317   */\n      dup6\n        /* \"#utility.yul\":3265:3326   */\n      tag_114\n      jump\t// in\n    tag_186:\n        /* \"#utility.yul\":3258:3326   */\n      swap4\n      pop\n        /* \"#utility.yul\":3335:3400   */\n      tag_187\n        /* \"#utility.yul\":3393:3399   */\n      dup2\n        /* \"#utility.yul\":3388:3391   */\n      dup6\n        /* \"#utility.yul\":3381:3385   */\n      0x20\n        /* \"#utility.yul\":3374:3379   */\n      dup7\n        /* \"#utility.yul\":3370:3386   */\n      add\n        /* \"#utility.yul\":3335:3400   */\n      tag_108\n      jump\t// in\n    tag_187:\n        /* \"#utility.yul\":3425:3454   */\n      tag_188\n        /* \"#utility.yul\":3447:3453   */\n      dup2\n        /* \"#utility.yul\":3425:3454   */\n      tag_109\n      jump\t// in\n    tag_188:\n        /* \"#utility.yul\":3420:3423   */\n      dup5\n        /* \"#utility.yul\":3416:3455   */\n      add\n        /* \"#utility.yul\":3409:3455   */\n      swap2\n      pop\n        /* \"#utility.yul\":3186:3461   */\n      pop\n        /* \"#utility.yul\":3104:3461   */\n      swap3\n      swap2\n      pop\n      pop\n      jump\t// out\n        /* \"#utility.yul\":3467:3663   */\n    tag_116:\n        /* \"#utility.yul\":3556:3566   */\n      0x00\n        /* \"#utility.yul\":3591:3657   */\n      tag_190\n        /* \"#utility.yul\":3653:3656   */\n      dup4\n        /* \"#utility.yul\":3645:3651   */\n      dup4\n        /* \"#utility.yul\":3591:3657   */\n      tag_115\n      jump\t// in\n    tag_190:\n        /* \"#utility.yul\":3577:3657   */\n      swap1\n      pop\n        /* \"#utility.yul\":3467:3663   */\n      swap3\n      swap2\n      pop\n      pop\n      jump\t// out\n        /* \"#utility.yul\":3669:3792   */\n    tag_117:\n        /* \"#utility.yul\":3749:3753   */\n      0x00\n        /* \"#utility.yul\":3781:3785   */\n      0x20\n        /* \"#utility.yul\":3776:3779   */\n      dup3\n        /* \"#utility.yul\":3772:3786   */\n      add\n        /* \"#utility.yul\":3764:3786   */\n      swap1\n      pop\n        /* \"#utility.yul\":3669:3792   */\n      swap2\n      swap1\n      pop\n      jump\t// out\n        /* \"#utility.yul\":3826:4817   */\n    tag_118:\n        /* \"#utility.yul\":3965:3968   */\n      0x00\n        /* \"#utility.yul\":3994:4058   */\n      tag_193\n        /* \"#utility.yul\":4052:4057   */\n      dup3\n        /* \"#utility.yul\":3994:4058   */\n      tag_111\n      jump\t// in\n    tag_193:\n        /* \"#utility.yul\":4074:4170   */\n      tag_194\n        /* \"#utility.yul\":4163:4169   */\n      dup2\n        /* \"#utility.yul\":4158:4161   */\n      dup6\n        /* \"#utility.yul\":4074:4170   */\n      tag_112\n      jump\t// in\n    tag_194:\n        /* \"#utility.yul\":4067:4170   */\n      swap4\n      pop\n        /* \"#utility.yul\":4196:4199   */\n      dup4\n        /* \"#utility.yul\":4241:4245   */\n      0x20\n        /* \"#utility.yul\":4233:4239   */\n      dup3\n        /* \"#utility.yul\":4229:4246   */\n      mul\n        /* \"#utility.yul\":4224:4227   */\n      dup6\n        /* \"#utility.yul\":4220:4247   */\n      add\n        /* \"#utility.yul\":4271:4337   */\n      tag_195\n        /* \"#utility.yul\":4331:4336   */\n      dup6\n        /* \"#utility.yul\":4271:4337   */\n      tag_113\n      jump\t// in\n    tag_195:\n        /* \"#utility.yul\":4360:4367   */\n      dup1\n        /* \"#utility.yul\":4391:4392   */\n      0x00\n        /* \"#utility.yul\":4376:4772   */\n    tag_196:\n        /* \"#utility.yul\":4401:4407   */\n      dup6\n        /* \"#utility.yul\":4398:4399   */\n      dup2\n        /* \"#utility.yul\":4395:4408   */\n      lt\n        /* \"#utility.yul\":4376:4772   */\n      iszero\n      tag_198\n      jumpi\n        /* \"#utility.yul\":4472:4481   */\n      dup5\n        /* \"#utility.yul\":4466:4470   */\n      dup5\n        /* \"#utility.yul\":4462:4482   */\n      sub\n        /* \"#utility.yul\":4457:4460   */\n      dup10\n        /* \"#utility.yul\":4450:4483   */\n      mstore\n        /* \"#utility.yul\":4523:4529   */\n      dup2\n        /* \"#utility.yul\":4517:4530   */\n      mload\n        /* \"#utility.yul\":4551:4635   */\n      tag_199\n        /* \"#utility.yul\":4630:4634   */\n      dup6\n        /* \"#utility.yul\":4615:4628   */\n      dup3\n        /* \"#utility.yul\":4551:4635   */\n      tag_116\n      jump\t// in\n    tag_199:\n        /* \"#utility.yul\":4543:4635   */\n      swap5\n      pop\n        /* \"#utility.yul\":4658:4728   */\n      tag_200\n        /* \"#utility.yul\":4721:4727   */\n      dup4\n        /* \"#utility.yul\":4658:4728   */\n      tag_117\n      jump\t// in\n    tag_200:\n        /* \"#utility.yul\":4648:4728   */\n      swap3\n      pop\n        /* \"#utility.yul\":4757:4761   */\n      0x20\n        /* \"#utility.yul\":4752:4755   */\n      dup11\n        /* \"#utility.yul\":4748:4762   */\n      add\n        /* \"#utility.yul\":4741:4762   */\n      swap10\n      pop\n        /* \"#utility.yul\":4436:4772   */\n      pop\n        /* \"#utility.yul\":4423:4424   */\n      0x01\n        /* \"#utility.yul\":4420:4421   */\n      dup2\n        /* \"#utility.yul\":4416:4425   */\n      add\n        /* \"#utility.yul\":4411:4425   */\n      swap1\n      pop\n        /* \"#utility.yul\":4376:4772   */\n      jump(tag_196)\n    tag_198:\n        /* \"#utility.yul\":4380:4394   */\n      pop\n        /* \"#utility.yul\":4788:4792   */\n      dup3\n        /* \"#utility.yul\":4781:4792   */\n      swap8\n      pop\n        /* \"#utility.yul\":4808:4811   */\n      dup8\n        /* \"#utility.yul\":4801:4811   */\n      swap6\n      pop\n        /* \"#utility.yul\":3970:4817   */\n      pop\n      pop\n      pop\n      pop\n      pop\n        /* \"#utility.yul\":3826:4817   */\n      swap3\n      swap2\n      pop\n      pop\n      jump\t// out\n        /* \"#utility.yul\":4823:5236   */\n    tag_20:\n        /* \"#utility.yul\":4986:4990   */\n      0x00\n        /* \"#utility.yul\":5024:5026   */\n      0x20\n        /* \"#utility.yul\":5013:5022   */\n      dup3\n        /* \"#utility.yul\":5009:5027   */\n      add\n        /* \"#utility.yul\":5001:5027   */\n      swap1\n      pop\n        /* \"#utility.yul\":5073:5082   */\n      dup2\n        /* \"#utility.yul\":5067:5071   */\n      dup2\n        /* \"#utility.yul\":5063:5083   */\n      sub\n        /* \"#utility.yul\":5059:5060   */\n      0x00\n        /* \"#utility.yul\":5048:5057   */\n      dup4\n        /* \"#utility.yul\":5044:5061   */\n      add\n        /* \"#utility.yul\":5037:5084   */\n      mstore\n        /* \"#utility.yul\":5101:5229   */\n      tag_202\n        /* \"#utility.yul\":5224:5228   */\n      dup2\n        /* \"#utility.yul\":5215:5221   */\n      dup5\n        /* \"#utility.yul\":5101:5229   */\n      tag_118\n      jump\t// in\n    tag_202:\n        /* \"#utility.yul\":5093:5229   */\n      swap1\n      pop\n        /* \"#utility.yul\":4823:5236   */\n      swap3\n      swap2\n      pop\n      pop\n      jump\t// out\n        /* \"#utility.yul\":5242:5359   */\n    tag_119:\n        /* \"#utility.yul\":5351:5352   */\n      0x00\n        /* \"#utility.yul\":5348:5349   */\n      dup1\n        /* \"#utility.yul\":5341:5353   */\n      revert\n        /* \"#utility.yul\":5365:5482   */\n    tag_120:\n        /* \"#utility.yul\":5474:5475   */\n      0x00\n        /* \"#utility.yul\":5471:5472   */\n      dup1\n        /* \"#utility.yul\":5464:5476   */\n      revert\n        /* \"#utility.yul\":5488:5668   */\n    tag_121:\n        /* \"#utility.yul\":5536:5613   */\n      0x4e487b7100000000000000000000000000000000000000000000000000000000\n        /* \"#utility.yul\":5533:5534   */\n      0x00\n        /* \"#utility.yul\":5526:5614   */\n      mstore\n        /* \"#utility.yul\":5633:5637   */\n      0x41\n        /* \"#utility.yul\":5630:5631   */\n      0x04\n        /* \"#utility.yul\":5623:5638   */\n      mstore\n        /* \"#utility.yul\":5657:5661   */\n      0x24\n        /* \"#utility.yul\":5654:5655   */\n      0x00\n        /* \"#utility.yul\":5647:5662   */\n      revert\n        /* \"#utility.yul\":5674:5955   */\n    tag_122:\n        /* \"#utility.yul\":5757:5784   */\n      tag_207\n        /* \"#utility.yul\":5779:5783   */\n      dup3\n        /* \"#utility.yul\":5757:5784   */\n      tag_109\n      jump\t// in\n    tag_207:\n        /* \"#utility.yul\":5749:5755   */\n      dup2\n        /* \"#utility.yul\":5745:5785   */\n      add\n        /* \"#utility.yul\":5887:5893   */\n      dup2\n        /* \"#utility.yul\":5875:5885   */\n      dup2\n        /* \"#utility.yul\":5872:5894   */\n      lt\n        /* \"#utility.yul\":5851:5869   */\n      0xffffffffffffffff\n        /* \"#utility.yul\":5839:5849   */\n      dup3\n        /* \"#utility.yul\":5836:5870   */\n      gt\n        /* \"#utility.yul\":5833:5895   */\n      or\n        /* \"#utility.yul\":5830:5918   */\n      iszero\n      tag_208\n      jumpi\n        /* \"#utility.yul\":5898:5916   */\n      tag_209\n      tag_121\n      jump\t// in\n    tag_209:\n        /* \"#utility.yul\":5830:5918   */\n    tag_208:\n        /* \"#utility.yul\":5938:5948   */\n      dup1\n        /* \"#utility.yul\":5934:5936   */\n      0x40\n        /* \"#utility.yul\":5927:5949   */\n      mstore\n        /* \"#utility.yul\":5717:5955   */\n      pop\n        /* \"#utility.yul\":5674:5955   */\n      pop\n      pop\n      jump\t// out\n        /* \"#utility.yul\":5961:6090   */\n    tag_123:\n        /* \"#utility.yul\":5995:6001   */\n      0x00\n        /* \"#utility.yul\":6022:6042   */\n      tag_211\n      tag_100\n      jump\t// in\n    tag_211:\n        /* \"#utility.yul\":6012:6042   */\n      swap1\n      pop\n        /* \"#utility.yul\":6051:6084   */\n      tag_212\n        /* \"#utility.yul\":6079:6083   */\n      dup3\n        /* \"#utility.yul\":6071:6077   */\n      dup3\n        /* \"#utility.yul\":6051:6084   */\n      tag_122\n      jump\t// in\n    tag_212:\n        /* \"#utility.yul\":5961:6090   */\n      swap2\n      swap1\n      pop\n      jump\t// out\n        /* \"#utility.yul\":6096:6404   */\n    tag_124:\n        /* \"#utility.yul\":6158:6162   */\n      0x00\n        /* \"#utility.yul\":6248:6266   */\n      0xffffffffffffffff\n        /* \"#utility.yul\":6240:6246   */\n      dup3\n        /* \"#utility.yul\":6237:6267   */\n      gt\n        /* \"#utility.yul\":6234:6290   */\n      iszero\n      tag_214\n      jumpi\n        /* \"#utility.yul\":6270:6288   */\n      tag_215\n      tag_121\n      jump\t// in\n    tag_215:\n        /* \"#utility.yul\":6234:6290   */\n    tag_214:\n        /* \"#utility.yul\":6308:6337   */\n      tag_216\n        /* \"#utility.yul\":6330:6336   */\n      dup3\n        /* \"#utility.yul\":6308:6337   */\n      tag_109\n      jump\t// in\n    tag_216:\n        /* \"#utility.yul\":6300:6337   */\n      swap1\n      pop\n        /* \"#utility.yul\":6392:6396   */\n      0x20\n        /* \"#utility.yul\":6386:6390   */\n      dup2\n        /* \"#utility.yul\":6382:6397   */\n      add\n        /* \"#utility.yul\":6374:6397   */\n      swap1\n      pop\n        /* \"#utility.yul\":6096:6404   */\n      swap2\n      swap1\n      pop\n      jump\t// out\n        /* \"#utility.yul\":6410:6558   */\n    tag_125:\n        /* \"#utility.yul\":6508:6514   */\n      dup3\n        /* \"#utility.yul\":6503:6506   */\n      dup2\n        /* \"#utility.yul\":6498:6501   */\n      dup4\n        /* \"#utility.yul\":6485:6515   */\n      calldatacopy\n        /* \"#utility.yul\":6549:6550   */\n      0x00\n        /* \"#utility.yul\":6540:6546   */\n      dup4\n        /* \"#utility.yul\":6535:6538   */\n      dup4\n        /* \"#utility.yul\":6531:6547   */\n      add\n        /* \"#utility.yul\":6524:6551   */\n      mstore\n        /* \"#utility.yul\":6410:6558   */\n      pop\n      pop\n      pop\n      jump\t// out\n        /* \"#utility.yul\":6564:6989   */\n    tag_126:\n        /* \"#utility.yul\":6642:6647   */\n      0x00\n        /* \"#utility.yul\":6667:6733   */\n      tag_219\n        /* \"#utility.yul\":6683:6732   */\n      tag_220\n        /* \"#utility.yul\":6725:6731   */\n      dup5\n        /* \"#utility.yul\":6683:6732   */\n      tag_124\n      jump\t// in\n    tag_220:\n        /* \"#utility.yul\":6667:6733   */\n      tag_123\n      jump\t// in\n    tag_219:\n        /* \"#utility.yul\":6658:6733   */\n      swap1\n      pop\n        /* \"#utility.yul\":6756:6762   */\n      dup3\n        /* \"#utility.yul\":6749:6754   */\n      dup2\n        /* \"#utility.yul\":6742:6763   */\n      mstore\n        /* \"#utility.yul\":6794:6798   */\n      0x20\n        /* \"#utility.yul\":6787:6792   */\n      dup2\n        /* \"#utility.yul\":6783:6799   */\n      add\n        /* \"#utility.yul\":6832:6835   */\n      dup5\n        /* \"#utility.yul\":6823:6829   */\n      dup5\n        /* \"#utility.yul\":6818:6821   */\n      dup5\n        /* \"#utility.yul\":6814:6830   */\n      add\n        /* \"#utility.yul\":6811:6836   */\n      gt\n        /* \"#utility.yul\":6808:6920   */\n      iszero\n      tag_221\n      jumpi\n        /* \"#utility.yul\":6839:6918   */\n      tag_222\n      tag_120\n      jump\t// in\n    tag_222:\n        /* \"#utility.yul\":6808:6920   */\n    tag_221:\n        /* \"#utility.yul\":6929:6983   */\n      tag_223\n        /* \"#utility.yul\":6976:6982   */\n      dup5\n        /* \"#utility.yul\":6971:6974   */\n      dup3\n        /* \"#utility.yul\":6966:6969   */\n      dup6\n        /* \"#utility.yul\":6929:6983   */\n      tag_125\n      jump\t// in\n    tag_223:\n        /* \"#utility.yul\":6648:6989   */\n      pop\n        /* \"#utility.yul\":6564:6989   */\n      swap4\n      swap3\n      pop\n      pop\n      pop\n      jump\t// out\n        /* \"#utility.yul\":7009:7349   */\n    tag_127:\n        /* \"#utility.yul\":7065:7070   */\n      0x00\n        /* \"#utility.yul\":7114:7117   */\n      dup3\n        /* \"#utility.yul\":7107:7111   */\n      0x1f\n        /* \"#utility.yul\":7099:7105   */\n      dup4\n        /* \"#utility.yul\":7095:7112   */\n      add\n        /* \"#utility.yul\":7091:7118   */\n      slt\n        /* \"#utility.yul\":7081:7203   */\n      tag_225\n      jumpi\n        /* \"#utility.yul\":7122:7201   */\n      tag_226\n      tag_119\n      jump\t// in\n    tag_226:\n        /* \"#utility.yul\":7081:7203   */\n    tag_225:\n        /* \"#utility.yul\":7239:7245   */\n      dup2\n        /* \"#utility.yul\":7226:7246   */\n      calldataload\n        /* \"#utility.yul\":7264:7343   */\n      tag_227\n        /* \"#utility.yul\":7339:7342   */\n      dup5\n        /* \"#utility.yul\":7331:7337   */\n      dup3\n        /* \"#utility.yul\":7324:7328   */\n      0x20\n        /* \"#utility.yul\":7316:7322   */\n      dup7\n        /* \"#utility.yul\":7312:7329   */\n      add\n        /* \"#utility.yul\":7264:7343   */\n      tag_126\n      jump\t// in\n    tag_227:\n        /* \"#utility.yul\":7255:7343   */\n      swap2\n      pop\n        /* \"#utility.yul\":7071:7349   */\n      pop\n        /* \"#utility.yul\":7009:7349   */\n      swap3\n      swap2\n      pop\n      pop\n      jump\t// out\n        /* \"#utility.yul\":7355:8189   */\n    tag_23:\n        /* \"#utility.yul\":7443:7449   */\n      0x00\n        /* \"#utility.yul\":7451:7457   */\n      dup1\n        /* \"#utility.yul\":7500:7502   */\n      0x40\n        /* \"#utility.yul\":7488:7497   */\n      dup4\n        /* \"#utility.yul\":7479:7486   */\n      dup6\n        /* \"#utility.yul\":7475:7498   */\n      sub\n        /* \"#utility.yul\":7471:7503   */\n      slt\n        /* \"#utility.yul\":7468:7587   */\n      iszero\n      tag_229\n      jumpi\n        /* \"#utility.yul\":7506:7585   */\n      tag_230\n      tag_101\n      jump\t// in\n    tag_230:\n        /* \"#utility.yul\":7468:7587   */\n    tag_229:\n        /* \"#utility.yul\":7654:7655   */\n      0x00\n        /* \"#utility.yul\":7643:7652   */\n      dup4\n        /* \"#utility.yul\":7639:7656   */\n      add\n        /* \"#utility.yul\":7626:7657   */\n      calldataload\n        /* \"#utility.yul\":7684:7702   */\n      0xffffffffffffffff\n        /* \"#utility.yul\":7676:7682   */\n      dup2\n        /* \"#utility.yul\":7673:7703   */\n      gt\n        /* \"#utility.yul\":7670:7787   */\n      iszero\n      tag_231\n      jumpi\n        /* \"#utility.yul\":7706:7785   */\n      tag_232\n      tag_102\n      jump\t// in\n    tag_232:\n        /* \"#utility.yul\":7670:7787   */\n    tag_231:\n        /* \"#utility.yul\":7811:7874   */\n      tag_233\n        /* \"#utility.yul\":7866:7873   */\n      dup6\n        /* \"#utility.yul\":7857:7863   */\n      dup3\n        /* \"#utility.yul\":7846:7855   */\n      dup7\n        /* \"#utility.yul\":7842:7864   */\n      add\n        /* \"#utility.yul\":7811:7874   */\n      tag_127\n      jump\t// in\n    tag_233:\n        /* \"#utility.yul\":7801:7874   */\n      swap3\n      pop\n        /* \"#utility.yul\":7597:7884   */\n      pop\n        /* \"#utility.yul\":7951:7953   */\n      0x20\n        /* \"#utility.yul\":7940:7949   */\n      dup4\n        /* \"#utility.yul\":7936:7954   */\n      add\n        /* \"#utility.yul\":7923:7955   */\n      calldataload\n        /* \"#utility.yul\":7982:8000   */\n      0xffffffffffffffff\n        /* \"#utility.yul\":7974:7980   */\n      dup2\n        /* \"#utility.yul\":7971:8001   */\n      gt\n        /* \"#utility.yul\":7968:8085   */\n      iszero\n      tag_234\n      jumpi\n        /* \"#utility.yul\":8004:8083   */\n      tag_235\n      tag_102\n      jump\t// in\n    tag_235:\n        /* \"#utility.yul\":7968:8085   */\n    tag_234:\n        /* \"#utility.yul\":8109:8172   */\n      tag_236\n        /* \"#utility.yul\":8164:8171   */\n      dup6\n        /* \"#utility.yul\":8155:8161   */\n      dup3\n        /* \"#utility.yul\":8144:8153   */\n      dup7\n        /* \"#utility.yul\":8140:8162   */\n      add\n        /* \"#utility.yul\":8109:8172   */\n      tag_127\n      jump\t// in\n    tag_236:\n        /* \"#utility.yul\":8099:8172   */\n      swap2\n      pop\n        /* \"#utility.yul\":7894:8182   */\n      pop\n        /* \"#utility.yul\":7355:8189   */\n      swap3\n      pop\n      swap3\n      swap1\n      pop\n      jump\t// out\n        /* \"#utility.yul\":8195:8704   */\n    tag_27:\n        /* \"#utility.yul\":8264:8270   */\n      0x00\n        /* \"#utility.yul\":8313:8315   */\n      0x20\n        /* \"#utility.yul\":8301:8310   */\n      dup3\n        /* \"#utility.yul\":8292:8299   */\n      dup5\n        /* \"#utility.yul\":8288:8311   */\n      sub\n        /* \"#utility.yul\":8284:8316   */\n      slt\n        /* \"#utility.yul\":8281:8400   */\n      iszero\n      tag_238\n      jumpi\n        /* \"#utility.yul\":8319:8398   */\n      tag_239\n      tag_101\n      jump\t// in\n    tag_239:\n        /* \"#utility.yul\":8281:8400   */\n    tag_238:\n        /* \"#utility.yul\":8467:8468   */\n      0x00\n        /* \"#utility.yul\":8456:8465   */\n      dup3\n        /* \"#utility.yul\":8452:8469   */\n      add\n        /* \"#utility.yul\":8439:8470   */\n      calldataload\n        /* \"#utility.yul\":8497:8515   */\n      0xffffffffffffffff\n        /* \"#utility.yul\":8489:8495   */\n      dup2\n        /* \"#utility.yul\":8486:8516   */\n      gt\n        /* \"#utility.yul\":8483:8600   */\n      iszero\n      tag_240\n      jumpi\n        /* \"#utility.yul\":8519:8598   */\n      tag_241\n      tag_102\n      jump\t// in\n    tag_241:\n        /* \"#utility.yul\":8483:8600   */\n    tag_240:\n        /* \"#utility.yul\":8624:8687   */\n      tag_242\n        /* \"#utility.yul\":8679:8686   */\n      dup5\n        /* \"#utility.yul\":8670:8676   */\n      dup3\n        /* \"#utility.yul\":8659:8668   */\n      dup6\n        /* \"#utility.yul\":8655:8677   */\n      add\n        /* \"#utility.yul\":8624:8687   */\n      tag_127\n      jump\t// in\n    tag_242:\n        /* \"#utility.yul\":8614:8687   */\n      swap2\n      pop\n        /* \"#utility.yul\":8410:8697   */\n      pop\n        /* \"#utility.yul\":8195:8704   */\n      swap3\n      swap2\n      pop\n      pop\n      jump\t// out\n        /* \"#utility.yul\":8710:9023   */\n    tag_30:\n        /* \"#utility.yul\":8823:8827   */\n      0x00\n        /* \"#utility.yul\":8861:8863   */\n      0x20\n        /* \"#utility.yul\":8850:8859   */\n      dup3\n        /* \"#utility.yul\":8846:8864   */\n      add\n        /* \"#utility.yul\":8838:8864   */\n      swap1\n      pop\n        /* \"#utility.yul\":8910:8919   */\n      dup2\n        /* \"#utility.yul\":8904:8908   */\n      dup2\n        /* \"#utility.yul\":8900:8920   */\n      sub\n        /* \"#utility.yul\":8896:8897   */\n      0x00\n        /* \"#utility.yul\":8885:8894   */\n      dup4\n        /* \"#utility.yul\":8881:8898   */\n      add\n        /* \"#utility.yul\":8874:8921   */\n      mstore\n        /* \"#utility.yul\":8938:9016   */\n      tag_244\n        /* \"#utility.yul\":9011:9015   */\n      dup2\n        /* \"#utility.yul\":9002:9008   */\n      dup5\n        /* \"#utility.yul\":8938:9016   */\n      tag_110\n      jump\t// in\n    tag_244:\n        /* \"#utility.yul\":8930:9016   */\n      swap1\n      pop\n        /* \"#utility.yul\":8710:9023   */\n      swap3\n      swap2\n      pop\n      pop\n      jump\t// out\n        /* \"#utility.yul\":9029:9171   */\n    tag_128:\n        /* \"#utility.yul\":9124:9130   */\n      0x00\n        /* \"#utility.yul\":9158:9163   */\n      dup2\n        /* \"#utility.yul\":9152:9164   */\n      mload\n        /* \"#utility.yul\":9142:9164   */\n      swap1\n      pop\n        /* \"#utility.yul\":9029:9171   */\n      swap2\n      swap1\n      pop\n      jump\t// out\n        /* \"#utility.yul\":9177:9389   */\n    tag_129:\n        /* \"#utility.yul\":9304:9315   */\n      0x00\n        /* \"#utility.yul\":9338:9344   */\n      dup3\n        /* \"#utility.yul\":9333:9336   */\n      dup3\n        /* \"#utility.yul\":9326:9345   */\n      mstore\n        /* \"#utility.yul\":9378:9382   */\n      0x20\n        /* \"#utility.yul\":9373:9376   */\n      dup3\n        /* \"#utility.yul\":9369:9383   */\n      add\n        /* \"#utility.yul\":9354:9383   */\n      swap1\n      pop\n        /* \"#utility.yul\":9177:9389   */\n      swap3\n      swap2\n      pop\n      pop\n      jump\t// out\n        /* \"#utility.yul\":9395:9555   */\n    tag_130:\n        /* \"#utility.yul\":9490:9494   */\n      0x00\n        /* \"#utility.yul\":9513:9516   */\n      dup2\n        /* \"#utility.yul\":9505:9516   */\n      swap1\n      pop\n        /* \"#utility.yul\":9543:9547   */\n      0x20\n        /* \"#utility.yul\":9538:9541   */\n      dup3\n        /* \"#utility.yul\":9534:9548   */\n      add\n        /* \"#utility.yul\":9526:9548   */\n      swap1\n      pop\n        /* \"#utility.yul\":9395:9555   */\n      swap2\n      swap1\n      pop\n      jump\t// out\n        /* \"#utility.yul\":9635:10316   */\n    tag_131:\n        /* \"#utility.yul\":9750:9753   */\n      0x00\n        /* \"#utility.yul\":9786:9790   */\n      0x40\n        /* \"#utility.yul\":9781:9784   */\n      dup4\n        /* \"#utility.yul\":9777:9791   */\n      add\n        /* \"#utility.yul\":9877:9881   */\n      0x00\n        /* \"#utility.yul\":9870:9875   */\n      dup4\n        /* \"#utility.yul\":9866:9882   */\n      add\n        /* \"#utility.yul\":9860:9883   */\n      mload\n        /* \"#utility.yul\":9930:9933   */\n      dup5\n        /* \"#utility.yul\":9924:9928   */\n      dup3\n        /* \"#utility.yul\":9920:9934   */\n      sub\n        /* \"#utility.yul\":9913:9917   */\n      0x00\n        /* \"#utility.yul\":9908:9911   */\n      dup7\n        /* \"#utility.yul\":9904:9918   */\n      add\n        /* \"#utility.yul\":9897:9935   */\n      mstore\n        /* \"#utility.yul\":9956:10029   */\n      tag_249\n        /* \"#utility.yul\":10024:10028   */\n      dup3\n        /* \"#utility.yul\":10010:10022   */\n      dup3\n        /* \"#utility.yul\":9956:10029   */\n      tag_115\n      jump\t// in\n    tag_249:\n        /* \"#utility.yul\":9948:10029   */\n      swap2\n      pop\n        /* \"#utility.yul\":9801:10040   */\n      pop\n        /* \"#utility.yul\":10126:10130   */\n      0x20\n        /* \"#utility.yul\":10119:10124   */\n      dup4\n        /* \"#utility.yul\":10115:10131   */\n      add\n        /* \"#utility.yul\":10109:10132   */\n      mload\n        /* \"#utility.yul\":10179:10182   */\n      dup5\n        /* \"#utility.yul\":10173:10177   */\n      dup3\n        /* \"#utility.yul\":10169:10183   */\n      sub\n        /* \"#utility.yul\":10162:10166   */\n      0x20\n        /* \"#utility.yul\":10157:10160   */\n      dup7\n        /* \"#utility.yul\":10153:10167   */\n      add\n        /* \"#utility.yul\":10146:10184   */\n      mstore\n        /* \"#utility.yul\":10205:10278   */\n      tag_250\n        /* \"#utility.yul\":10273:10277   */\n      dup3\n        /* \"#utility.yul\":10259:10271   */\n      dup3\n        /* \"#utility.yul\":10205:10278   */\n      tag_115\n      jump\t// in\n    tag_250:\n        /* \"#utility.yul\":10197:10278   */\n      swap2\n      pop\n        /* \"#utility.yul\":10050:10289   */\n      pop\n        /* \"#utility.yul\":10306:10310   */\n      dup1\n        /* \"#utility.yul\":10299:10310   */\n      swap2\n      pop\n        /* \"#utility.yul\":9755:10316   */\n      pop\n        /* \"#utility.yul\":9635:10316   */\n      swap3\n      swap2\n      pop\n      pop\n      jump\t// out\n        /* \"#utility.yul\":10322:10590   */\n    tag_132:\n        /* \"#utility.yul\":10447:10457   */\n      0x00\n        /* \"#utility.yul\":10482:10584   */\n      tag_252\n        /* \"#utility.yul\":10580:10583   */\n      dup4\n        /* \"#utility.yul\":10572:10578   */\n      dup4\n        /* \"#utility.yul\":10482:10584   */\n      tag_131\n      jump\t// in\n    tag_252:\n        /* \"#utility.yul\":10468:10584   */\n      swap1\n      pop\n        /* \"#utility.yul\":10322:10590   */\n      swap3\n      swap2\n      pop\n      pop\n      jump\t// out\n        /* \"#utility.yul\":10596:10737   */\n    tag_133:\n        /* \"#utility.yul\":10694:10698   */\n      0x00\n        /* \"#utility.yul\":10726:10730   */\n      0x20\n        /* \"#utility.yul\":10721:10724   */\n      dup3\n        /* \"#utility.yul\":10717:10731   */\n      add\n        /* \"#utility.yul\":10709:10731   */\n      swap1\n      pop\n        /* \"#utility.yul\":10596:10737   */\n      swap2\n      swap1\n      pop\n      jump\t// out\n        /* \"#utility.yul\":10821:11956   */\n    tag_134:\n        /* \"#utility.yul\":10996:10999   */\n      0x00\n        /* \"#utility.yul\":11025:11107   */\n      tag_255\n        /* \"#utility.yul\":11101:11106   */\n      dup3\n        /* \"#utility.yul\":11025:11107   */\n      tag_128\n      jump\t// in\n    tag_255:\n        /* \"#utility.yul\":11123:11237   */\n      tag_256\n        /* \"#utility.yul\":11230:11236   */\n      dup2\n        /* \"#utility.yul\":11225:11228   */\n      dup6\n        /* \"#utility.yul\":11123:11237   */\n      tag_129\n      jump\t// in\n    tag_256:\n        /* \"#utility.yul\":11116:11237   */\n      swap4\n      pop\n        /* \"#utility.yul\":11263:11266   */\n      dup4\n        /* \"#utility.yul\":11308:11312   */\n      0x20\n        /* \"#utility.yul\":11300:11306   */\n      dup3\n        /* \"#utility.yul\":11296:11313   */\n      mul\n        /* \"#utility.yul\":11291:11294   */\n      dup6\n        /* \"#utility.yul\":11287:11314   */\n      add\n        /* \"#utility.yul\":11338:11422   */\n      tag_257\n        /* \"#utility.yul\":11416:11421   */\n      dup6\n        /* \"#utility.yul\":11338:11422   */\n      tag_130\n      jump\t// in\n    tag_257:\n        /* \"#utility.yul\":11445:11452   */\n      dup1\n        /* \"#utility.yul\":11476:11477   */\n      0x00\n        /* \"#utility.yul\":11461:11911   */\n    tag_258:\n        /* \"#utility.yul\":11486:11492   */\n      dup6\n        /* \"#utility.yul\":11483:11484   */\n      dup2\n        /* \"#utility.yul\":11480:11493   */\n      lt\n        /* \"#utility.yul\":11461:11911   */\n      iszero\n      tag_260\n      jumpi\n        /* \"#utility.yul\":11557:11566   */\n      dup5\n        /* \"#utility.yul\":11551:11555   */\n      dup5\n        /* \"#utility.yul\":11547:11567   */\n      sub\n        /* \"#utility.yul\":11542:11545   */\n      dup10\n        /* \"#utility.yul\":11535:11568   */\n      mstore\n        /* \"#utility.yul\":11608:11614   */\n      dup2\n        /* \"#utility.yul\":11602:11615   */\n      mload\n        /* \"#utility.yul\":11636:11756   */\n      tag_261\n        /* \"#utility.yul\":11751:11755   */\n      dup6\n        /* \"#utility.yul\":11736:11749   */\n      dup3\n        /* \"#utility.yul\":11636:11756   */\n      tag_132\n      jump\t// in\n    tag_261:\n        /* \"#utility.yul\":11628:11756   */\n      swap5\n      pop\n        /* \"#utility.yul\":11779:11867   */\n      tag_262\n        /* \"#utility.yul\":11860:11866   */\n      dup4\n        /* \"#utility.yul\":11779:11867   */\n      tag_133\n      jump\t// in\n    tag_262:\n        /* \"#utility.yul\":11769:11867   */\n      swap3\n      pop\n        /* \"#utility.yul\":11896:11900   */\n      0x20\n        /* \"#utility.yul\":11891:11894   */\n      dup11\n        /* \"#utility.yul\":11887:11901   */\n      add\n        /* \"#utility.yul\":11880:11901   */\n      swap10\n      pop\n        /* \"#utility.yul\":11521:11911   */\n      pop\n        /* \"#utility.yul\":11508:11509   */\n      0x01\n        /* \"#utility.yul\":11505:11506   */\n      dup2\n        /* \"#utility.yul\":11501:11510   */\n      add\n        /* \"#utility.yul\":11496:11510   */\n      swap1\n      pop\n        /* \"#utility.yul\":11461:11911   */\n      jump(tag_258)\n    tag_260:\n        /* \"#utility.yul\":11465:11479   */\n      pop\n        /* \"#utility.yul\":11927:11931   */\n      dup3\n        /* \"#utility.yul\":11920:11931   */\n      swap8\n      pop\n        /* \"#utility.yul\":11947:11950   */\n      dup8\n        /* \"#utility.yul\":11940:11950   */\n      swap6\n      pop\n        /* \"#utility.yul\":11001:11956   */\n      pop\n      pop\n      pop\n      pop\n      pop\n        /* \"#utility.yul\":10821:11956   */\n      swap3\n      swap2\n      pop\n      pop\n      jump\t// out\n        /* \"#utility.yul\":11962:12447   */\n    tag_34:\n        /* \"#utility.yul\":12161:12165   */\n      0x00\n        /* \"#utility.yul\":12199:12201   */\n      0x20\n        /* \"#utility.yul\":12188:12197   */\n      dup3\n        /* \"#utility.yul\":12184:12202   */\n      add\n        /* \"#utility.yul\":12176:12202   */\n      swap1\n      pop\n        /* \"#utility.yul\":12248:12257   */\n      dup2\n        /* \"#utility.yul\":12242:12246   */\n      dup2\n        /* \"#utility.yul\":12238:12258   */\n      sub\n        /* \"#utility.yul\":12234:12235   */\n      0x00\n        /* \"#utility.yul\":12223:12232   */\n      dup4\n        /* \"#utility.yul\":12219:12236   */\n      add\n        /* \"#utility.yul\":12212:12259   */\n      mstore\n        /* \"#utility.yul\":12276:12440   */\n      tag_264\n        /* \"#utility.yul\":12435:12439   */\n      dup2\n        /* \"#utility.yul\":12426:12432   */\n      dup5\n        /* \"#utility.yul\":12276:12440   */\n      tag_134\n      jump\t// in\n    tag_264:\n        /* \"#utility.yul\":12268:12440   */\n      swap1\n      pop\n        /* \"#utility.yul\":11962:12447   */\n      swap3\n      swap2\n      pop\n      pop\n      jump\t// out\n        /* \"#utility.yul\":12453:12571   */\n    tag_135:\n        /* \"#utility.yul\":12540:12564   */\n      tag_266\n        /* \"#utility.yul\":12558:12563   */\n      dup2\n        /* \"#utility.yul\":12540:12564   */\n      tag_103\n      jump\t// in\n    tag_266:\n        /* \"#utility.yul\":12535:12538   */\n      dup3\n        /* \"#utility.yul\":12528:12565   */\n      mstore\n        /* \"#utility.yul\":12453:12571   */\n      pop\n      pop\n      jump\t// out\n        /* \"#utility.yul\":12577:12799   */\n    tag_38:\n        /* \"#utility.yul\":12670:12674   */\n      0x00\n        /* \"#utility.yul\":12708:12710   */\n      0x20\n        /* \"#utility.yul\":12697:12706   */\n      dup3\n        /* \"#utility.yul\":12693:12711   */\n      add\n        /* \"#utility.yul\":12685:12711   */\n      swap1\n      pop\n        /* \"#utility.yul\":12721:12792   */\n      tag_268\n        /* \"#utility.yul\":12789:12790   */\n      0x00\n        /* \"#utility.yul\":12778:12787   */\n      dup4\n        /* \"#utility.yul\":12774:12791   */\n      add\n        /* \"#utility.yul\":12765:12771   */\n      dup5\n        /* \"#utility.yul\":12721:12792   */\n      tag_135\n      jump\t// in\n    tag_268:\n        /* \"#utility.yul\":12577:12799   */\n      swap3\n      swap2\n      pop\n      pop\n      jump\t// out\n        /* \"#utility.yul\":12805:12985   */\n    tag_136:\n        /* \"#utility.yul\":12853:12930   */\n      0x4e487b7100000000000000000000000000000000000000000000000000000000\n        /* \"#utility.yul\":12850:12851   */\n      0x00\n        /* \"#utility.yul\":12843:12931   */\n      mstore\n        /* \"#utility.yul\":12950:12954   */\n      0x22\n        /* \"#utility.yul\":12947:12948   */\n      0x04\n        /* \"#utility.yul\":12940:12955   */\n      mstore\n        /* \"#utility.yul\":12974:12978   */\n      0x24\n        /* \"#utility.yul\":12971:12972   */\n      0x00\n        /* \"#utility.yul\":12964:12979   */\n      revert\n        /* \"#utility.yul\":12991:13311   */\n    tag_46:\n        /* \"#utility.yul\":13035:13041   */\n      0x00\n        /* \"#utility.yul\":13072:13073   */\n      0x02\n        /* \"#utility.yul\":13066:13070   */\n      dup3\n        /* \"#utility.yul\":13062:13074   */\n      div\n        /* \"#utility.yul\":13052:13074   */\n      swap1\n      pop\n        /* \"#utility.yul\":13119:13120   */\n      0x01\n        /* \"#utility.yul\":13113:13117   */\n      dup3\n        /* \"#utility.yul\":13109:13121   */\n      and\n        /* \"#utility.yul\":13140:13158   */\n      dup1\n        /* \"#utility.yul\":13130:13211   */\n      tag_271\n      jumpi\n        /* \"#utility.yul\":13196:13200   */\n      0x7f\n        /* \"#utility.yul\":13188:13194   */\n      dup3\n        /* \"#utility.yul\":13184:13201   */\n      and\n        /* \"#utility.yul\":13174:13201   */\n      swap2\n      pop\n        /* \"#utility.yul\":13130:13211   */\n    tag_271:\n        /* \"#utility.yul\":13258:13260   */\n      0x20\n        /* \"#utility.yul\":13250:13256   */\n      dup3\n        /* \"#utility.yul\":13247:13261   */\n      lt\n        /* \"#utility.yul\":13227:13245   */\n      dup2\n        /* \"#utility.yul\":13224:13262   */\n      sub\n        /* \"#utility.yul\":13221:13305   */\n      tag_272\n      jumpi\n        /* \"#utility.yul\":13277:13295   */\n      tag_273\n      tag_136\n      jump\t// in\n    tag_273:\n        /* \"#utility.yul\":13221:13305   */\n    tag_272:\n        /* \"#utility.yul\":13042:13311   */\n      pop\n        /* \"#utility.yul\":12991:13311   */\n      swap2\n      swap1\n      pop\n      jump\t// out\n        /* \"#utility.yul\":13317:13458   */\n    tag_137:\n        /* \"#utility.yul\":13366:13370   */\n      0x00\n        /* \"#utility.yul\":13389:13392   */\n      dup2\n        /* \"#utility.yul\":13381:13392   */\n      swap1\n      pop\n        /* \"#utility.yul\":13412:13415   */\n      dup2\n        /* \"#utility.yul\":13409:13410   */\n      0x00\n        /* \"#utility.yul\":13402:13416   */\n      mstore\n        /* \"#utility.yul\":13446:13450   */\n      0x20\n        /* \"#utility.yul\":13443:13444   */\n      0x00\n        /* \"#utility.yul\":13433:13451   */\n      keccak256\n        /* \"#utility.yul\":13425:13451   */\n      swap1\n      pop\n        /* \"#utility.yul\":13317:13458   */\n      swap2\n      swap1\n      pop\n      jump\t// out\n        /* \"#utility.yul\":13464:13557   */\n    tag_138:\n        /* \"#utility.yul\":13501:13507   */\n      0x00\n        /* \"#utility.yul\":13548:13550   */\n      0x20\n        /* \"#utility.yul\":13543:13545   */\n      0x1f\n        /* \"#utility.yul\":13536:13541   */\n      dup4\n        /* \"#utility.yul\":13532:13546   */\n      add\n        /* \"#utility.yul\":13528:13551   */\n      div\n        /* \"#utility.yul\":13518:13551   */\n      swap1\n      pop\n        /* \"#utility.yul\":13464:13557   */\n      swap2\n      swap1\n      pop\n      jump\t// out\n        /* \"#utility.yul\":13563:13670   */\n    tag_139:\n        /* \"#utility.yul\":13607:13615   */\n      0x00\n        /* \"#utility.yul\":13657:13662   */\n      dup3\n        /* \"#utility.yul\":13651:13655   */\n      dup3\n        /* \"#utility.yul\":13647:13663   */\n      shl\n        /* \"#utility.yul\":13626:13663   */\n      swap1\n      pop\n        /* \"#utility.yul\":13563:13670   */\n      swap3\n      swap2\n      pop\n      pop\n      jump\t// out\n        /* \"#utility.yul\":13676:14069   */\n    tag_140:\n        /* \"#utility.yul\":13745:13751   */\n      0x00\n        /* \"#utility.yul\":13795:13796   */\n      0x08\n        /* \"#utility.yul\":13783:13793   */\n      dup4\n        /* \"#utility.yul\":13779:13797   */\n      mul\n        /* \"#utility.yul\":13818:13915   */\n      tag_278\n        /* \"#utility.yul\":13848:13914   */\n      0xffffffffffffffffffffffffffffffffffffffffffffffffffffffffffffffff\n        /* \"#utility.yul\":13837:13846   */\n      dup3\n        /* \"#utility.yul\":13818:13915   */\n      tag_139\n      jump\t// in\n    tag_278:\n        /* \"#utility.yul\":13936:13975   */\n      tag_279\n        /* \"#utility.yul\":13966:13974   */\n      dup7\n        /* \"#utility.yul\":13955:13964   */\n      dup4\n        /* \"#utility.yul\":13936:13975   */\n      tag_139\n      jump\t// in\n    tag_279:\n        /* \"#utility.yul\":13924:13975   */\n      swap6\n      pop\n        /* \"#utility.yul\":14008:14012   */\n      dup1\n        /* \"#utility.yul\":14004:14013   */\n      not\n        /* \"#utility.yul\":13997:14002   */\n      dup5\n        /* \"#utility.yul\":13993:14014   */\n      and\n        /* \"#utility.yul\":13984:14014   */\n      swap4\n      pop\n        /* \"#utility.yul\":14057:14061   */\n      dup1\n        /* \"#utility.yul\":14047:14055   */\n      dup7\n        /* \"#utility.yul\":14043:14062   */\n      and\n        /* \"#utility.yul\":14036:14041   */\n      dup5\n        /* \"#utility.yul\":14033:14063   */\n      or\n        /* \"#utility.yul\":14023:14063   */\n      swap3\n      pop\n        /* \"#utility.yul\":13752:14069   */\n      pop\n      pop\n        /* \"#utility.yul\":13676:14069   */\n      swap4\n      swap3\n      pop\n      pop\n      pop\n      jump\t// out\n        /* \"#utility.yul\":14075:14135   */\n    tag_141:\n        /* \"#utility.yul\":14103:14106   */\n      0x00\n        /* \"#utility.yul\":14124:14129   */\n      dup2\n        /* \"#utility.yul\":14117:14129   */\n      swap1\n      pop\n        /* \"#utility.yul\":14075:14135   */\n      swap2\n      swap1\n      pop\n      jump\t// out\n        /* \"#utility.yul\":14141:14283   */\n    tag_142:\n        /* \"#utility.yul\":14191:14200   */\n      0x00\n        /* \"#utility.yul\":14224:14277   */\n      tag_282\n        /* \"#utility.yul\":14242:14276   */\n      tag_283\n        /* \"#utility.yul\":14251:14275   */\n      tag_284\n        /* \"#utility.yul\":14269:14274   */\n      dup5\n        /* \"#utility.yul\":14251:14275   */\n      tag_103\n      jump\t// in\n    tag_284:\n        /* \"#utility.yul\":14242:14276   */\n      tag_141\n      jump\t// in\n    tag_283:\n        /* \"#utility.yul\":14224:14277   */\n      tag_103\n      jump\t// in\n    tag_282:\n        /* \"#utility.yul\":14211:14277   */\n      swap1\n      pop\n        /* \"#utility.yul\":14141:14283   */\n      swap2\n      swap1\n      pop\n      jump\t// out\n        /* \"#utility.yul\":14289:14364   */\n    tag_143:\n        /* \"#utility.yul\":14332:14335   */\n      0x00\n        /* \"#utility.yul\":14353:14358   */\n      dup2\n        /* \"#utility.yul\":14346:14358   */\n      swap1\n      pop\n        /* \"#utility.yul\":14289:14364   */\n      swap2\n      swap1\n      pop\n      jump\t// out\n        /* \"#utility.yul\":14370:14639   */\n    tag_144:\n        /* \"#utility.yul\":14480:14519   */\n      tag_287\n        /* \"#utility.yul\":14511:14518   */\n      dup4\n        /* \"#utility.yul\":14480:14519   */\n      tag_142\n      jump\t// in\n    tag_287:\n        /* \"#utility.yul\":14541:14632   */\n      tag_288\n        /* \"#utility.yul\":14590:14631   */\n      tag_289\n        /* \"#utility.yul\":14614:14630   */\n      dup3\n        /* \"#utility.yul\":14590:14631   */\n      tag_143\n      jump\t// in\n    tag_289:\n        /* \"#utility.yul\":14582:14588   */\n      dup5\n        /* \"#utility.yul\":14575:14579   */\n      dup5\n        /* \"#utility.yul\":14569:14580   */\n      sload\n        /* \"#utility.yul\":14541:14632   */\n      tag_140\n      jump\t// in\n    tag_288:\n        /* \"#utility.yul\":14535:14539   */\n      dup3\n        /* \"#utility.yul\":14528:14633   */\n      sstore\n        /* \"#utility.yul\":14446:14639   */\n      pop\n        /* \"#utility.yul\":14370:14639   */\n      pop\n      pop\n      pop\n      jump\t// out\n        /* \"#utility.yul\":14645:14718   */\n    tag_145:\n        /* \"#utility.yul\":14690:14693   */\n      0x00\n        /* \"#utility.yul\":14645:14718   */\n      swap1\n      jump\t// out\n        /* \"#utility.yul\":14724:14913   */\n    tag_146:\n        /* \"#utility.yul\":14801:14833   */\n      tag_292\n      tag_145\n      jump\t// in\n    tag_292:\n        /* \"#utility.yul\":14842:14907   */\n      tag_293\n        /* \"#utility.yul\":14900:14906   */\n      dup2\n        /* \"#utility.yul\":14892:14898   */\n      dup5\n        /* \"#utility.yul\":14886:14890   */\n      dup5\n        /* \"#utility.yul\":14842:14907   */\n      tag_144\n      jump\t// in\n    tag_293:\n        /* \"#utility.yul\":14777:14913   */\n      pop\n        /* \"#utility.yul\":14724:14913   */\n      pop\n      pop\n      jump\t// out\n        /* \"#utility.yul\":14919:15105   */\n    tag_147:\n        /* \"#utility.yul\":14979:15099   */\n    tag_295:\n        /* \"#utility.yul\":14996:14999   */\n      dup2\n        /* \"#utility.yul\":14989:14994   */\n      dup2\n        /* \"#utility.yul\":14986:15000   */\n      lt\n        /* \"#utility.yul\":14979:15099   */\n      iszero\n      tag_297\n      jumpi\n        /* \"#utility.yul\":15050:15089   */\n      tag_298\n        /* \"#utility.yul\":15087:15088   */\n      0x00\n        /* \"#utility.yul\":15080:15085   */\n      dup3\n        /* \"#utility.yul\":15050:15089   */\n      tag_146\n      jump\t// in\n    tag_298:\n        /* \"#utility.yul\":15023:15024   */\n      0x01\n        /* \"#utility.yul\":15016:15021   */\n      dup2\n        /* \"#utility.yul\":15012:15025   */\n      add\n        /* \"#utility.yul\":15003:15025   */\n      swap1\n      pop\n        /* \"#utility.yul\":14979:15099   */\n      jump(tag_295)\n    tag_297:\n        /* \"#utility.yul\":14919:15105   */\n      pop\n      pop\n      jump\t// out\n        /* \"#utility.yul\":15111:15654   */\n    tag_148:\n        /* \"#utility.yul\":15212:15214   */\n      0x1f\n        /* \"#utility.yul\":15207:15210   */\n      dup3\n        /* \"#utility.yul\":15204:15215   */\n      gt\n        /* \"#utility.yul\":15201:15647   */\n      iszero\n      tag_300\n      jumpi\n        /* \"#utility.yul\":15246:15284   */\n      tag_301\n        /* \"#utility.yul\":15278:15283   */\n      dup2\n        /* \"#utility.yul\":15246:15284   */\n      tag_137\n      jump\t// in\n    tag_301:\n        /* \"#utility.yul\":15330:15359   */\n      tag_302\n        /* \"#utility.yul\":15348:15358   */\n      dup5\n        /* \"#utility.yul\":15330:15359   */\n      tag_138\n      jump\t// in\n    tag_302:\n        /* \"#utility.yul\":15320:15328   */\n      dup2\n        /* \"#utility.yul\":15316:15360   */\n      add\n        /* \"#utility.yul\":15513:15515   */\n      0x20\n        /* \"#utility.yul\":15501:15511   */\n      dup6\n        /* \"#utility.yul\":15498:15516   */\n      lt\n        /* \"#utility.yul\":15495:15544   */\n      iszero\n      tag_303\n      jumpi\n        /* \"#utility.yul\":15534:15542   */\n      dup2\n        /* \"#utility.yul\":15519:15542   */\n      swap1\n      pop\n        /* \"#utility.yul\":15495:15544   */\n    tag_303:\n        /* \"#utility.yul\":15557:15637   */\n      tag_304\n        /* \"#utility.yul\":15613:15635   */\n      tag_305\n        /* \"#utility.yul\":15631:15634   */\n      dup6\n        /* \"#utility.yul\":15613:15635   */\n      tag_138\n      jump\t// in\n    tag_305:\n        /* \"#utility.yul\":15603:15611   */\n      dup4\n        /* \"#utility.yul\":15599:15636   */\n      add\n        /* \"#utility.yul\":15586:15597   */\n      dup3\n        /* \"#utility.yul\":15557:15637   */\n      tag_147\n      jump\t// in\n    tag_304:\n        /* \"#utility.yul\":15216:15647   */\n      pop\n      pop\n        /* \"#utility.yul\":15201:15647   */\n    tag_300:\n        /* \"#utility.yul\":15111:15654   */\n      pop\n      pop\n      pop\n      jump\t// out\n        /* \"#utility.yul\":15660:15777   */\n    tag_149:\n        /* \"#utility.yul\":15714:15722   */\n      0x00\n        /* \"#utility.yul\":15764:15769   */\n      dup3\n        /* \"#utility.yul\":15758:15762   */\n      dup3\n        /* \"#utility.yul\":15754:15770   */\n      shr\n        /* \"#utility.yul\":15733:15770   */\n      swap1\n      pop\n        /* \"#utility.yul\":15660:15777   */\n      swap3\n      swap2\n      pop\n      pop\n      jump\t// out\n        /* \"#utility.yul\":15783:15952   */\n    tag_150:\n        /* \"#utility.yul\":15827:15833   */\n      0x00\n        /* \"#utility.yul\":15860:15911   */\n      tag_308\n        /* \"#utility.yul\":15908:15909   */\n      0x00\n        /* \"#utility.yul\":15904:15910   */\n      not\n        /* \"#utility.yul\":15896:15901   */\n      dup5\n        /* \"#utility.yul\":15893:15894   */\n      0x08\n        /* \"#utility.yul\":15889:15902   */\n      mul\n        /* \"#utility.yul\":15860:15911   */\n      tag_149\n      jump\t// in\n    tag_308:\n        /* \"#utility.yul\":15856:15912   */\n      not\n        /* \"#utility.yul\":15941:15945   */\n      dup1\n        /* \"#utility.yul\":15935:15939   */\n      dup4\n        /* \"#utility.yul\":15931:15946   */\n      and\n        /* \"#utility.yul\":15921:15946   */\n      swap2\n      pop\n        /* \"#utility.yul\":15834:15952   */\n      pop\n        /* \"#utility.yul\":15783:15952   */\n      swap3\n      swap2\n      pop\n      pop\n      jump\t// out\n        /* \"#utility.yul\":15957:16252   */\n    tag_151:\n        /* \"#utility.yul\":16033:16037   */\n      0x00\n        /* \"#utility.yul\":16179:16208   */\n      tag_310\n        /* \"#utility.yul\":16204:16207   */\n      dup4\n        /* \"#utility.yul\":16198:16202   */\n      dup4\n        /* \"#utility.yul\":16179:16208   */\n      tag_150\n      jump\t// in\n    tag_310:\n        /* \"#utility.yul\":16171:16208   */\n      swap2\n      pop\n        /* \"#utility.yul\":16241:16244   */\n      dup3\n        /* \"#utility.yul\":16238:16239   */\n      0x02\n        /* \"#utility.yul\":16234:16245   */\n      mul\n        /* \"#utility.yul\":16228:16232   */\n      dup3\n        /* \"#utility.yul\":16225:16246   */\n      or\n        /* \"#utility.yul\":16217:16246   */\n      swap1\n      pop\n        /* \"#utility.yul\":15957:16252   */\n      swap3\n      swap2\n      pop\n      pop\n      jump\t// out\n        /* \"#utility.yul\":16257:17652   */\n    tag_68:\n        /* \"#utility.yul\":16374:16411   */\n      tag_312\n        /* \"#utility.yul\":16407:16410   */\n      dup3\n        /* \"#utility.yul\":16374:16411   */\n      tag_106\n      jump\t// in\n    tag_312:\n        /* \"#utility.yul\":16476:16494   */\n      0xffffffffffffffff\n        /* \"#utility.yul\":16468:16474   */\n      dup2\n        /* \"#utility.yul\":16465:16495   */\n      gt\n        /* \"#utility.yul\":16462:16518   */\n      iszero\n      tag_313\n      jumpi\n        /* \"#utility.yul\":16498:16516   */\n      tag_314\n      tag_121\n      jump\t// in\n    tag_314:\n        /* \"#utility.yul\":16462:16518   */\n    tag_313:\n        /* \"#utility.yul\":16542:16580   */\n      tag_315\n        /* \"#utility.yul\":16574:16578   */\n      dup3\n        /* \"#utility.yul\":16568:16579   */\n      sload\n        /* \"#utility.yul\":16542:16580   */\n      tag_46\n      jump\t// in\n    tag_315:\n        /* \"#utility.yul\":16627:16694   */\n      tag_316\n        /* \"#utility.yul\":16687:16693   */\n      dup3\n        /* \"#utility.yul\":16679:16685   */\n      dup3\n        /* \"#utility.yul\":16673:16677   */\n      dup6\n        /* \"#utility.yul\":16627:16694   */\n      tag_148\n      jump\t// in\n    tag_316:\n        /* \"#utility.yul\":16721:16722   */\n      0x00\n        /* \"#utility.yul\":16745:16749   */\n      0x20\n        /* \"#utility.yul\":16732:16749   */\n      swap1\n      pop\n        /* \"#utility.yul\":16777:16779   */\n      0x1f\n        /* \"#utility.yul\":16769:16775   */\n      dup4\n        /* \"#utility.yul\":16766:16780   */\n      gt\n        /* \"#utility.yul\":16794:16795   */\n      0x01\n        /* \"#utility.yul\":16789:17407   */\n      dup2\n      eq\n      tag_318\n      jumpi\n        /* \"#utility.yul\":17451:17452   */\n      0x00\n        /* \"#utility.yul\":17468:17474   */\n      dup5\n        /* \"#utility.yul\":17465:17542   */\n      iszero\n      tag_319\n      jumpi\n        /* \"#utility.yul\":17517:17526   */\n      dup3\n        /* \"#utility.yul\":17512:17515   */\n      dup8\n        /* \"#utility.yul\":17508:17527   */\n      add\n        /* \"#utility.yul\":17502:17528   */\n      mload\n        /* \"#utility.yul\":17493:17528   */\n      swap1\n      pop\n        /* \"#utility.yul\":17465:17542   */\n    tag_319:\n        /* \"#utility.yul\":17568:17635   */\n      tag_320\n        /* \"#utility.yul\":17628:17634   */\n      dup6\n        /* \"#utility.yul\":17621:17626   */\n      dup3\n        /* \"#utility.yul\":17568:17635   */\n      tag_151\n      jump\t// in\n    tag_320:\n        /* \"#utility.yul\":17562:17566   */\n      dup7\n        /* \"#utility.yul\":17555:17636   */\n      sstore\n        /* \"#utility.yul\":17424:17646   */\n      pop\n        /* \"#utility.yul\":16759:17646   */\n      jump(tag_317)\n        /* \"#utility.yul\":16789:17407   */\n    tag_318:\n        /* \"#utility.yul\":16841:16845   */\n      0x1f\n        /* \"#utility.yul\":16837:16846   */\n      not\n        /* \"#utility.yul\":16829:16835   */\n      dup5\n        /* \"#utility.yul\":16825:16847   */\n      and\n        /* \"#utility.yul\":16875:16912   */\n      tag_321\n        /* \"#utility.yul\":16907:16911   */\n      dup7\n        /* \"#utility.yul\":16875:16912   */\n      tag_137\n      jump\t// in\n    tag_321:\n        /* \"#utility.yul\":16934:16935   */\n      0x00\n        /* \"#utility.yul\":16948:17156   */\n    tag_322:\n        /* \"#utility.yul\":16962:16969   */\n      dup3\n        /* \"#utility.yul\":16959:16960   */\n      dup2\n        /* \"#utility.yul\":16956:16970   */\n      lt\n        /* \"#utility.yul\":16948:17156   */\n      iszero\n      tag_324\n      jumpi\n        /* \"#utility.yul\":17041:17050   */\n      dup5\n        /* \"#utility.yul\":17036:17039   */\n      dup10\n        /* \"#utility.yul\":17032:17051   */\n      add\n        /* \"#utility.yul\":17026:17052   */\n      mload\n        /* \"#utility.yul\":17018:17024   */\n      dup3\n        /* \"#utility.yul\":17011:17053   */\n      sstore\n        /* \"#utility.yul\":17092:17093   */\n      0x01\n        /* \"#utility.yul\":17084:17090   */\n      dup3\n        /* \"#utility.yul\":17080:17094   */\n      add\n        /* \"#utility.yul\":17070:17094   */\n      swap2\n      pop\n        /* \"#utility.yul\":17139:17141   */\n      0x20\n        /* \"#utility.yul\":17128:17137   */\n      dup6\n        /* \"#utility.yul\":17124:17142   */\n      add\n        /* \"#utility.yul\":17111:17142   */\n      swap5\n      pop\n        /* \"#utility.yul\":16985:16989   */\n      0x20\n        /* \"#utility.yul\":16982:16983   */\n      dup2\n        /* \"#utility.yul\":16978:16990   */\n      add\n        /* \"#utility.yul\":16973:16990   */\n      swap1\n      pop\n        /* \"#utility.yul\":16948:17156   */\n      jump(tag_322)\n    tag_324:\n        /* \"#utility.yul\":17184:17190   */\n      dup7\n        /* \"#utility.yul\":17175:17182   */\n      dup4\n        /* \"#utility.yul\":17172:17191   */\n      lt\n        /* \"#utility.yul\":17169:17348   */\n      iszero\n      tag_325\n      jumpi\n        /* \"#utility.yul\":17242:17251   */\n      dup5\n        /* \"#utility.yul\":17237:17240   */\n      dup10\n        /* \"#utility.yul\":17233:17252   */\n      add\n        /* \"#utility.yul\":17227:17253   */\n      mload\n        /* \"#utility.yul\":17285:17333   */\n      tag_326\n        /* \"#utility.yul\":17327:17331   */\n      0x1f\n        /* \"#utility.yul\":17319:17325   */\n      dup10\n        /* \"#utility.yul\":17315:17332   */\n      and\n        /* \"#utility.yul\":17304:17313   */\n      dup3\n        /* \"#utility.yul\":17285:17333   */\n      tag_150\n      jump\t// in\n    tag_326:\n        /* \"#utility.yul\":17277:17283   */\n      dup4\n        /* \"#utility.yul\":17270:17334   */\n      sstore\n        /* \"#utility.yul\":17192:17348   */\n      pop\n        /* \"#utility.yul\":17169:17348   */\n    tag_325:\n        /* \"#utility.yul\":17394:17395   */\n      0x01\n        /* \"#utility.yul\":17390:17391   */\n      0x02\n        /* \"#utility.yul\":17382:17388   */\n      dup9\n        /* \"#utility.yul\":17378:17392   */\n      mul\n        /* \"#utility.yul\":17374:17396   */\n      add\n        /* \"#utility.yul\":17368:17372   */\n      dup9\n        /* \"#utility.yul\":17361:17397   */\n      sstore\n        /* \"#utility.yul\":16796:17407   */\n      pop\n      pop\n      pop\n        /* \"#utility.yul\":16759:17646   */\n    tag_317:\n      pop\n        /* \"#utility.yul\":16349:17652   */\n      pop\n      pop\n      pop\n        /* \"#utility.yul\":16257:17652   */\n      pop\n      pop\n      jump\t// out\n        /* \"#utility.yul\":17658:17806   */\n    tag_152:\n        /* \"#utility.yul\":17760:17771   */\n      0x00\n        /* \"#utility.yul\":17797:17800   */\n      dup2\n        /* \"#utility.yul\":17782:17800   */\n      swap1\n      pop\n        /* \"#utility.yul\":17658:17806   */\n      swap3\n      swap2\n      pop\n      pop\n      jump\t// out\n        /* \"#utility.yul\":17812:18202   */\n    tag_153:\n        /* \"#utility.yul\":17918:17921   */\n      0x00\n        /* \"#utility.yul\":17946:17985   */\n      tag_329\n        /* \"#utility.yul\":17979:17984   */\n      dup3\n        /* \"#utility.yul\":17946:17985   */\n      tag_106\n      jump\t// in\n    tag_329:\n        /* \"#utility.yul\":18001:18090   */\n      tag_330\n        /* \"#utility.yul\":18083:18089   */\n      dup2\n        /* \"#utility.yul\":18078:18081   */\n      dup6\n        /* \"#utility.yul\":18001:18090   */\n      tag_152\n      jump\t// in\n    tag_330:\n        /* \"#utility.yul\":17994:18090   */\n      swap4\n      pop\n        /* \"#utility.yul\":18099:18164   */\n      tag_331\n        /* \"#utility.yul\":18157:18163   */\n      dup2\n        /* \"#utility.yul\":18152:18155   */\n      dup6\n        /* \"#utility.yul\":18145:18149   */\n      0x20\n        /* \"#utility.yul\":18138:18143   */\n      dup7\n        /* \"#utility.yul\":18134:18150   */\n      add\n        /* \"#utility.yul\":18099:18164   */\n      tag_108\n      jump\t// in\n    tag_331:\n        /* \"#utility.yul\":18189:18195   */\n      dup1\n        /* \"#utility.yul\":18184:18187   */\n      dup5\n        /* \"#utility.yul\":18180:18196   */\n      add\n        /* \"#utility.yul\":18173:18196   */\n      swap2\n      pop\n        /* \"#utility.yul\":17922:18202   */\n      pop\n        /* \"#utility.yul\":17812:18202   */\n      swap3\n      swap2\n      pop\n      pop\n      jump\t// out\n        /* \"#utility.yul\":18208:18483   */\n    tag_71:\n        /* \"#utility.yul\":18340:18343   */\n      0x00\n        /* \"#utility.yul\":18362:18457   */\n      tag_333\n        /* \"#utility.yul\":18453:18456   */\n      dup3\n        /* \"#utility.yul\":18444:18450   */\n      dup5\n        /* \"#utility.yul\":18362:18457   */\n      tag_153\n      jump\t// in\n    tag_333:\n        /* \"#utility.yul\":18355:18457   */\n      swap2\n      pop\n        /* \"#utility.yul\":18474:18477   */\n      dup2\n        /* \"#utility.yul\":18467:18477   */\n      swap1\n      pop\n        /* \"#utility.yul\":18208:18483   */\n      swap3\n      swap2\n      pop\n      pop\n      jump\t// out\n\n    auxdata: 0xa2646970667358221220ca60521de51abd1c9162eb869f974db2d3f132f00085d903cb5aecbd8a5070cf64736f6c634300081a0033\n}\n",
				"bytecode": {
					"linkReferences": {},
					"object": "6080604052600f5f55348015610013575f80fd5b5060018060018154018082558091505060019003905f5260205f20015f6040518060400160405280600481526020017f4461796f00000000000000000000000000000000000000000000000000000000815250909190915090816100779190610447565b5060018060018154018082558091505060019003905f5260205f20015f6040518060400160405280600681526020017f4172696e7a650000000000000000000000000000000000000000000000000000815250909190915090816100db9190610447565b5060018060018154018082558091505060019003905f5260205f20015f6040518060400160405280600681526020017f4e6b656e6e6100000000000000000000000000000000000000000000000000008152509091909150908161013f9190610447565b5060018060018154018082558091505060019003905f5260205f20015f6040518060400160405280600781526020017f54696d6f74687900000000000000000000000000000000000000000000000000815250909190915090816101a39190610447565b5060018060018154018082558091505060019003905f5260205f20015f6040518060400160405280600781526020017f436861726c657300000000000000000000000000000000000000000000000000815250909190915090816102079190610447565b50610516565b5f81519050919050565b7f4e487b71000000000000000000000000000000000000000000000000000000005f52604160045260245ffd5b7f4e487b71000000000000000000000000000000000000000000000000000000005f52602260045260245ffd5b5f600282049050600182168061028857607f821691505b60208210810361029b5761029a610244565b5b50919050565b5f819050815f5260205f209050919050565b5f6020601f8301049050919050565b5f82821b905092915050565b5f600883026102fd7fffffffffffffffffffffffffffffffffffffffffffffffffffffffffffffffff826102c2565b61030786836102c2565b95508019841693508086168417925050509392505050565b5f819050919050565b5f819050919050565b5f61034b6103466103418461031f565b610328565b61031f565b9050919050565b5f819050919050565b61036483610331565b61037861037082610352565b8484546102ce565b825550505050565b5f90565b61038c610380565b61039781848461035b565b505050565b5b818110156103ba576103af5f82610384565b60018101905061039d565b5050565b601f8211156103ff576103d0816102a1565b6103d9846102b3565b810160208510156103e8578190505b6103fc6103f4856102b3565b83018261039c565b50505b505050565b5f82821c905092915050565b5f61041f5f1984600802610404565b1980831691505092915050565b5f6104378383610410565b9150826002028217905092915050565b6104508261020d565b67ffffffffffffffff81111561046957610468610217565b5b6104738254610271565b61047e8282856103be565b5f60209050601f8311600181146104af575f841561049d578287015190505b6104a7858261042c565b86555061050e565b601f1984166104bd866102a1565b5f5b828110156104e4578489015182556001820191506020850194506020810190506104bf565b8683101561050157848901516104fd601f891682610410565b8355505b6001600288020188555050505b505050505050565b610fe2806105235f395ff3fe608060405234801561000f575f80fd5b506004361061007b575f3560e01c80637054010a116100595780637054010a146100ea578063b85220431461011a578063f2c9ecd814610138578063f52aee1d146101565761007b565b8063365b98b21461007f57806342b2378a146100b0578063579e4138146100ce575b5f80fd5b61009960048036038101906100949190610753565b610186565b6040516100a79291906107ee565b60405180910390f35b6100b86102c1565b6040516100c59190610926565b60405180910390f35b6100e860048036038101906100e39190610a72565b610395565b005b61010460048036038101906100ff9190610ae8565b610433565b6040516101119190610b2f565b60405180910390f35b6101226104e6565b60405161012f9190610c4b565b60405180910390f35b610140610661565b60405161014d9190610c7a565b60405180910390f35b610170600480360381019061016b9190610753565b610669565b60405161017d9190610b2f565b60405180910390f35b60028181548110610195575f80fd5b905f5260205f2090600202015f91509050805f0180546101b490610cc0565b80601f01602080910402602001604051908101604052809291908181526020018280546101e090610cc0565b801561022b5780601f106102025761010080835404028352916020019161022b565b820191905f5260205f20905b81548152906001019060200180831161020e57829003601f168201915b50505050509080600101805461024090610cc0565b80601f016020809104026020016040519081016040528092919081815260200182805461026c90610cc0565b80156102b75780601f1061028e576101008083540402835291602001916102b7565b820191905f5260205f20905b81548152906001019060200180831161029a57829003601f168201915b5050505050905082565b60606001805480602002602001604051908101604052809291908181526020015f905b8282101561038c578382905f5260205f2001805461030190610cc0565b80601f016020809104026020016040519081016040528092919081815260200182805461032d90610cc0565b80156103785780601f1061034f57610100808354040283529160200191610378565b820191905f5260205f20905b81548152906001019060200180831161035b57829003601f168201915b5050505050815260200190600101906102e4565b50505050905090565b5f6040518060400160405280848152602001838152509050600281908060018154018082558091505060019003905f5260205f2090600202015f909190919091505f820151815f0190816103e99190610e8d565b5060208201518160010190816103ff9190610e8d565b505050816003846040516104139190610f96565b9081526020016040518091039020908161042d9190610e8d565b50505050565b6003818051602081018201805184825260208301602085012081835280955050505050505f91509050805461046790610cc0565b80601f016020809104026020016040519081016040528092919081815260200182805461049390610cc0565b80156104de5780601f106104b5576101008083540402835291602001916104de565b820191905f5260205f20905b8154815290600101906020018083116104c157829003601f168201915b505050505081565b60606002805480602002602001604051908101604052809291908181526020015f905b82821015610658578382905f5260205f2090600202016040518060400160405290815f8201805461053990610cc0565b80601f016020809104026020016040519081016040528092919081815260200182805461056590610cc0565b80156105b05780601f10610587576101008083540402835291602001916105b0565b820191905f5260205f20905b81548152906001019060200180831161059357829003601f168201915b505050505081526020016001820180546105c990610cc0565b80601f01602080910402602001604051908101604052809291908181526020018280546105f590610cc0565b80156106405780601f1061061757610100808354040283529160200191610640565b820191905f5260205f20905b81548152906001019060200180831161062357829003601f168201915b50505050508152505081526020019060010190610509565b50505050905090565b5f8054905090565b60018181548110610678575f80fd5b905f5260205f20015f91509050805461069090610cc0565b80601f01602080910402602001604051908101604052809291908181526020018280546106bc90610cc0565b80156107075780601f106106de57610100808354040283529160200191610707565b820191905f5260205f20905b8154815290600101906020018083116106ea57829003601f168201915b505050505081565b5f604051905090565b5f80fd5b5f80fd5b5f819050919050565b61073281610720565b811461073c575f80fd5b50565b5f8135905061074d81610729565b92915050565b5f6020828403121561076857610767610718565b5b5f6107758482850161073f565b91505092915050565b5f81519050919050565b5f82825260208201905092915050565b8281835e5f83830152505050565b5f601f19601f8301169050919050565b5f6107c08261077e565b6107ca8185610788565b93506107da818560208601610798565b6107e3816107a6565b840191505092915050565b5f6040820190508181035f83015261080681856107b6565b9050818103602083015261081a81846107b6565b90509392505050565b5f81519050919050565b5f82825260208201905092915050565b5f819050602082019050919050565b5f82825260208201905092915050565b5f6108668261077e565b610870818561084c565b9350610880818560208601610798565b610889816107a6565b840191505092915050565b5f61089f838361085c565b905092915050565b5f602082019050919050565b5f6108bd82610823565b6108c7818561082d565b9350836020820285016108d98561083d565b805f5b8581101561091457848403895281516108f58582610894565b9450610900836108a7565b925060208a019950506001810190506108dc565b50829750879550505050505092915050565b5f6020820190508181035f83015261093e81846108b3565b905092915050565b5f80fd5b5f80fd5b7f4e487b71000000000000000000000000000000000000000000000000000000005f52604160045260245ffd5b610984826107a6565b810181811067ffffffffffffffff821117156109a3576109a261094e565b5b80604052505050565b5f6109b561070f565b90506109c1828261097b565b919050565b5f67ffffffffffffffff8211156109e0576109df61094e565b5b6109e9826107a6565b9050602081019050919050565b828183375f83830152505050565b5f610a16610a11846109c6565b6109ac565b905082815260208101848484011115610a3257610a3161094a565b5b610a3d8482856109f6565b509392505050565b5f82601f830112610a5957610a58610946565b5b8135610a69848260208601610a04565b91505092915050565b5f8060408385031215610a8857610a87610718565b5b5f83013567ffffffffffffffff811115610aa557610aa461071c565b5b610ab185828601610a45565b925050602083013567ffffffffffffffff811115610ad257610ad161071c565b5b610ade85828601610a45565b9150509250929050565b5f60208284031215610afd57610afc610718565b5b5f82013567ffffffffffffffff811115610b1a57610b1961071c565b5b610b2684828501610a45565b91505092915050565b5f6020820190508181035f830152610b4781846107b6565b905092915050565b5f81519050919050565b5f82825260208201905092915050565b5f819050602082019050919050565b5f604083015f8301518482035f860152610b92828261085c565b91505060208301518482036020860152610bac828261085c565b9150508091505092915050565b5f610bc48383610b78565b905092915050565b5f602082019050919050565b5f610be282610b4f565b610bec8185610b59565b935083602082028501610bfe85610b69565b805f5b85811015610c395784840389528151610c1a8582610bb9565b9450610c2583610bcc565b925060208a01995050600181019050610c01565b50829750879550505050505092915050565b5f6020820190508181035f830152610c638184610bd8565b905092915050565b610c7481610720565b82525050565b5f602082019050610c8d5f830184610c6b565b92915050565b7f4e487b71000000000000000000000000000000000000000000000000000000005f52602260045260245ffd5b5f6002820490506001821680610cd757607f821691505b602082108103610cea57610ce9610c93565b5b50919050565b5f819050815f5260205f209050919050565b5f6020601f8301049050919050565b5f82821b905092915050565b5f60088302610d4c7fffffffffffffffffffffffffffffffffffffffffffffffffffffffffffffffff82610d11565b610d568683610d11565b95508019841693508086168417925050509392505050565b5f819050919050565b5f610d91610d8c610d8784610720565b610d6e565b610720565b9050919050565b5f819050919050565b610daa83610d77565b610dbe610db682610d98565b848454610d1d565b825550505050565b5f90565b610dd2610dc6565b610ddd818484610da1565b505050565b5b81811015610e0057610df55f82610dca565b600181019050610de3565b5050565b601f821115610e4557610e1681610cf0565b610e1f84610d02565b81016020851015610e2e578190505b610e42610e3a85610d02565b830182610de2565b50505b505050565b5f82821c905092915050565b5f610e655f1984600802610e4a565b1980831691505092915050565b5f610e7d8383610e56565b9150826002028217905092915050565b610e968261077e565b67ffffffffffffffff811115610eaf57610eae61094e565b5b610eb98254610cc0565b610ec4828285610e04565b5f60209050601f831160018114610ef5575f8415610ee3578287015190505b610eed8582610e72565b865550610f54565b601f198416610f0386610cf0565b5f5b82811015610f2a57848901518255600182019150602085019450602081019050610f05565b86831015610f475784890151610f43601f891682610e56565b8355505b6001600288020188555050505b505050505050565b5f81905092915050565b5f610f708261077e565b610f7a8185610f5c565b9350610f8a818560208601610798565b80840191505092915050565b5f610fa18284610f66565b91508190509291505056fea2646970667358221220ca60521de51abd1c9162eb869f974db2d3f132f00085d903cb5aecbd8a5070cf64736f6c634300081a0033",
					"opcodes": "PUSH1 0x80 PUSH1 0x40 MSTORE PUSH1 0xF PUSH0 SSTORE CALLVALUE DUP1 ISZERO PUSH2 0x13 JUMPI PUSH0 DUP1 REVERT JUMPDEST POP PUSH1 0x1 DUP1 PUSH1 0x1 DUP2 SLOAD ADD DUP1 DUP3 SSTORE DUP1 SWAP2 POP POP PUSH1 0x1 SWAP1 SUB SWAP1 PUSH0 MSTORE PUSH1 0x20 PUSH0 KECCAK256 ADD PUSH0 PUSH1 0x40 MLOAD DUP1 PUSH1 0x40 ADD PUSH1 0x40 MSTORE DUP1 PUSH1 0x4 DUP2 MSTORE PUSH1 0x20 ADD PUSH32 0x4461796F00000000000000000000000000000000000000000000000000000000 DUP2 MSTORE POP SWAP1 SWAP2 SWAP1 SWAP2 POP SWAP1 DUP2 PUSH2 0x77 SWAP2 SWAP1 PUSH2 0x447 JUMP JUMPDEST POP PUSH1 0x1 DUP1 PUSH1 0x1 DUP2 SLOAD ADD DUP1 DUP3 SSTORE DUP1 SWAP2 POP POP PUSH1 0x1 SWAP1 SUB SWAP1 PUSH0 MSTORE PUSH1 0x20 PUSH0 KECCAK256 ADD PUSH0 PUSH1 0x40 MLOAD DUP1 PUSH1 0x40 ADD PUSH1 0x40 MSTORE DUP1 PUSH1 0x6 DUP2 MSTORE PUSH1 0x20 ADD PUSH32 0x4172696E7A650000000000000000000000000000000000000000000000000000 DUP2 MSTORE POP SWAP1 SWAP2 SWAP1 SWAP2 POP SWAP1 DUP2 PUSH2 0xDB SWAP2 SWAP1 PUSH2 0x447 JUMP JUMPDEST POP PUSH1 0x1 DUP1 PUSH1 0x1 DUP2 SLOAD ADD DUP1 DUP3 SSTORE DUP1 SWAP2 POP POP PUSH1 0x1 SWAP1 SUB SWAP1 PUSH0 MSTORE PUSH1 0x20 PUSH0 KECCAK256 ADD PUSH0 PUSH1 0x40 MLOAD DUP1 PUSH1 0x40 ADD PUSH1 0x40 MSTORE DUP1 PUSH1 0x6 DUP2 MSTORE PUSH1 0x20 ADD PUSH32 0x4E6B656E6E610000000000000000000000000000000000000000000000000000 DUP2 MSTORE POP SWAP1 SWAP2 SWAP1 SWAP2 POP SWAP1 DUP2 PUSH2 0x13F SWAP2 SWAP1 PUSH2 0x447 JUMP JUMPDEST POP PUSH1 0x1 DUP1 PUSH1 0x1 DUP2 SLOAD ADD DUP1 DUP3 SSTORE DUP1 SWAP2 POP POP PUSH1 0x1 SWAP1 SUB SWAP1 PUSH0 MSTORE PUSH1 0x20 PUSH0 KECCAK256 ADD PUSH0 PUSH1 0x40 MLOAD DUP1 PUSH1 0x40 ADD PUSH1 0x40 MSTORE DUP1 PUSH1 0x7 DUP2 MSTORE PUSH1 0x20 ADD PUSH32 0x54696D6F74687900000000000000000000000000000000000000000000000000 DUP2 MSTORE POP SWAP1 SWAP2 SWAP1 SWAP2 POP SWAP1 DUP2 PUSH2 0x1A3 SWAP2 SWAP1 PUSH2 0x447 JUMP JUMPDEST POP PUSH1 0x1 DUP1 PUSH1 0x1 DUP2 SLOAD ADD DUP1 DUP3 SSTORE DUP1 SWAP2 POP POP PUSH1 0x1 SWAP1 SUB SWAP1 PUSH0 MSTORE PUSH1 0x20 PUSH0 KECCAK256 ADD PUSH0 PUSH1 0x40 MLOAD DUP1 PUSH1 0x40 ADD PUSH1 0x40 MSTORE DUP1 PUSH1 0x7 DUP2 MSTORE PUSH1 0x20 ADD PUSH32 0x436861726C657300000000000000000000000000000000000000000000000000 DUP2 MSTORE POP SWAP1 SWAP2 SWAP1 SWAP2 POP SWAP1 DUP2 PUSH2 0x207 SWAP2 SWAP1 PUSH2 0x447 JUMP JUMPDEST POP PUSH2 0x516 JUMP JUMPDEST PUSH0 DUP2 MLOAD SWAP1 POP SWAP2 SWAP1 POP JUMP JUMPDEST PUSH32 0x4E487B7100000000000000000000000000000000000000000000000000000000 PUSH0 MSTORE PUSH1 0x41 PUSH1 0x4 MSTORE PUSH1 0x24 PUSH0 REVERT JUMPDEST PUSH32 0x4E487B7100000000000000000000000000000000000000000000000000000000 PUSH0 MSTORE PUSH1 0x22 PUSH1 0x4 MSTORE PUSH1 0x24 PUSH0 REVERT JUMPDEST PUSH0 PUSH1 0x2 DUP3 DIV SWAP1 POP PUSH1 0x1 DUP3 AND DUP1 PUSH2 0x288 JUMPI PUSH1 0x7F DUP3 AND SWAP2 POP JUMPDEST PUSH1 0x20 DUP3 LT DUP2 SUB PUSH2 0x29B JUMPI PUSH2 0x29A PUSH2 0x244 JUMP JUMPDEST JUMPDEST POP SWAP2 SWAP1 POP JUMP JUMPDEST PUSH0 DUP2 SWAP1 POP DUP2 PUSH0 MSTORE PUSH1 0x20 PUSH0 KECCAK256 SWAP1 POP SWAP2 SWAP1 POP JUMP JUMPDEST PUSH0 PUSH1 0x20 PUSH1 0x1F DUP4 ADD DIV SWAP1 POP SWAP2 SWAP1 POP JUMP JUMPDEST PUSH0 DUP3 DUP3 SHL SWAP1 POP SWAP3 SWAP2 POP POP JUMP JUMPDEST PUSH0 PUSH1 0x8 DUP4 MUL PUSH2 0x2FD PUSH32 0xFFFFFFFFFFFFFFFFFFFFFFFFFFFFFFFFFFFFFFFFFFFFFFFFFFFFFFFFFFFFFFFF DUP3 PUSH2 0x2C2 JUMP JUMPDEST PUSH2 0x307 DUP7 DUP4 PUSH2 0x2C2 JUMP JUMPDEST SWAP6 POP DUP1 NOT DUP5 AND SWAP4 POP DUP1 DUP7 AND DUP5 OR SWAP3 POP POP POP SWAP4 SWAP3 POP POP POP JUMP JUMPDEST PUSH0 DUP2 SWAP1 POP SWAP2 SWAP1 POP JUMP JUMPDEST PUSH0 DUP2 SWAP1 POP SWAP2 SWAP1 POP JUMP JUMPDEST PUSH0 PUSH2 0x34B PUSH2 0x346 PUSH2 0x341 DUP5 PUSH2 0x31F JUMP JUMPDEST PUSH2 0x328 JUMP JUMPDEST PUSH2 0x31F JUMP JUMPDEST SWAP1 POP SWAP2 SWAP1 POP JUMP JUMPDEST PUSH0 DUP2 SWAP1 POP SWAP2 SWAP1 POP JUMP JUMPDEST PUSH2 0x364 DUP4 PUSH2 0x331 JUMP JUMPDEST PUSH2 0x378 PUSH2 0x370 DUP3 PUSH2 0x352 JUMP JUMPDEST DUP5 DUP5 SLOAD PUSH2 0x2CE JUMP JUMPDEST DUP3 SSTORE POP POP POP POP JUMP JUMPDEST PUSH0 SWAP1 JUMP JUMPDEST PUSH2 0x38C PUSH2 0x380 JUMP JUMPDEST PUSH2 0x397 DUP2 DUP5 DUP5 PUSH2 0x35B JUMP JUMPDEST POP POP POP JUMP JUMPDEST JUMPDEST DUP2 DUP2 LT ISZERO PUSH2 0x3BA JUMPI PUSH2 0x3AF PUSH0 DUP3 PUSH2 0x384 JUMP JUMPDEST PUSH1 0x1 DUP2 ADD SWAP1 POP PUSH2 0x39D JUMP JUMPDEST POP POP JUMP JUMPDEST PUSH1 0x1F DUP3 GT ISZERO PUSH2 0x3FF JUMPI PUSH2 0x3D0 DUP2 PUSH2 0x2A1 JUMP JUMPDEST PUSH2 0x3D9 DUP5 PUSH2 0x2B3 JUMP JUMPDEST DUP2 ADD PUSH1 0x20 DUP6 LT ISZERO PUSH2 0x3E8 JUMPI DUP2 SWAP1 POP JUMPDEST PUSH2 0x3FC PUSH2 0x3F4 DUP6 PUSH2 0x2B3 JUMP JUMPDEST DUP4 ADD DUP3 PUSH2 0x39C JUMP JUMPDEST POP POP JUMPDEST POP POP POP JUMP JUMPDEST PUSH0 DUP3 DUP3 SHR SWAP1 POP SWAP3 SWAP2 POP POP JUMP JUMPDEST PUSH0 PUSH2 0x41F PUSH0 NOT DUP5 PUSH1 0x8 MUL PUSH2 0x404 JUMP JUMPDEST NOT DUP1 DUP4 AND SWAP2 POP POP SWAP3 SWAP2 POP POP JUMP JUMPDEST PUSH0 PUSH2 0x437 DUP4 DUP4 PUSH2 0x410 JUMP JUMPDEST SWAP2 POP DUP3 PUSH1 0x2 MUL DUP3 OR SWAP1 POP SWAP3 SWAP2 POP POP JUMP JUMPDEST PUSH2 0x450 DUP3 PUSH2 0x20D JUMP JUMPDEST PUSH8 0xFFFFFFFFFFFFFFFF DUP2 GT ISZERO PUSH2 0x469 JUMPI PUSH2 0x468 PUSH2 0x217 JUMP JUMPDEST JUMPDEST PUSH2 0x473 DUP3 SLOAD PUSH2 0x271 JUMP JUMPDEST PUSH2 0x47E DUP3 DUP3 DUP6 PUSH2 0x3BE JUMP JUMPDEST PUSH0 PUSH1 0x20 SWAP1 POP PUSH1 0x1F DUP4 GT PUSH1 0x1 DUP2 EQ PUSH2 0x4AF JUMPI PUSH0 DUP5 ISZERO PUSH2 0x49D JUMPI DUP3 DUP8 ADD MLOAD SWAP1 POP JUMPDEST PUSH2 0x4A7 DUP6 DUP3 PUSH2 0x42C JUMP JUMPDEST DUP7 SSTORE POP PUSH2 0x50E JUMP JUMPDEST PUSH1 0x1F NOT DUP5 AND PUSH2 0x4BD DUP7 PUSH2 0x2A1 JUMP JUMPDEST PUSH0 JUMPDEST DUP3 DUP2 LT ISZERO PUSH2 0x4E4 JUMPI DUP5 DUP10 ADD MLOAD DUP3 SSTORE PUSH1 0x1 DUP3 ADD SWAP2 POP PUSH1 0x20 DUP6 ADD SWAP5 POP PUSH1 0x20 DUP2 ADD SWAP1 POP PUSH2 0x4BF JUMP JUMPDEST DUP7 DUP4 LT ISZERO PUSH2 0x501 JUMPI DUP5 DUP10 ADD MLOAD PUSH2 0x4FD PUSH1 0x1F DUP10 AND DUP3 PUSH2 0x410 JUMP JUMPDEST DUP4 SSTORE POP JUMPDEST PUSH1 0x1 PUSH1 0x2 DUP9 MUL ADD DUP9 SSTORE POP POP POP JUMPDEST POP POP POP POP POP POP JUMP JUMPDEST PUSH2 0xFE2 DUP1 PUSH2 0x523 PUSH0 CODECOPY PUSH0 RETURN INVALID PUSH1 0x80 PUSH1 0x40 MSTORE CALLVALUE DUP1 ISZERO PUSH2 0xF JUMPI PUSH0 DUP1 REVERT JUMPDEST POP PUSH1 0x4 CALLDATASIZE LT PUSH2 0x7B JUMPI PUSH0 CALLDATALOAD PUSH1 0xE0 SHR DUP1 PUSH4 0x7054010A GT PUSH2 0x59 JUMPI DUP1 PUSH4 0x7054010A EQ PUSH2 0xEA JUMPI DUP1 PUSH4 0xB8522043 EQ PUSH2 0x11A JUMPI DUP1 PUSH4 0xF2C9ECD8 EQ PUSH2 0x138 JUMPI DUP1 PUSH4 0xF52AEE1D EQ PUSH2 0x156 JUMPI PUSH2 0x7B JUMP JUMPDEST DUP1 PUSH4 0x365B98B2 EQ PUSH2 0x7F JUMPI DUP1 PUSH4 0x42B2378A EQ PUSH2 0xB0 JUMPI DUP1 PUSH4 0x579E4138 EQ PUSH2 0xCE JUMPI JUMPDEST PUSH0 DUP1 REVERT JUMPDEST PUSH2 0x99 PUSH1 0x4 DUP1 CALLDATASIZE SUB DUP2 ADD SWAP1 PUSH2 0x94 SWAP2 SWAP1 PUSH2 0x753 JUMP JUMPDEST PUSH2 0x186 JUMP JUMPDEST PUSH1 0x40 MLOAD PUSH2 0xA7 SWAP3 SWAP2 SWAP1 PUSH2 0x7EE JUMP JUMPDEST PUSH1 0x40 MLOAD DUP1 SWAP2 SUB SWAP1 RETURN JUMPDEST PUSH2 0xB8 PUSH2 0x2C1 JUMP JUMPDEST PUSH1 0x40 MLOAD PUSH2 0xC5 SWAP2 SWAP1 PUSH2 0x926 JUMP JUMPDEST PUSH1 0x40 MLOAD DUP1 SWAP2 SUB SWAP1 RETURN JUMPDEST PUSH2 0xE8 PUSH1 0x4 DUP1 CALLDATASIZE SUB DUP2 ADD SWAP1 PUSH2 0xE3 SWAP2 SWAP1 PUSH2 0xA72 JUMP JUMPDEST PUSH2 0x395 JUMP JUMPDEST STOP JUMPDEST PUSH2 0x104 PUSH1 0x4 DUP1 CALLDATASIZE SUB DUP2 ADD SWAP1 PUSH2 0xFF SWAP2 SWAP1 PUSH2 0xAE8 JUMP JUMPDEST PUSH2 0x433 JUMP JUMPDEST PUSH1 0x40 MLOAD PUSH2 0x111 SWAP2 SWAP1 PUSH2 0xB2F JUMP JUMPDEST PUSH1 0x40 MLOAD DUP1 SWAP2 SUB SWAP1 RETURN JUMPDEST PUSH2 0x122 PUSH2 0x4E6 JUMP JUMPDEST PUSH1 0x40 MLOAD PUSH2 0x12F SWAP2 SWAP1 PUSH2 0xC4B JUMP JUMPDEST PUSH1 0x40 MLOAD DUP1 SWAP2 SUB SWAP1 RETURN JUMPDEST PUSH2 0x140 PUSH2 0x661 JUMP JUMPDEST PUSH1 0x40 MLOAD PUSH2 0x14D SWAP2 SWAP1 PUSH2 0xC7A JUMP JUMPDEST PUSH1 0x40 MLOAD DUP1 SWAP2 SUB SWAP1 RETURN JUMPDEST PUSH2 0x170 PUSH1 0x4 DUP1 CALLDATASIZE SUB DUP2 ADD SWAP1 PUSH2 0x16B SWAP2 SWAP1 PUSH2 0x753 JUMP JUMPDEST PUSH2 0x669 JUMP JUMPDEST PUSH1 0x40 MLOAD PUSH2 0x17D SWAP2 SWAP1 PUSH2 0xB2F JUMP JUMPDEST PUSH1 0x40 MLOAD DUP1 SWAP2 SUB SWAP1 RETURN JUMPDEST PUSH1 0x2 DUP2 DUP2 SLOAD DUP2 LT PUSH2 0x195 JUMPI PUSH0 DUP1 REVERT JUMPDEST SWAP1 PUSH0 MSTORE PUSH1 0x20 PUSH0 KECCAK256 SWAP1 PUSH1 0x2 MUL ADD PUSH0 SWAP2 POP SWAP1 POP DUP1 PUSH0 ADD DUP1 SLOAD PUSH2 0x1B4 SWAP1 PUSH2 0xCC0 JUMP JUMPDEST DUP1 PUSH1 0x1F ADD PUSH1 0x20 DUP1 SWAP2 DIV MUL PUSH1 0x20 ADD PUSH1 0x40 MLOAD SWAP1 DUP2 ADD PUSH1 0x40 MSTORE DUP1 SWAP3 SWAP2 SWAP1 DUP2 DUP2 MSTORE PUSH1 0x20 ADD DUP3 DUP1 SLOAD PUSH2 0x1E0 SWAP1 PUSH2 0xCC0 JUMP JUMPDEST DUP1 ISZERO PUSH2 0x22B JUMPI DUP1 PUSH1 0x1F LT PUSH2 0x202 JUMPI PUSH2 0x100 DUP1 DUP4 SLOAD DIV MUL DUP4 MSTORE SWAP2 PUSH1 0x20 ADD SWAP2 PUSH2 0x22B JUMP JUMPDEST DUP3 ADD SWAP2 SWAP1 PUSH0 MSTORE PUSH1 0x20 PUSH0 KECCAK256 SWAP1 JUMPDEST DUP2 SLOAD DUP2 MSTORE SWAP1 PUSH1 0x1 ADD SWAP1 PUSH1 0x20 ADD DUP1 DUP4 GT PUSH2 0x20E JUMPI DUP3 SWAP1 SUB PUSH1 0x1F AND DUP3 ADD SWAP2 JUMPDEST POP POP POP POP POP SWAP1 DUP1 PUSH1 0x1 ADD DUP1 SLOAD PUSH2 0x240 SWAP1 PUSH2 0xCC0 JUMP JUMPDEST DUP1 PUSH1 0x1F ADD PUSH1 0x20 DUP1 SWAP2 DIV MUL PUSH1 0x20 ADD PUSH1 0x40 MLOAD SWAP1 DUP2 ADD PUSH1 0x40 MSTORE DUP1 SWAP3 SWAP2 SWAP1 DUP2 DUP2 MSTORE PUSH1 0x20 ADD DUP3 DUP1 SLOAD PUSH2 0x26C SWAP1 PUSH2 0xCC0 JUMP JUMPDEST DUP1 ISZERO PUSH2 0x2B7 JUMPI DUP1 PUSH1 0x1F LT PUSH2 0x28E JUMPI PUSH2 0x100 DUP1 DUP4 SLOAD DIV MUL DUP4 MSTORE SWAP2 PUSH1 0x20 ADD SWAP2 PUSH2 0x2B7 JUMP JUMPDEST DUP3 ADD SWAP2 SWAP1 PUSH0 MSTORE PUSH1 0x20 PUSH0 KECCAK256 SWAP1 JUMPDEST DUP2 SLOAD DUP2 MSTORE SWAP1 PUSH1 0x1 ADD SWAP1 PUSH1 0x20 ADD DUP1 DUP4 GT PUSH2 0x29A JUMPI DUP3 SWAP1 SUB PUSH1 0x1F AND DUP3 ADD SWAP2 JUMPDEST POP POP POP POP POP SWAP1 POP DUP3 JUMP JUMPDEST PUSH1 0x60 PUSH1 0x1 DUP1 SLOAD DUP1 PUSH1 0x20 MUL PUSH1 0x20 ADD PUSH1 0x40 MLOAD SWAP1 DUP2 ADD PUSH1 0x40 MSTORE DUP1 SWAP3 SWAP2 SWAP1 DUP2 DUP2 MSTORE PUSH1 0x20 ADD PUSH0 SWAP1 JUMPDEST DUP3 DUP3 LT ISZERO PUSH2 0x38C JUMPI DUP4 DUP3 SWAP1 PUSH0 MSTORE PUSH1 0x20 PUSH0 KECCAK256 ADD DUP1 SLOAD PUSH2 0x301 SWAP1 PUSH2 0xCC0 JUMP JUMPDEST DUP1 PUSH1 0x1F ADD PUSH1 0x20 DUP1 SWAP2 DIV MUL PUSH1 0x20 ADD PUSH1 0x40 MLOAD SWAP1 DUP2 ADD PUSH1 0x40 MSTORE DUP1 SWAP3 SWAP2 SWAP1 DUP2 DUP2 MSTORE PUSH1 0x20 ADD DUP3 DUP1 SLOAD PUSH2 0x32D SWAP1 PUSH2 0xCC0 JUMP JUMPDEST DUP1 ISZERO PUSH2 0x378 JUMPI DUP1 PUSH1 0x1F LT PUSH2 0x34F JUMPI PUSH2 0x100 DUP1 DUP4 SLOAD DIV MUL DUP4 MSTORE SWAP2 PUSH1 0x20 ADD SWAP2 PUSH2 0x378 JUMP JUMPDEST DUP3 ADD SWAP2 SWAP1 PUSH0 MSTORE PUSH1 0x20 PUSH0 KECCAK256 SWAP1 JUMPDEST DUP2 SLOAD DUP2 MSTORE SWAP1 PUSH1 0x1 ADD SWAP1 PUSH1 0x20 ADD DUP1 DUP4 GT PUSH2 0x35B JUMPI DUP3 SWAP1 SUB PUSH1 0x1F AND DUP3 ADD SWAP2 JUMPDEST POP POP POP POP POP DUP2 MSTORE PUSH1 0x20 ADD SWAP1 PUSH1 0x1 ADD SWAP1 PUSH2 0x2E4 JUMP JUMPDEST POP POP POP POP SWAP1 POP SWAP1 JUMP JUMPDEST PUSH0 PUSH1 0x40 MLOAD DUP1 PUSH1 0x40 ADD PUSH1 0x40 MSTORE DUP1 DUP5 DUP2 MSTORE PUSH1 0x20 ADD DUP4 DUP2 MSTORE POP SWAP1 POP PUSH1 0x2 DUP2 SWAP1 DUP1 PUSH1 0x1 DUP2 SLOAD ADD DUP1 DUP3 SSTORE DUP1 SWAP2 POP POP PUSH1 0x1 SWAP1 SUB SWAP1 PUSH0 MSTORE PUSH1 0x20 PUSH0 KECCAK256 SWAP1 PUSH1 0x2 MUL ADD PUSH0 SWAP1 SWAP2 SWAP1 SWAP2 SWAP1 SWAP2 POP PUSH0 DUP3 ADD MLOAD DUP2 PUSH0 ADD SWAP1 DUP2 PUSH2 0x3E9 SWAP2 SWAP1 PUSH2 0xE8D JUMP JUMPDEST POP PUSH1 0x20 DUP3 ADD MLOAD DUP2 PUSH1 0x1 ADD SWAP1 DUP2 PUSH2 0x3FF SWAP2 SWAP1 PUSH2 0xE8D JUMP JUMPDEST POP POP POP DUP2 PUSH1 0x3 DUP5 PUSH1 0x40 MLOAD PUSH2 0x413 SWAP2 SWAP1 PUSH2 0xF96 JUMP JUMPDEST SWAP1 DUP2 MSTORE PUSH1 0x20 ADD PUSH1 0x40 MLOAD DUP1 SWAP2 SUB SWAP1 KECCAK256 SWAP1 DUP2 PUSH2 0x42D SWAP2 SWAP1 PUSH2 0xE8D JUMP JUMPDEST POP POP POP POP JUMP JUMPDEST PUSH1 0x3 DUP2 DUP1 MLOAD PUSH1 0x20 DUP2 ADD DUP3 ADD DUP1 MLOAD DUP5 DUP3 MSTORE PUSH1 0x20 DUP4 ADD PUSH1 0x20 DUP6 ADD KECCAK256 DUP2 DUP4 MSTORE DUP1 SWAP6 POP POP POP POP POP POP PUSH0 SWAP2 POP SWAP1 POP DUP1 SLOAD PUSH2 0x467 SWAP1 PUSH2 0xCC0 JUMP JUMPDEST DUP1 PUSH1 0x1F ADD PUSH1 0x20 DUP1 SWAP2 DIV MUL PUSH1 0x20 ADD PUSH1 0x40 MLOAD SWAP1 DUP2 ADD PUSH1 0x40 MSTORE DUP1 SWAP3 SWAP2 SWAP1 DUP2 DUP2 MSTORE PUSH1 0x20 ADD DUP3 DUP1 SLOAD PUSH2 0x493 SWAP1 PUSH2 0xCC0 JUMP JUMPDEST DUP1 ISZERO PUSH2 0x4DE JUMPI DUP1 PUSH1 0x1F LT PUSH2 0x4B5 JUMPI PUSH2 0x100 DUP1 DUP4 SLOAD DIV MUL DUP4 MSTORE SWAP2 PUSH1 0x20 ADD SWAP2 PUSH2 0x4DE JUMP JUMPDEST DUP3 ADD SWAP2 SWAP1 PUSH0 MSTORE PUSH1 0x20 PUSH0 KECCAK256 SWAP1 JUMPDEST DUP2 SLOAD DUP2 MSTORE SWAP1 PUSH1 0x1 ADD SWAP1 PUSH1 0x20 ADD DUP1 DUP4 GT PUSH2 0x4C1 JUMPI DUP3 SWAP1 SUB PUSH1 0x1F AND DUP3 ADD SWAP2 JUMPDEST POP POP POP POP POP DUP2 JUMP JUMPDEST PUSH1 0x60 PUSH1 0x2 DUP1 SLOAD DUP1 PUSH1 0x20 MUL PUSH1 0x20 ADD PUSH1 0x40 MLOAD SWAP1 DUP2 ADD PUSH1 0x40 MSTORE DUP1 SWAP3 SWAP2 SWAP1 DUP2 DUP2 MSTORE PUSH1 0x20 ADD PUSH0 SWAP1 JUMPDEST DUP3 DUP3 LT ISZERO PUSH2 0x658 JUMPI DUP4 DUP3 SWAP1 PUSH0 MSTORE PUSH1 0x20 PUSH0 KECCAK256 SWAP1 PUSH1 0x2 MUL ADD PUSH1 0x40 MLOAD DUP1 PUSH1 0x40 ADD PUSH1 0x40 MSTORE SWAP1 DUP2 PUSH0 DUP3 ADD DUP1 SLOAD PUSH2 0x539 SWAP1 PUSH2 0xCC0 JUMP JUMPDEST DUP1 PUSH1 0x1F ADD PUSH1 0x20 DUP1 SWAP2 DIV MUL PUSH1 0x20 ADD PUSH1 0x40 MLOAD SWAP1 DUP2 ADD PUSH1 0x40 MSTORE DUP1 SWAP3 SWAP2 SWAP1 DUP2 DUP2 MSTORE PUSH1 0x20 ADD DUP3 DUP1 SLOAD PUSH2 0x565 SWAP1 PUSH2 0xCC0 JUMP JUMPDEST DUP1 ISZERO PUSH2 0x5B0 JUMPI DUP1 PUSH1 0x1F LT PUSH2 0x587 JUMPI PUSH2 0x100 DUP1 DUP4 SLOAD DIV MUL DUP4 MSTORE SWAP2 PUSH1 0x20 ADD SWAP2 PUSH2 0x5B0 JUMP JUMPDEST DUP3 ADD SWAP2 SWAP1 PUSH0 MSTORE PUSH1 0x20 PUSH0 KECCAK256 SWAP1 JUMPDEST DUP2 SLOAD DUP2 MSTORE SWAP1 PUSH1 0x1 ADD SWAP1 PUSH1 0x20 ADD DUP1 DUP4 GT PUSH2 0x593 JUMPI DUP3 SWAP1 SUB PUSH1 0x1F AND DUP3 ADD SWAP2 JUMPDEST POP POP POP POP POP DUP2 MSTORE PUSH1 0x20 ADD PUSH1 0x1 DUP3 ADD DUP1 SLOAD PUSH2 0x5C9 SWAP1 PUSH2 0xCC0 JUMP JUMPDEST DUP1 PUSH1 0x1F ADD PUSH1 0x20 DUP1 SWAP2 DIV MUL PUSH1 0x20 ADD PUSH1 0x40 MLOAD SWAP1 DUP2 ADD PUSH1 0x40 MSTORE DUP1 SWAP3 SWAP2 SWAP1 DUP2 DUP2 MSTORE PUSH1 0x20 ADD DUP3 DUP1 SLOAD PUSH2 0x5F5 SWAP1 PUSH2 0xCC0 JUMP JUMPDEST DUP1 ISZERO PUSH2 0x640 JUMPI DUP1 PUSH1 0x1F LT PUSH2 0x617 JUMPI PUSH2 0x100 DUP1 DUP4 SLOAD DIV MUL DUP4 MSTORE SWAP2 PUSH1 0x20 ADD SWAP2 PUSH2 0x640 JUMP JUMPDEST DUP3 ADD SWAP2 SWAP1 PUSH0 MSTORE PUSH1 0x20 PUSH0 KECCAK256 SWAP1 JUMPDEST DUP2 SLOAD DUP2 MSTORE SWAP1 PUSH1 0x1 ADD SWAP1 PUSH1 0x20 ADD DUP1 DUP4 GT PUSH2 0x623 JUMPI DUP3 SWAP1 SUB PUSH1 0x1F AND DUP3 ADD SWAP2 JUMPDEST POP POP POP POP POP DUP2 MSTORE POP POP DUP2 MSTORE PUSH1 0x20 ADD SWAP1 PUSH1 0x1 ADD SWAP1 PUSH2 0x509 JUMP JUMPDEST POP POP POP POP SWAP1 POP SWAP1 JUMP JUMPDEST PUSH0 DUP1 SLOAD SWAP1 POP SWAP1 JUMP JUMPDEST PUSH1 0x1 DUP2 DUP2 SLOAD DUP2 LT PUSH2 0x678 JUMPI PUSH0 DUP1 REVERT JUMPDEST SWAP1 PUSH0 MSTORE PUSH1 0x20 PUSH0 KECCAK256 ADD PUSH0 SWAP2 POP SWAP1 POP DUP1 SLOAD PUSH2 0x690 SWAP1 PUSH2 0xCC0 JUMP JUMPDEST DUP1 PUSH1 0x1F ADD PUSH1 0x20 DUP1 SWAP2 DIV MUL PUSH1 0x20 ADD PUSH1 0x40 MLOAD SWAP1 DUP2 ADD PUSH1 0x40 MSTORE DUP1 SWAP3 SWAP2 SWAP1 DUP2 DUP2 MSTORE PUSH1 0x20 ADD DUP3 DUP1 SLOAD PUSH2 0x6BC SWAP1 PUSH2 0xCC0 JUMP JUMPDEST DUP1 ISZERO PUSH2 0x707 JUMPI DUP1 PUSH1 0x1F LT PUSH2 0x6DE JUMPI PUSH2 0x100 DUP1 DUP4 SLOAD DIV MUL DUP4 MSTORE SWAP2 PUSH1 0x20 ADD SWAP2 PUSH2 0x707 JUMP JUMPDEST DUP3 ADD SWAP2 SWAP1 PUSH0 MSTORE PUSH1 0x20 PUSH0 KECCAK256 SWAP1 JUMPDEST DUP2 SLOAD DUP2 MSTORE SWAP1 PUSH1 0x1 ADD SWAP1 PUSH1 0x20 ADD DUP1 DUP4 GT PUSH2 0x6EA JUMPI DUP3 SWAP1 SUB PUSH1 0x1F AND DUP3 ADD SWAP2 JUMPDEST POP POP POP POP POP DUP2 JUMP JUMPDEST PUSH0 PUSH1 0x40 MLOAD SWAP1 POP SWAP1 JUMP JUMPDEST PUSH0 DUP1 REVERT JUMPDEST PUSH0 DUP1 REVERT JUMPDEST PUSH0 DUP2 SWAP1 POP SWAP2 SWAP1 POP JUMP JUMPDEST PUSH2 0x732 DUP2 PUSH2 0x720 JUMP JUMPDEST DUP2 EQ PUSH2 0x73C JUMPI PUSH0 DUP1 REVERT JUMPDEST POP JUMP JUMPDEST PUSH0 DUP2 CALLDATALOAD SWAP1 POP PUSH2 0x74D DUP2 PUSH2 0x729 JUMP JUMPDEST SWAP3 SWAP2 POP POP JUMP JUMPDEST PUSH0 PUSH1 0x20 DUP3 DUP5 SUB SLT ISZERO PUSH2 0x768 JUMPI PUSH2 0x767 PUSH2 0x718 JUMP JUMPDEST JUMPDEST PUSH0 PUSH2 0x775 DUP5 DUP3 DUP6 ADD PUSH2 0x73F JUMP JUMPDEST SWAP2 POP POP SWAP3 SWAP2 POP POP JUMP JUMPDEST PUSH0 DUP2 MLOAD SWAP1 POP SWAP2 SWAP1 POP JUMP JUMPDEST PUSH0 DUP3 DUP3 MSTORE PUSH1 0x20 DUP3 ADD SWAP1 POP SWAP3 SWAP2 POP POP JUMP JUMPDEST DUP3 DUP2 DUP4 MCOPY PUSH0 DUP4 DUP4 ADD MSTORE POP POP POP JUMP JUMPDEST PUSH0 PUSH1 0x1F NOT PUSH1 0x1F DUP4 ADD AND SWAP1 POP SWAP2 SWAP1 POP JUMP JUMPDEST PUSH0 PUSH2 0x7C0 DUP3 PUSH2 0x77E JUMP JUMPDEST PUSH2 0x7CA DUP2 DUP6 PUSH2 0x788 JUMP JUMPDEST SWAP4 POP PUSH2 0x7DA DUP2 DUP6 PUSH1 0x20 DUP7 ADD PUSH2 0x798 JUMP JUMPDEST PUSH2 0x7E3 DUP2 PUSH2 0x7A6 JUMP JUMPDEST DUP5 ADD SWAP2 POP POP SWAP3 SWAP2 POP POP JUMP JUMPDEST PUSH0 PUSH1 0x40 DUP3 ADD SWAP1 POP DUP2 DUP2 SUB PUSH0 DUP4 ADD MSTORE PUSH2 0x806 DUP2 DUP6 PUSH2 0x7B6 JUMP JUMPDEST SWAP1 POP DUP2 DUP2 SUB PUSH1 0x20 DUP4 ADD MSTORE PUSH2 0x81A DUP2 DUP5 PUSH2 0x7B6 JUMP JUMPDEST SWAP1 POP SWAP4 SWAP3 POP POP POP JUMP JUMPDEST PUSH0 DUP2 MLOAD SWAP1 POP SWAP2 SWAP1 POP JUMP JUMPDEST PUSH0 DUP3 DUP3 MSTORE PUSH1 0x20 DUP3 ADD SWAP1 POP SWAP3 SWAP2 POP POP JUMP JUMPDEST PUSH0 DUP2 SWAP1 POP PUSH1 0x20 DUP3 ADD SWAP1 POP SWAP2 SWAP1 POP JUMP JUMPDEST PUSH0 DUP3 DUP3 MSTORE PUSH1 0x20 DUP3 ADD SWAP1 POP SWAP3 SWAP2 POP POP JUMP JUMPDEST PUSH0 PUSH2 0x866 DUP3 PUSH2 0x77E JUMP JUMPDEST PUSH2 0x870 DUP2 DUP6 PUSH2 0x84C JUMP JUMPDEST SWAP4 POP PUSH2 0x880 DUP2 DUP6 PUSH1 0x20 DUP7 ADD PUSH2 0x798 JUMP JUMPDEST PUSH2 0x889 DUP2 PUSH2 0x7A6 JUMP JUMPDEST DUP5 ADD SWAP2 POP POP SWAP3 SWAP2 POP POP JUMP JUMPDEST PUSH0 PUSH2 0x89F DUP4 DUP4 PUSH2 0x85C JUMP JUMPDEST SWAP1 POP SWAP3 SWAP2 POP POP JUMP JUMPDEST PUSH0 PUSH1 0x20 DUP3 ADD SWAP1 POP SWAP2 SWAP1 POP JUMP JUMPDEST PUSH0 PUSH2 0x8BD DUP3 PUSH2 0x823 JUMP JUMPDEST PUSH2 0x8C7 DUP2 DUP6 PUSH2 0x82D JUMP JUMPDEST SWAP4 POP DUP4 PUSH1 0x20 DUP3 MUL DUP6 ADD PUSH2 0x8D9 DUP6 PUSH2 0x83D JUMP JUMPDEST DUP1 PUSH0 JUMPDEST DUP6 DUP2 LT ISZERO PUSH2 0x914 JUMPI DUP5 DUP5 SUB DUP10 MSTORE DUP2 MLOAD PUSH2 0x8F5 DUP6 DUP3 PUSH2 0x894 JUMP JUMPDEST SWAP5 POP PUSH2 0x900 DUP4 PUSH2 0x8A7 JUMP JUMPDEST SWAP3 POP PUSH1 0x20 DUP11 ADD SWAP10 POP POP PUSH1 0x1 DUP2 ADD SWAP1 POP PUSH2 0x8DC JUMP JUMPDEST POP DUP3 SWAP8 POP DUP8 SWAP6 POP POP POP POP POP POP SWAP3 SWAP2 POP POP JUMP JUMPDEST PUSH0 PUSH1 0x20 DUP3 ADD SWAP1 POP DUP2 DUP2 SUB PUSH0 DUP4 ADD MSTORE PUSH2 0x93E DUP2 DUP5 PUSH2 0x8B3 JUMP JUMPDEST SWAP1 POP SWAP3 SWAP2 POP POP JUMP JUMPDEST PUSH0 DUP1 REVERT JUMPDEST PUSH0 DUP1 REVERT JUMPDEST PUSH32 0x4E487B7100000000000000000000000000000000000000000000000000000000 PUSH0 MSTORE PUSH1 0x41 PUSH1 0x4 MSTORE PUSH1 0x24 PUSH0 REVERT JUMPDEST PUSH2 0x984 DUP3 PUSH2 0x7A6 JUMP JUMPDEST DUP2 ADD DUP2 DUP2 LT PUSH8 0xFFFFFFFFFFFFFFFF DUP3 GT OR ISZERO PUSH2 0x9A3 JUMPI PUSH2 0x9A2 PUSH2 0x94E JUMP JUMPDEST JUMPDEST DUP1 PUSH1 0x40 MSTORE POP POP POP JUMP JUMPDEST PUSH0 PUSH2 0x9B5 PUSH2 0x70F JUMP JUMPDEST SWAP1 POP PUSH2 0x9C1 DUP3 DUP3 PUSH2 0x97B JUMP JUMPDEST SWAP2 SWAP1 POP JUMP JUMPDEST PUSH0 PUSH8 0xFFFFFFFFFFFFFFFF DUP3 GT ISZERO PUSH2 0x9E0 JUMPI PUSH2 0x9DF PUSH2 0x94E JUMP JUMPDEST JUMPDEST PUSH2 0x9E9 DUP3 PUSH2 0x7A6 JUMP JUMPDEST SWAP1 POP PUSH1 0x20 DUP2 ADD SWAP1 POP SWAP2 SWAP1 POP JUMP JUMPDEST DUP3 DUP2 DUP4 CALLDATACOPY PUSH0 DUP4 DUP4 ADD MSTORE POP POP POP JUMP JUMPDEST PUSH0 PUSH2 0xA16 PUSH2 0xA11 DUP5 PUSH2 0x9C6 JUMP JUMPDEST PUSH2 0x9AC JUMP JUMPDEST SWAP1 POP DUP3 DUP2 MSTORE PUSH1 0x20 DUP2 ADD DUP5 DUP5 DUP5 ADD GT ISZERO PUSH2 0xA32 JUMPI PUSH2 0xA31 PUSH2 0x94A JUMP JUMPDEST JUMPDEST PUSH2 0xA3D DUP5 DUP3 DUP6 PUSH2 0x9F6 JUMP JUMPDEST POP SWAP4 SWAP3 POP POP POP JUMP JUMPDEST PUSH0 DUP3 PUSH1 0x1F DUP4 ADD SLT PUSH2 0xA59 JUMPI PUSH2 0xA58 PUSH2 0x946 JUMP JUMPDEST JUMPDEST DUP2 CALLDATALOAD PUSH2 0xA69 DUP5 DUP3 PUSH1 0x20 DUP7 ADD PUSH2 0xA04 JUMP JUMPDEST SWAP2 POP POP SWAP3 SWAP2 POP POP JUMP JUMPDEST PUSH0 DUP1 PUSH1 0x40 DUP4 DUP6 SUB SLT ISZERO PUSH2 0xA88 JUMPI PUSH2 0xA87 PUSH2 0x718 JUMP JUMPDEST JUMPDEST PUSH0 DUP4 ADD CALLDATALOAD PUSH8 0xFFFFFFFFFFFFFFFF DUP2 GT ISZERO PUSH2 0xAA5 JUMPI PUSH2 0xAA4 PUSH2 0x71C JUMP JUMPDEST JUMPDEST PUSH2 0xAB1 DUP6 DUP3 DUP7 ADD PUSH2 0xA45 JUMP JUMPDEST SWAP3 POP POP PUSH1 0x20 DUP4 ADD CALLDATALOAD PUSH8 0xFFFFFFFFFFFFFFFF DUP2 GT ISZERO PUSH2 0xAD2 JUMPI PUSH2 0xAD1 PUSH2 0x71C JUMP JUMPDEST JUMPDEST PUSH2 0xADE DUP6 DUP3 DUP7 ADD PUSH2 0xA45 JUMP JUMPDEST SWAP2 POP POP SWAP3 POP SWAP3 SWAP1 POP JUMP JUMPDEST PUSH0 PUSH1 0x20 DUP3 DUP5 SUB SLT ISZERO PUSH2 0xAFD JUMPI PUSH2 0xAFC PUSH2 0x718 JUMP JUMPDEST JUMPDEST PUSH0 DUP3 ADD CALLDATALOAD PUSH8 0xFFFFFFFFFFFFFFFF DUP2 GT ISZERO PUSH2 0xB1A JUMPI PUSH2 0xB19 PUSH2 0x71C JUMP JUMPDEST JUMPDEST PUSH2 0xB26 DUP5 DUP3 DUP6 ADD PUSH2 0xA45 JUMP JUMPDEST SWAP2 POP POP SWAP3 SWAP2 POP POP JUMP JUMPDEST PUSH0 PUSH1 0x20 DUP3 ADD SWAP1 POP DUP2 DUP2 SUB PUSH0 DUP4 ADD MSTORE PUSH2 0xB47 DUP2 DUP5 PUSH2 0x7B6 JUMP JUMPDEST SWAP1 POP SWAP3 SWAP2 POP POP JUMP JUMPDEST PUSH0 DUP2 MLOAD SWAP1 POP SWAP2 SWAP1 POP JUMP JUMPDEST PUSH0 DUP3 DUP3 MSTORE PUSH1 0x20 DUP3 ADD SWAP1 POP SWAP3 SWAP2 POP POP JUMP JUMPDEST PUSH0 DUP2 SWAP1 POP PUSH1 0x20 DUP3 ADD SWAP1 POP SWAP2 SWAP1 POP JUMP JUMPDEST PUSH0 PUSH1 0x40 DUP4 ADD PUSH0 DUP4 ADD MLOAD DUP5 DUP3 SUB PUSH0 DUP7 ADD MSTORE PUSH2 0xB92 DUP3 DUP3 PUSH2 0x85C JUMP JUMPDEST SWAP2 POP POP PUSH1 0x20 DUP4 ADD MLOAD DUP5 DUP3 SUB PUSH1 0x20 DUP7 ADD MSTORE PUSH2 0xBAC DUP3 DUP3 PUSH2 0x85C JUMP JUMPDEST SWAP2 POP POP DUP1 SWAP2 POP POP SWAP3 SWAP2 POP POP JUMP JUMPDEST PUSH0 PUSH2 0xBC4 DUP4 DUP4 PUSH2 0xB78 JUMP JUMPDEST SWAP1 POP SWAP3 SWAP2 POP POP JUMP JUMPDEST PUSH0 PUSH1 0x20 DUP3 ADD SWAP1 POP SWAP2 SWAP1 POP JUMP JUMPDEST PUSH0 PUSH2 0xBE2 DUP3 PUSH2 0xB4F JUMP JUMPDEST PUSH2 0xBEC DUP2 DUP6 PUSH2 0xB59 JUMP JUMPDEST SWAP4 POP DUP4 PUSH1 0x20 DUP3 MUL DUP6 ADD PUSH2 0xBFE DUP6 PUSH2 0xB69 JUMP JUMPDEST DUP1 PUSH0 JUMPDEST DUP6 DUP2 LT ISZERO PUSH2 0xC39 JUMPI DUP5 DUP5 SUB DUP10 MSTORE DUP2 MLOAD PUSH2 0xC1A DUP6 DUP3 PUSH2 0xBB9 JUMP JUMPDEST SWAP5 POP PUSH2 0xC25 DUP4 PUSH2 0xBCC JUMP JUMPDEST SWAP3 POP PUSH1 0x20 DUP11 ADD SWAP10 POP POP PUSH1 0x1 DUP2 ADD SWAP1 POP PUSH2 0xC01 JUMP JUMPDEST POP DUP3 SWAP8 POP DUP8 SWAP6 POP POP POP POP POP POP SWAP3 SWAP2 POP POP JUMP JUMPDEST PUSH0 PUSH1 0x20 DUP3 ADD SWAP1 POP DUP2 DUP2 SUB PUSH0 DUP4 ADD MSTORE PUSH2 0xC63 DUP2 DUP5 PUSH2 0xBD8 JUMP JUMPDEST SWAP1 POP SWAP3 SWAP2 POP POP JUMP JUMPDEST PUSH2 0xC74 DUP2 PUSH2 0x720 JUMP JUMPDEST DUP3 MSTORE POP POP JUMP JUMPDEST PUSH0 PUSH1 0x20 DUP3 ADD SWAP1 POP PUSH2 0xC8D PUSH0 DUP4 ADD DUP5 PUSH2 0xC6B JUMP JUMPDEST SWAP3 SWAP2 POP POP JUMP JUMPDEST PUSH32 0x4E487B7100000000000000000000000000000000000000000000000000000000 PUSH0 MSTORE PUSH1 0x22 PUSH1 0x4 MSTORE PUSH1 0x24 PUSH0 REVERT JUMPDEST PUSH0 PUSH1 0x2 DUP3 DIV SWAP1 POP PUSH1 0x1 DUP3 AND DUP1 PUSH2 0xCD7 JUMPI PUSH1 0x7F DUP3 AND SWAP2 POP JUMPDEST PUSH1 0x20 DUP3 LT DUP2 SUB PUSH2 0xCEA JUMPI PUSH2 0xCE9 PUSH2 0xC93 JUMP JUMPDEST JUMPDEST POP SWAP2 SWAP1 POP JUMP JUMPDEST PUSH0 DUP2 SWAP1 POP DUP2 PUSH0 MSTORE PUSH1 0x20 PUSH0 KECCAK256 SWAP1 POP SWAP2 SWAP1 POP JUMP JUMPDEST PUSH0 PUSH1 0x20 PUSH1 0x1F DUP4 ADD DIV SWAP1 POP SWAP2 SWAP1 POP JUMP JUMPDEST PUSH0 DUP3 DUP3 SHL SWAP1 POP SWAP3 SWAP2 POP POP JUMP JUMPDEST PUSH0 PUSH1 0x8 DUP4 MUL PUSH2 0xD4C PUSH32 0xFFFFFFFFFFFFFFFFFFFFFFFFFFFFFFFFFFFFFFFFFFFFFFFFFFFFFFFFFFFFFFFF DUP3 PUSH2 0xD11 JUMP JUMPDEST PUSH2 0xD56 DUP7 DUP4 PUSH2 0xD11 JUMP JUMPDEST SWAP6 POP DUP1 NOT DUP5 AND SWAP4 POP DUP1 DUP7 AND DUP5 OR SWAP3 POP POP POP SWAP4 SWAP3 POP POP POP JUMP JUMPDEST PUSH0 DUP2 SWAP1 POP SWAP2 SWAP1 POP JUMP JUMPDEST PUSH0 PUSH2 0xD91 PUSH2 0xD8C PUSH2 0xD87 DUP5 PUSH2 0x720 JUMP JUMPDEST PUSH2 0xD6E JUMP JUMPDEST PUSH2 0x720 JUMP JUMPDEST SWAP1 POP SWAP2 SWAP1 POP JUMP JUMPDEST PUSH0 DUP2 SWAP1 POP SWAP2 SWAP1 POP JUMP JUMPDEST PUSH2 0xDAA DUP4 PUSH2 0xD77 JUMP JUMPDEST PUSH2 0xDBE PUSH2 0xDB6 DUP3 PUSH2 0xD98 JUMP JUMPDEST DUP5 DUP5 SLOAD PUSH2 0xD1D JUMP JUMPDEST DUP3 SSTORE POP POP POP POP JUMP JUMPDEST PUSH0 SWAP1 JUMP JUMPDEST PUSH2 0xDD2 PUSH2 0xDC6 JUMP JUMPDEST PUSH2 0xDDD DUP2 DUP5 DUP5 PUSH2 0xDA1 JUMP JUMPDEST POP POP POP JUMP JUMPDEST JUMPDEST DUP2 DUP2 LT ISZERO PUSH2 0xE00 JUMPI PUSH2 0xDF5 PUSH0 DUP3 PUSH2 0xDCA JUMP JUMPDEST PUSH1 0x1 DUP2 ADD SWAP1 POP PUSH2 0xDE3 JUMP JUMPDEST POP POP JUMP JUMPDEST PUSH1 0x1F DUP3 GT ISZERO PUSH2 0xE45 JUMPI PUSH2 0xE16 DUP2 PUSH2 0xCF0 JUMP JUMPDEST PUSH2 0xE1F DUP5 PUSH2 0xD02 JUMP JUMPDEST DUP2 ADD PUSH1 0x20 DUP6 LT ISZERO PUSH2 0xE2E JUMPI DUP2 SWAP1 POP JUMPDEST PUSH2 0xE42 PUSH2 0xE3A DUP6 PUSH2 0xD02 JUMP JUMPDEST DUP4 ADD DUP3 PUSH2 0xDE2 JUMP JUMPDEST POP POP JUMPDEST POP POP POP JUMP JUMPDEST PUSH0 DUP3 DUP3 SHR SWAP1 POP SWAP3 SWAP2 POP POP JUMP JUMPDEST PUSH0 PUSH2 0xE65 PUSH0 NOT DUP5 PUSH1 0x8 MUL PUSH2 0xE4A JUMP JUMPDEST NOT DUP1 DUP4 AND SWAP2 POP POP SWAP3 SWAP2 POP POP JUMP JUMPDEST PUSH0 PUSH2 0xE7D DUP4 DUP4 PUSH2 0xE56 JUMP JUMPDEST SWAP2 POP DUP3 PUSH1 0x2 MUL DUP3 OR SWAP1 POP SWAP3 SWAP2 POP POP JUMP JUMPDEST PUSH2 0xE96 DUP3 PUSH2 0x77E JUMP JUMPDEST PUSH8 0xFFFFFFFFFFFFFFFF DUP2 GT ISZERO PUSH2 0xEAF JUMPI PUSH2 0xEAE PUSH2 0x94E JUMP JUMPDEST JUMPDEST PUSH2 0xEB9 DUP3 SLOAD PUSH2 0xCC0 JUMP JUMPDEST PUSH2 0xEC4 DUP3 DUP3 DUP6 PUSH2 0xE04 JUMP JUMPDEST PUSH0 PUSH1 0x20 SWAP1 POP PUSH1 0x1F DUP4 GT PUSH1 0x1 DUP2 EQ PUSH2 0xEF5 JUMPI PUSH0 DUP5 ISZERO PUSH2 0xEE3 JUMPI DUP3 DUP8 ADD MLOAD SWAP1 POP JUMPDEST PUSH2 0xEED DUP6 DUP3 PUSH2 0xE72 JUMP JUMPDEST DUP7 SSTORE POP PUSH2 0xF54 JUMP JUMPDEST PUSH1 0x1F NOT DUP5 AND PUSH2 0xF03 DUP7 PUSH2 0xCF0 JUMP JUMPDEST PUSH0 JUMPDEST DUP3 DUP2 LT ISZERO PUSH2 0xF2A JUMPI DUP5 DUP10 ADD MLOAD DUP3 SSTORE PUSH1 0x1 DUP3 ADD SWAP2 POP PUSH1 0x20 DUP6 ADD SWAP5 POP PUSH1 0x20 DUP2 ADD SWAP1 POP PUSH2 0xF05 JUMP JUMPDEST DUP7 DUP4 LT ISZERO PUSH2 0xF47 JUMPI DUP5 DUP10 ADD MLOAD PUSH2 0xF43 PUSH1 0x1F DUP10 AND DUP3 PUSH2 0xE56 JUMP JUMPDEST DUP4 SSTORE POP JUMPDEST PUSH1 0x1 PUSH1 0x2 DUP9 MUL ADD DUP9 SSTORE POP POP POP JUMPDEST POP POP POP POP POP POP JUMP JUMPDEST PUSH0 DUP2 SWAP1 POP SWAP3 SWAP2 POP POP JUMP JUMPDEST PUSH0 PUSH2 0xF70 DUP3 PUSH2 0x77E JUMP JUMPDEST PUSH2 0xF7A DUP2 DUP6 PUSH2 0xF5C JUMP JUMPDEST SWAP4 POP PUSH2 0xF8A DUP2 DUP6 PUSH1 0x20 DUP7 ADD PUSH2 0x798 JUMP JUMPDEST DUP1 DUP5 ADD SWAP2 POP POP SWAP3 SWAP2 POP POP JUMP JUMPDEST PUSH0 PUSH2 0xFA1 DUP3 DUP5 PUSH2 0xF66 JUMP JUMPDEST SWAP2 POP DUP2 SWAP1 POP SWAP3 SWAP2 POP POP JUMP INVALID LOG2 PUSH5 0x6970667358 0x22 SLT KECCAK256 0xCA PUSH1 0x52 SAR 0xE5 BYTE 0xBD SHR SWAP2 PUSH3 0xEB869F SWAP8 0x4D 0xB2 0xD3 CALL ORIGIN CREATE STOP DUP6 0xD9 SUB 0xCB GAS 0xEC 0xBD DUP11 POP PUSH17 0xCF64736F6C634300081A00330000000000 "
				},
				"gasEstimates": {
					"creation": {
						"codeDepositCost": "813200",
						"executionCost": "infinite",
						"totalCost": "infinite"
					},
					"external": {
						"addNewUser(string,string)": "infinite",
						"getListOfNames()": "infinite",
						"getNumber()": "2476",
						"getUserList()": "infinite",
						"listOfNames(uint256)": "infinite",
						"loginData(string)": "infinite",
						"users(uint256)": "infinite"
					}
				},
				"methodIdentifiers": {
					"addNewUser(string,string)": "579e4138",
					"getListOfNames()": "42b2378a",
					"getNumber()": "f2c9ecd8",
					"getUserList()": "b8522043",
					"listOfNames(uint256)": "f52aee1d",
					"loginData(string)": "7054010a",
					"users(uint256)": "365b98b2"
				}
			},
			"storageLayout": {
				"storage": [
					{
						"astId": 4,
						"contract": "EasyStorage.sol:EasyStorage",
						"label": "number",
						"offset": 0,
						"slot": "0",
						"type": "t_uint256"
					},
					{
						"astId": 7,
						"contract": "EasyStorage.sol:EasyStorage",
						"label": "listOfNames",
						"offset": 0,
						"slot": "1",
						"type": "t_array(t_string_storage)dyn_storage"
					},
					{
						"astId": 67,
						"contract": "EasyStorage.sol:EasyStorage",
						"label": "users",
						"offset": 0,
						"slot": "2",
						"type": "t_array(t_struct(loginDetails)63_storage)dyn_storage"
					},
					{
						"astId": 81,
						"contract": "EasyStorage.sol:EasyStorage",
						"label": "loginData",
						"offset": 0,
						"slot": "3",
						"type": "t_mapping(t_string_memory_ptr,t_string_storage)"
					}
				],
				"types": {
					"t_array(t_string_storage)dyn_storage": {
						"base": "t_string_storage",
						"encoding": "dynamic_array",
						"label": "string[]",
						"numberOfBytes": "32"
					},
					"t_array(t_struct(loginDetails)63_storage)dyn_storage": {
						"base": "t_struct(loginDetails)63_storage",
						"encoding": "dynamic_array",
						"label": "struct EasyStorage.loginDetails[]",
						"numberOfBytes": "32"
					},
					"t_mapping(t_string_memory_ptr,t_string_storage)": {
						"encoding": "mapping",
						"key": "t_string_memory_ptr",
						"label": "mapping(string => string)",
						"numberOfBytes": "32",
						"value": "t_string_storage"
					},
					"t_string_memory_ptr": {
						"encoding": "bytes",
						"label": "string",
						"numberOfBytes": "32"
					},
					"t_string_storage": {
						"encoding": "bytes",
						"label": "string",
						"numberOfBytes": "32"
					},
					"t_struct(loginDetails)63_storage": {
						"encoding": "inplace",
						"label": "struct EasyStorage.loginDetails",
						"members": [
							{
								"astId": 60,
								"contract": "EasyStorage.sol:EasyStorage",
								"label": "userName",
								"offset": 0,
								"slot": "0",
								"type": "t_string_storage"
							},
							{
								"astId": 62,
								"contract": "EasyStorage.sol:EasyStorage",
								"label": "password",
								"offset": 0,
								"slot": "1",
								"type": "t_string_storage"
							}
						],
						"numberOfBytes": "64"
					},
					"t_uint256": {
						"encoding": "inplace",
						"label": "uint256",
						"numberOfBytes": "32"
					}
				}
			},
			"userdoc": {
				"kind": "user",
				"methods": {},
				"version": 1
			}
		}
	}
}